:020000040800F2
:10000000E0410320B9010008DB010008A901000854
:10001000DF010008E1010008E30100080000000022
:10002000000000000000000000000000E5010008E2
:10003000E701000800000000E9010008A5330008FE
:10004000ED010008ED010008ED010008ED010008D8
:10005000ED010008ED010008ED1E0008B11F0008C9
:10006000D51F0008F91F00081D200008ED01000839
:10007000ED010008C11C0008ED010008ED010008B9
:10008000ED010008ED010008E1190008ED0100088C
:10009000ED010008ED010008ED0100084120000815
:1000A000ED0100081D360008ED010008ED01000813
:1000B0006936000895360008C5360008ED010008CD
:1000C000ED010008ED010008ED010008ED01000858
:1000D000ED010008753F0008813F00088D3F0008D2
:1000E000111F0008ED010008ED010008ED010008F6
:1000F00085370008ED010008ED010008ED0100085A
:100100000000000000000000F5360008ED010008C6
:10011000ED010008ED0100082537000855370008FB
:10012000ED010008ED010008ED010008ED010008F7
:10013000ED010008ED010008ED010008ED010008E7
:1001400000000000000000000000000000000000AF
:10015000ED010008ED010008ED010008ED010008C7
:10016000ED010008ED010008ED010008ED010008B7
:10017000ED010008ED01000800000000DFF814D0D8
:1001800000F0BAFE00F0E2F900480047C981020819
:1001900000F057FDE0410320EFF308807047EFF3D4
:1001A00009807047684670477046694617F094FAB0
:1001B00029F0DEFAFEE7000041F20000C2F2000082
:1001C00085460B48804740F20000C0F60000D0F89A
:1001D00000D00848804708480047FEE7FEE7FEE7F2
:1001E000FEE7FEE7FEE7FEE7FEE7FEE7FEE70000CC
:1001F00079B40108653400087D0100082DE9F05F3D
:100200000546002092469B46884606468146402485
:100210001BE0284641464746224600F066FC53460E
:100220005A46C01A914110D311461846224600F092
:100230004DFC2D1A67EB01084F4622460120002194
:1002400000F044FC17EB00094E41201EA4F101040C
:10025000DFDC484631462A464346BDE8F09F0000B1
:10026000004870475C35040810B50446FFF7F8FFF6
:100270000068005D00F0010010BD40EA01039B072B
:1002800003D009E008C9121F08C0042AFAD203E00B
:1002900011F8013B00F8013B521EF9D2704710B52E
:1002A000431A934209D28318881803E010F8011DFD
:1002B00003F8011D521EF9D210BD40EA01039B074D
:1002C00003D009E008C9121F08C0042AFAD203E0CB
:1002D00011F8013B00F8013B521EF9D210BDD2B219
:1002E00001E000F8012B491EFBD270470022F6E71F
:1002F00010B513460A4604461946FFF7F0FF20469C
:1003000010BD421E12F8013F002BFBD111F8013B3A
:1003100002F8013B002BF9D1704730B505462A465B
:100320000B4612F8010B13F8014B08B1A042F8D0AC
:100330001CB1002802D06D1CF1E7284630BD10B575
:10034000044604E00B7800F8013B03B1491C521E3F
:10035000F8D2204610BD421C10F8011B0029FBD129
:10036000801A704710B5002200E0521C835C8C5C40
:10037000A34201D1002BF8D1D8B2E1B2401A10BD8E
:1003800030B504460020034600E05B1C934203D2D4
:10039000E05CCD5C401BF8D030BD034611F8012B6A
:1003A00000F8012B002AF9D1184670470246C9B25D
:1003B00000E0401C0378002BFBD102E003788B4265
:1003C00003D0401E9042F9D2002070472DE9FF5F14
:1003D0001D464FF0FF3BD5E9014691465F464FF081
:1003E0000008A9697F1C01988847296A82468847C6
:1003F0000028F6D1BAF1FF3F0CD024F4C064002EDF
:1004000019DD600614D5BAF12B0F09D0BAF12D0F02
:100410000ED103E0584604B0BDE8F09F44F4806478
:10042000A9697F1C01988847761E8246002E02DD4E
:10043000BAF1300F03D0B9F1000F26D032E0A9692C
:10044000761E44F400747F1C019888478246002E73
:1004500005DDBAF1780F06D0BAF1580F03D0B9F123
:10046000000F10D01EE0B9F1000F02D0B9F1100F4B
:1004700018D1A969761E24F400747F1C019888475E
:100480008246102002E0082000E00A20814609E0B0
:1004900008FB0908A969761E44F400747F1C0198C2
:1004A00088478246002E05DD4946504600F03FFB56
:1004B0000028EDDAE96901988847A00502D46FF0B9
:1004C0000100A8E7E00725D1600613D5600502D535
:1004D000C8F1000000E0404629680A1D2A6009684A
:1004E000220501D5087015E0220701D5088011E02A
:1004F00008600FE02868011D29600068210502D509
:1005000080F8008006E0210702D5A0F8008001E015
:10051000C0F8008038467EE770B5064611F0B2FD9F
:10052000046805460A220021304600F043FB2C6097
:1005300070BD70B5064611F0A5FD046805460A2297
:100540000021304600F036FB2C6070BD70B5054CC4
:10055000054D03E0206820448047241DAC42F9D1BA
:1005600070BD000010470408504704082DE9F04111
:10057000074615460E46102027F040FE04000AD01C
:100580006760C4E9026500F04DFB0168216004600A
:100590000020BDE8F0810120FBE72DE9FE4F8046F9
:1005A00081EA0300C00F0C46009021F0004123F0C7
:1005B0000045B8EB0200A94105D2404621469046CD
:1005C0001C460B46024623F00040104347D0270D3F
:1005D000C7F30A00C3F30A510290401A0190402861
:1005E0006BDAC3F3130040F4801B0098924620B1ED
:1005F0000023D2EB030A63EB0B0B01985946C0F1C1
:100600004002504600F062FA06460D4650465946F2
:10061000019A00F07AFA10EB08006141002487EAA1
:10062000115284EAE7731A4340D0009A62B3019AE8
:10063000012A4FEA075215DC001B61EB02014FF063
:10064000004202EA0752CDE90042001C41F5801148
:1006500032462B4600F05CFB03B0BDE8F08F40460D
:100660002146F9E7001B61EB0201001C41F58013F4
:1006700000185B412018A2F5001747EB030140EA80
:10068000D570B6196D4111E06D084FEA360645EA9E
:10069000C0754FEA0752001B61EB0201001C41F5D7
:1006A000801149084FEA30000019514132462B466B
:1006B00003B0BDE8F04F00F01CBB009801224000E1
:1006C0000023D0EB020263EBE073009821464FEA6F
:1006D000E074B8EB000061EB0401E9E783F000434C
:1006E0005BE781F0004158E72DE9FE4F81EA030402
:1006F00004F0004421F0004100944FF0000B23F07F
:10070000004350EA01045ED052EA03045BD0C3F315
:100710000A54C1F30A552C44A4F2F3340194A0FB0B
:100720000254C1F3130141F48011C3F3130343F4E2
:10073000801301FB024400FB034E840A970A44EA3B
:10074000815447EA8357A4FB076802958D0A05FB8D
:1007500007854FEA932C04FB0C542705029D4FEAB2
:10076000065847EA1637B5EB08056EEB070C870EFF
:10077000920E47EA811742EA8312A7FB0201B6EB09
:100780000B0164EB00042B0D43EA0C335E1844EBC1
:100790001C50DA465146E7FB0201C5F313044FEA49
:1007A0000B3343EA14534FEA0432019C43EA060335
:1007B000A4F10C040294009CCDE900B400F0A8FA66
:1007C00003B0BDE8F08F00200146F9E72DE9F04DB8
:1007D00081EA030404F0004B21F0004514464FF079
:1007E000000A23F0004150EA050220D054EA010239
:1007F0001DD0C5F30A570246C5F31303C1F3130016
:10080000C1F30A5640F4801543F48013A7EB0608A1
:10081000101BD64608F2FD3873EB050002D308F131
:10082000010801E092185B41B8F1000F03DA0020E3
:100830000146BDE8F08D00204FF480110646844645
:100840000EE0171B73EB050705D3121B63EB0503C3
:1008500006434CEA010C49084FEA300092185B410C
:1008600050EA0107EDD152EA030012D082EA0400F7
:1008700083EA0501084305D0101BAB4106D20122D3
:10088000002306E000224FF0004302E06FF0010277
:1008900053101AEB06004CEB085110EB0A0041EB29
:1008A0000B01BDE8F04D00F024BAF0B4CA17CB0F2D
:1008B00050405140C61841F100054FEAC37231461D
:1008C00028004FF0960303D0B623F0BC00F0E3B944
:1008D00030460021F9E730B404469623080021464B
:1008E00004D0B62330BC002200F0D5B92046002148
:1008F000F8E70EB5C10F80EAE0700844CA0700218E
:1009000040F233438DE80E000A460B4600F000FA31
:1009100003B000BD0EB540F2334102910021CDE994
:1009200000110A460B4600F0F3F903B000BD3EB5D6
:10093000CA17CB0F002450405140C0186141DA075C
:1009400040F233430094CDE901232246234600F0D0
:10095000DFF903B030BD0EB540F2334202920022FF
:10096000CDE90022134600F0D3F903B000BD70B505
:10097000C1F30A5201F000450024C1F3130140F213
:10098000FF3341F480119A4201DA002070BD40F239
:1009900033439A42A2F2334203DC524200F0A5F8FC
:1009A00000E090402C43F1D0404270BDC1F30A52A8
:1009B00010B5C1F3130140F2FF3341F480119A42A4
:1009C00001DA002010BD40F233439A42A2F23342D2
:1009D00003DC524200F089F810BD904010BD00F0D9
:1009E000004230F000400AD0C10D01F56071C0F343
:1009F000160042EA0151C208400711437047002027
:100A00000146704730B5041E71F1000404DB4FF05D
:100A10000044404264EB0101141E73F1000405DB45
:100A20001C464FF00043524263EB04038B4208BF65
:100A3000824230BD30B5041E71F1000404DB4FF07A
:100A40000044404264EB0101141E73F1000405DB15
:100A50001C464FF00043524263EB0403994208BF27
:100A6000904230BD01F0004330B421F0004150EA23
:100A7000010206D00A0DA2F56072C1F31301002A2B
:100A800002DC30BC00207047440F44EAC104C100BE
:100A9000E01830BC00EBC25000F0F4B800F0F6B93A
:100AA00030B50B46014600202022012409E021FA3E
:100AB00002F59D4205D303FA02F5491B04FA02F53B
:100AC0002844151EA2F10102F1DC30BD202A04DB0E
:100AD000203A00FA02F1002070479140C2F1200351
:100AE00020FA03F3194390407047202A04DB203A90
:100AF00021FA02F00021704721FA02F3D040C2F13E
:100B000020029140084319467047202A06DBCB1784
:100B1000203A41FA02F043EAE07306E041FA02F3B8
:100B2000D040C2F1200291400843194670473A284C
:100B300000D2303820F02002412A01D3A2F1370040
:100B4000884201D34FF0FF30704700000268114423
:100B50001378016018467047D16004495161044917
:100B6000116200211161114600F0F4B94D0B00082B
:100B700069020008426842B1016811F8013B23B1E3
:100B8000521EC0E90012184670470121C160881E3C
:100B9000704742685AB1C368016843B983688B42A1
:100BA00005D0491E521CC0E90012002070474FF0CA
:100BB000FF3070472DE9F04791460F4680460446C6
:100BC000002614F8015B2DB1FFF74AFB0068405D79
:100BD000C007F6D12B2D02D02D2D18D0641E4A4609
:100BE0003946204600F0FCFC27B13968A14201D10A
:100BF000C7F8008071054FF002040BD54042002871
:100C000003DD11F03FFA0460A007BDE8F08746F469
:100C10008066E4E70028F8DA11F034FA04606FF037
:100C20000040F2E700487047200300200348704767
:100C30000248001D011F8860001D7047240300202A
:100C400070472DE9F0410646FFF7ECFF8046454628
:100C500013E016B1E068B0420ED120682860D4E9F4
:100C60000101D8F80070884720461BF0EFFCD8F847
:100C70000000B842EBD100E025462C68002CE8D1FA
:100C8000BDE8F0810029A8BF7047401C490008BF9B
:100C900020F00100704710B4B0FA80FC00FA0CF0AC
:100CA00050EA010404BF10BC704749B1CCF12004E4
:100CB00021FA04F411FA0CF118BF01212143084371
:100CC000A3EB0C01CB1D4FEA00614FEA102042BF9D
:100CD000002010BC704700EBC35010440029A4BF93
:100CE00010BC7047401C490008BF20F0010010BC38
:100CF000704710B5141E73F1000408DA401C41F16E
:100D0000000192185B411A4301D120F0010010BD8F
:100D10002DE9F04D92469B4611B1B1FA81F202E005
:100D2000B0FA80F220329046FFF7D0FE04460F461C
:100D300040EA0A0041EA0B0153465A46084313D0E1
:100D4000114653EA010019D0C8F140025046FFF79E
:100D5000CCFE05460E46504659464246FFF7B6FEC3
:100D6000084305D0012004E020463946BDE8F08D57
:100D70000020054346EAE0762C4337430A98630592
:100D8000E40AA0EB08000022FD0A44EA47540A30B6
:100D900002D500200146E9E7010510196941DDE9A6
:100DA000084500196941BDE8F04DA2E72DE9F04D75
:100DB00000231A461B1A8A4103DB00200146BDE8C6
:100DC000F08DC1F30A52C1F3130141F480154FF0C5
:100DD000000BD10702D100186D41521E00270446B6
:100DE00040F2FF11384601EB620A3E468046024659
:100DF00000204FF48011FFF778FEC2197141BB1833
:100E000046EB0100B4EB030C75EB000C04D3E41AC1
:100E100065EB000517460E46241908F101006D41E7
:100E200080463428E3DDF91946EB0600091BA8418A
:100E300003D24FF0FF32134601E0002213461BEBB2
:100E4000070046EB0A51BDE8F04DFFF752BFC1F372
:100E50000A52C1F3130140F2FF3341F480119A4268
:100E600002DA00200146704740F233439A42A2F270
:100E7000334202DC5242FFF738BEFFF727BE10B5FF
:100E800011F004F9BDE8104010F0EABF10B500F011
:100E90000EF8016919B100220261884701E08068FB
:100EA0008047AFF30080000010B5AFF3008070B54D
:100EB000FFF7BEFE04680546A4B9202027F09EF97E
:100EC000040011D0094900202C60C4E90001084940
:100ED000A1602073206160610649A06109B100F042
:100EE000CFFBE061204670BDAFF300800000000042
:100EF000A90E000800000000064C074D06E0E0685F
:100F000040F0010394E8070098471034AC42F6D350
:100F1000FFF738F9F0460408104704080FB400B58D
:100F20008DB010A909900B9000914FF0FF300A90FE
:100F300000200C9005480690054807906A4609A8CD
:100F40000F99FFF709FE0DB05DF814FB750B000853
:100F5000930B00082DE9F34F8BB04FF0000801F11F
:100F60000C000C464FF0010B46460DF1080A0190AB
:100F70006269012101989047051E2DD0252D2CD0A6
:100F8000216A8847C0B16269012101989047216AAE
:100F900088470028F7D1411E62690198904700E018
:100FA000761CA1690B988847216A88470028F7D1E9
:100FB000E1690B988847DBE7A1690B9888470746EA
:100FC000A84201D1761CD3E7E1690B9888477F1CC2
:100FD00002D1B8F1000F6FD046E1002762693D46AB
:100FE0003946019890472A2804D162690121019865
:100FF00090470125DFF884926269012101989047AA
:10100000A0F130010A290AD24F45E5DC07EB870140
:1010100000EB4107303FDFD445F01005ECE7E9066F
:1010200001D46FF000476C280AD04C2814D06828EF
:1010300015D06A280DD074281CD07A281AD01DE04B
:1010400062690121019890476C2802D045F004059F
:1010500014E045F002050DE045F020050AE0626964
:10106000012101989047682802D045F0080505E065
:1010700045F400656269012101989047C4E9015770
:1010800065283DD019DC58287AD00CDC452837D0AB
:1010900004DC252826D0412831D131E046282FD044
:1010A00047282CD12CE05B2877D0612828D06328F2
:1010B0007CD0642823D15AE0D0E06F2848D008DCE7
:1010C00066281DD067281BD0692821D06E2816D12C
:1010D00027E0702845D0732868D0752847D0782835
:1010E0000DD14DE0A1690B988847054625283FF4AE
:1010F00069AFE1690B9888476D1C3FF46AAFB3E0B4
:1011000023466A466FF001000B9900F04DF99EE00E
:1011100045F040006060A80723464FF0000236D437
:101120003EE0E8077FF447AF2068011D21600068BA
:10113000290501D506701BE7290701D5068017E7A9
:10114000A90703D5F117C0E9006111E706600FE7B1
:1011500045F040006060A80723464FF0080216D40F
:101160001EE040F60E0125EA0100606016E045F041
:1011700040006060A80723464FF00A0207D40FE042
:1011800045F040006060A80708D5234610226FF0A4
:1011900001000B9900F0B3FA59E007E02346102252
:1011A0006FF001000B99FFF711F950E04FF00009C3
:1011B0004F464B46632802D05B2806D040E0E80645
:1011C00001D40120A06001273AE062690121019861
:1011D00090475E2805D14FF00109626949460198A0
:1011E0009047216939B900210A46534643F8212026
:1011F000491C0829FADBB0B3216969B9C11700EBB2
:10120000D16253110AEB830122F01F02821A0120DE
:101210000B68904003430B6062690121019890477D
:101220005D28E8D1B9F1000F09D00020514651F8EE
:101230002020D24341F82020401C0828F7DB02ABD5
:10124000224600976FF001000B9900F003FB002885
:101250000CDA401C08D1BBF1000F05D04FF0FF3075
:101260000DB0BDE8F08FFFE74046F9E7E90701D18F
:1012700008F1010806444FF0000B79E6CCCCCC0C09
:101280002DE9FF4F087883B09946FF2805D0491C07
:101290002D2804D00024002008E000200BE00124C9
:1012A000F9E700EB800003EB4000491C0B78FF2BB3
:1012B000F7D104B1404200230293147819461D4629
:1012C0002D2C01D02B2C04D1521C2D2C13D00024FA
:1012D0000294AA461478FF2C0FD00A25A3FB0578A8
:1012E00001FB05814FF0000C03FB0C11521CE319AC
:1012F0004AEB0101EEE70124EAE7814453EA0100E9
:1013000002D019F5C87F06DA03980021C0E9001160
:1013100007B0BDE8F08F0025AE4E2F46DFF8B8824B
:101320001846FFF718FBCDE90001B9F1000002DA19
:10133000C9F1000400E004460023A74A1AEB030B9E
:1013400042EB045A12E0E00707D02A4633463846FB
:101350004146FFF7C9F9074688462A4633461046F4
:101360001946FFF7C1F905460E466410002CEAD174
:10137000DDE90001B9F1000F5A46534606DAFFF7DE
:1013800025FA3A464346FFF721FA05E0FFF7ACF9A4
:101390003A464346FFF7A8F9029A0AB181F00041A4
:1013A000039AC2E90001B3E72DE9FF4F1F468DB054
:1013B000D7E901464FF0FF382E2045464FF000098F
:1013C0000B90B9696D1C0E988847396A8246884728
:1013D0000028F6D1BAF1FF3F0AD024F4D064002EE1
:1013E00011DDBAF12B0F08D0BAF12D0F0BD102E0AD
:1013F000404611B08DE744F48064B9696D1C0E98C5
:1014000088478246761E6946600501D52D2000E09A
:101410002B208DF8000001F1010B0DF1200809E0EF
:10142000B9696D1C0E98884782460F9844F4007481
:10143000761E0560002E02DDBAF1300FF0D00B9958
:101440008A453ED144F0800406E00F99681CA9F15A
:10145000010944F400740860B9696D1C761E0E9889
:10146000884782463028F0D02BE00B998A4505D179
:10147000200603D444F08004761E18E0504612F093
:10148000B8FE08B30DF11301761E44F400748B45C9
:1014900008D2AAF130000BF8010B200607D5A9F1FC
:1014A000010003E0200602D409F101008146A005F5
:1014B00002D50F99681C0860B9696D1C0E988847A1
:1014C0008246002ED1DC53E0002E51DDBAF1650FCB
:1014D00002D0BAF1450F4BD1A00549D5B9696D1CB1
:1014E00024F44074761E0E9888478246002E0CDD48
:1014F0002B2804D0BAF12D0F07D144F48074B969B8
:101500006D1C0E9888478246761EE00501D52D2178
:1015100000E02B2108F8011BCDF82C8021E00DF113
:101520002901761E44F4007488450CD2AAF13000DB
:1015300010F0FF0088F8000002D10B99884509D906
:1015400008F1010806E0E00501D5244801E042F277
:101550000F708146B9696D1C0E98884782460F98B6
:101560000560002E04DD504612F043FE0028D6D15F
:10157000F9690E988847FF208BF8000088F8000072
:101580000020069007904B466A4608A906A8FFF778
:1015900077FEA00502D46FF001002AE714F0240FB3
:1015A0000AD0E00714D1DDE906123868031D3B605C
:1015B0000068C0E900120BE0DDE90601FFF752FA0E
:1015C0000146E00704D13868021D3A6000680160F6
:1015D00028460EE7000014400000F03FF1D8FFFF5E
:1015E0002DE9F05F82460078002715468B460AF108
:1015F0000104B946302801D09DB113E014F8010B65
:101600000127782803D0582801D045B10AE00DB150
:10161000102D07D10027102514F8010B02E0082532
:1016200000E00A250026B0460EE005FB080005FB99
:1016300006F1012701EB10461FFA80F8B6F5803F4E
:1016400000D3B94614F8010B2946FFF770FA0028B9
:10165000EBDABBF1000F05D00FB1641E00E0544679
:10166000CBF80040B9F1000F06D010F00BFD0221BD
:101670000160C81EBDE8F09F48EA0640FAE77047DF
:1016800010B5882026F0BAFD002801D00021017095
:1016900010BD802902D808B1017809B10020704737
:1016A000012100F8081B704718B100F108029142AF
:1016B00001D00020704700210170704710B5441A16
:1016C0000346944209D28418114403E011F8013D05
:1016D00004F8013D521EF9D210BD40EA0104A407EE
:1016E00003D009E010C9121F10C3042AFAD203E084
:1016F00011F8014B03F8014B521EF9D210BD2DE930
:10170000FF4F1C4681B00021D4E9016791464FF09C
:10171000FF358A468846A1696D1C02988847216A70
:10172000834688470028F6D1BBF1FF3F0CD026F452
:10173000C066002F1ADD700615D5BBF12B0F0AD03D
:10174000BBF12D0F0FD104E04FF0FF3005B0BDE825
:10175000F08F46F48066A1696D1C029888477F1E51
:101760008346002F02DDBBF1300F03D0B9F1000F2B
:101770002AD025E0A1696D1C46F400767F1E0298F0
:1017800088478346002F05DDBBF1780F06D0BBF1FB
:10179000580F03D0B9F1000F10D011E0B9F1000FCC
:1017A00002D0B9F1100F0BD1A1696D1C26F400769F
:1017B0007F1E029888478346102000E0082081465B
:1017C0004FEAE970009017E00A20F8E74346AAFBC9
:1017D000092803FB0980DDF800C07F1E0AFB0C010D
:1017E00012EB0B0A41EBEB78A16946F4007605F1A8
:1017F0000105029888478346002F06DD4946584672
:10180000FFF795F95FEA000BE0D5E1690298884798
:10181000B00502D46FF0010098E7F00718D1700608
:1018200010D57005514605D50023D1EB030163EBBC
:10183000080200E042462068031D23600068C0E9FA
:10184000001205E02068011D21600068C0E900A8C1
:1018500028467BE72DE9FF5FD2E901A74FF000089A
:10186000916999461446DDF838B046460198884794
:10187000054659EA0B0005D009E0A169761C0198DC
:1018800088470546216A284688470028F5D1681C04
:1018900003D05FEACA7005D015E04FF0FF3004B006
:1018A000BDE8F09F2068011D2160D0F800800AE0AB
:1018B0005FEACA7001D108F8015BA169761C7F1E3E
:1018C000019888470546002F1ADD681C18D0B9F129
:1018D000000F0DD0E81705EBD060421120F01F007B
:1018E00059F822102A1A012090400142E0D107E065
:1018F000BBF1000FDCD1216A284688470028D7D0E9
:10190000E16901988847BBF1000F07D1002E05DD82
:101910005FEACA7002D1002188F80010A068B842BE
:1019200003DDBBF1000F03D017B16FF00100B6E784
:101930003046B4E700DE2DE9F04117460E46054675
:1019400033B107FB0354E41B2046B047A542FAD14C
:10195000A5F10800BDE8F0812DE9F04116461F46CB
:101960000C46851B02E02846B847AD1B641EFAD220
:10197000BDE8F08170B58C1810F8015B15F0070315
:1019800001D110F8013B2A1106D110F8012B03E018
:1019900010F8016B01F8016B5B1EF9D12B0705D420
:1019A0000023521E0DD401F8013BFAE710F8013B69
:1019B000CB1A921C03E013F8015B01F8015B521E85
:1019C000F9D5A142D8D3002070BD38B50446684689
:1019D000AFF300800146204629F0B8F838BD00007A
:1019E00070B50A4C4FF408752946204600F092F86D
:1019F00000280AD0204600F08AF805498880294648
:101A00002046BDE8704000F008B870BD00240140D9
:101A10006C010020C943016070476FEA1121016029
:101A200070470029816802D041F0010101E021F0F6
:101A3000010181607047000070B5244D0446244EBA
:101A4000687840B90020FF213154401CC0B21228F0
:101A5000FAD30120687024B3012C22D0022C20D0AC
:101A6000032C1ED0042C1CD0052C1AD0062C18D008
:101A7000072C16D0082C14D0092C12D00A2C10D008
:101A80000B2C0ED00C2C0CD00D2C0AD00E2C08D008
:101A90000F2C06D0102C04D0112C02D04FF0FF30A8
:101AA00070BD204600F016F8401C02D06FF0010017
:101AB00070BD2878122802D36FF0020070BD345434
:101AC000401CC0B22870401E70BD0000DC02002027
:101AD000F4000320094910B502460020064B09789E
:101AE00004E01C5C944205D0401CC0B28842F8D38C
:101AF0004FF0FF3010BD0000F4000320DC02002096
:101B0000014600208968490700D501207047C06C54
:101B100080B2704710B50246002054680B0AC9B263
:101B20000C401168194202D0002C00D0012010BDD9
:101B3000014600208968090700D501207047002A66
:101B40004268C9B201D00A4300E08A43426070474C
:101B500010B542680E4B0C791A400B6842EA042219
:101B60001343436083680B4A1340D1E90242224386
:101B70004C7943EA44031A438260C26A097C22F426
:101B80007002491EC9B242EA0151C16210BD000093
:101B9000FFFEF0FFFDF7F1FD70B5072409290AD912
:101BA000C568A1F10A0606EB4606B440A543B3405A
:101BB0001D43C56007E0056901EB4106B440A5433C
:101BC000B3401D4305611F23072A09D2446B521EEF
:101BD00002EB820293409C4391400C43446370BDEE
:101BE0000D2A09D2046BD21F02EB820293409C4360
:101BF00091400C43046370BDC46A0D3A02EB82024B
:101C000093409C4391400C43C46270BD0D4910B594
:101C1000884202D1012144150AE00B49884202D1D1
:101C20000121041504E0094988420AD10121CC03AD
:101C3000204601F07DF82046BDE81040002101F06B
:101C400077B810BD0024014000280140003C01404D
:101C5000816841F00801816070470029816802D0E5
:101C600041F4A00101E021F4A00181607047816886
:101C700041F00401816070470021016001714171F0
:101C80008160C160012101747047000008B50249FC
:101C900008440090008808BD006C004010B5012089
:101CA00001F052F8BDE81040002001F04DB80000EE
:101CB00008B5024A10440090016008BD006C004065
:101CC00010B54FF40074204600F046F8002817D0F5
:101CD000204600F027F80B49D1E90120904204D2B8
:101CE000BDE81040111A02F0EBBD0748B0F80C2116
:101CF000D0F800010261C868BDE810401DF0F6B9D7
:101D000010BD000094020020DC2E040800290168A8
:101D100002D041F0010102E04FF6FE721140016075
:101D200070470000C10002D50249086070470249AF
:101D30004860704704040240000002400021016036
:101D400041608160C160016141618161C161016285
:101D5000416281627047000001460020CA0001D53F
:101D6000034A00E0034A12680A4200D0012070478B
:101D70000004024000000240002A026801D00A4329
:101D800000E08A430260704730B5036847F6F0729E
:101D900093430C6A8A682243D1E904452C432243C9
:101DA0008C692243CC6922434C6A22438C6A2243C9
:101DB0001A430260CA6842600A6882604968C1606A
:101DC00030BD000001684FF6FE7211400160002135
:101DD000016041608160C1603149314A08399042F7
:101DE00003D1486840F00F0006E02D4A14329042BB
:101DF00004D1486840F0F00048607047284A283213
:101E0000904203D1486840F47060F5E7244A3C32C0
:101E1000904203D1486840F47040EDE7204A5032C8
:101E2000904203D1486840F47020E5E71C4A6432D0
:101E3000904203D1486840F47000DDE7184A7832D8
:101E4000904203D1486840F07060D5E7154A111FF1
:101E5000904203D1086840F00F0006E0114A1432A6
:101E6000904204D1086840F0F000086070470D4AC5
:101E70002832904203D1086840F47060F5E7094ABF
:101E80003C32904203D1086840F47040EDE7054AC7
:101E900050329042EAD1086840F47020E5E7000033
:101EA000080002400804024070B501F083FA0E48B1
:101EB0004FF47A714FF0FF350068B0FBF1F1491E25
:101EC000B1F1807F0AD24FF0E02461610F212846F2
:101ED00010F0C8F80020A061072020612846BDE866
:101EE0007040002110F0BEB8E802002010B50120BB
:101EF00000F00CF9002808D00448006800B18047C1
:101F0000BDE81040012000F0D9B810BD2C0103201D
:101F100070B54FF48065284600F0F8F8234C28B1DE
:101F2000A16A01B18847284600F0C8F84FF400655F
:101F3000284600F0EBF828B1E16A01B1884728464D
:101F400000F0BCF84FF48055284600F0DFF828B1C7
:101F5000216B01B18847284600F0B0F84FF40055D6
:101F6000284600F0D3F828B1616B01B188472846B4
:101F700000F0A4F84FF48045284600F0C7F828B1D7
:101F8000A16B01B18847284600F098F84FF400454E
:101F9000284600F0BBF8002807D0E16B01B1884764
:101FA0002846BDE8704000F089B870BD2C010320C0
:101FB00010B5022000F0AAF8002808D004484068B4
:101FC00000B18047BDE81040022000F077B810BD96
:101FD0002C01032010B5042000F098F8002808D048
:101FE0000448806800B18047BDE81040042000F03C
:101FF00065B810BD2C01032010B5082000F086F84C
:10200000002808D00448C06800B18047BDE81040EF
:10201000082000F053B810BD2C01032010B510208B
:1020200000F074F8002808D00448006900B1804727
:10203000BDE81040102000F041B810BD2C01032075
:1020400070B5202000F062F81B4C28B1606900B127
:102050008047202000F032F8402000F057F828B1E7
:10206000A06900B18047402000F028F8802000F0EF
:102070004DF828B1E06900B18047802000F01EF8DB
:102080004FF48075284600F041F828B1216A01B16B
:102090008847284600F012F84FF40075284600F0F3
:1020A00035F8002807D0616A01B188472846BDE8A5
:1020B000704000F003B870BD2C0103200149086096
:1020C000704700001404014010B500F055F90428D1
:1020D00010D8052817D2DFE800F0030507090B0028
:1020E000062410E007240EE008240CE009240AE08E
:1020F0000A2408E0411F042901D8172403E00A3804
:10210000052800D82824204610BD0000064A0146B4
:1021100000201268044B0A4014331B680B4202D0A3
:10212000002A00D0012070470004014030B51A4950
:102130008379026853B30B6893430B600A1D1368DD
:102140000468A343136002790A44136804682343B4
:102150001360114A083213680468A3431360131D07
:102160001C680568AC431C604479102C05D02144E0
:102170000A68006802430A6030BD116804682143A0
:102180001160196800680143196030BD0079084486
:1021900001689143016030BD000401402DE9FE4318
:1021A0001E46DDF8289017460D46804650282DD251
:1021B00000F0E2F804460F2828D81548012140F81D
:1021C0002450084600F0A8FD404600F0E7F82146FC
:1021D00000F0BEF8012505FA04F0009000208DF80B
:1021E00004008DF805708DF806506846FFF79EFFD5
:1021F0004046FFF769FF8DF808008DF809608DF8FB
:102200000A908DF80B5002A800F0AEFCBDE8FE83EA
:102210002C01032070B5A52500F04CF800B1002575
:102220004FF08056304600F081F8042825D1144C38
:102230001248A0601348A060206940F0200020618F
:10224000206940F040002061304600F06FF804281B
:102250000DD1206920F020002061206940F010009D
:102260002061094805804FF4704000F05FF80528B0
:1022700003D0216921F01001216170BD2301674560
:1022800000200240AB89EFCD00F8FF1F0849042071
:10229000CA68D20701D001207047CA68520701D529
:1022A00002207047C968C906FBD5032070470000AB
:1022B0000020024003490020C969890700D5012098
:1022C0007047000000200240F0B506464FF470470A
:1022D0000D46384600F02AF8042812D10A4C094865
:1022E000A0600A48A060206940F01000206135809D
:1022F000384600F01BF8052803D0216921F01001B1
:102300002161F0BD2301674500200240AB89EFCD7C
:10231000044803494160044A426041644264704792
:102320002301674500200240AB89EFCD00B503468D
:10233000FFF7ACFF03E000BFFFF7A8FF5B1E01281B
:1023400003D0002B00D1052000BD002BF4D1FAE70B
:1023500010B58A0721F003040649130F21440F2208
:102360008C689A4094438C608A68984002438A60E3
:1023700010BD000000000140024901EB00108089FF
:1023800000F002B8DC2E0408002102E04008491CDD
:1023900089B20128FAD8C8B2704700000F4901EB92
:1023A00000100F490068884201D1002070470D4994
:1023B000884201D1012070470B49884201D1022097
:1023C00070470A49884201D1032070470849884272
:1023D00001D104207047FF2070470000DC2E040864
:1023E00000080140000C01400010014000140140B1
:1023F00000180140F0B5CA78002502F00F03D2069C
:1024000001D58A7813430A784FF00F0E12F0FF0FB0
:102410004FF001021CD004680F8802FA05F637401D
:10242000B74211D14FEA850C0EFA0CF724EA0707E0
:1024300003FA0CF43C43CF78282F02D0482F02D067
:1024400002E0466100E006616D1C082DE4D30460E3
:102450000C88FF2C1ED944685FF0000606F10807BF
:1024600002FA07F50F882F40AF420FD14FEA860CD2
:102470000EFA0CF7BC4303FA0CF73C43CF78282F35
:1024800000D14561CF78482F00D10561761C082E18
:10249000E4D34460F0BD10B50121084600F03CFCD7
:1024A0000121BDE810404806AFF3008070B5B0F1DF
:1024B000004F63D96FF07F4303EAD01300F07F042D
:1024C000200904F00F04850004FA05F5062B14D248
:1024D000DFE803F00305080B0E11F44A0DE0F34AA0
:1024E000121D0AE0F14A083207E0F04A0C3204E01B
:1024F000EE4A103201E0ED4A143270B1012810D0DA
:1025000002281DD003281FD0042821D0052823D05D
:10251000062825D0072827D02AE0106820F00F00D1
:1025200025E0012B03D0106820F0F0001FE01068B8
:10253000042C02D920F0C00019E020F0300016E091
:10254000106820F4706012E0106820F470400EE013
:10255000106820F470200AE0106820F4700006E093
:10256000106820F0706002E0106820F07040106089
:10257000012902D110682843106070BDCB4A4FF486
:102580008025203AA8420FD040DCB0F5007F71D002
:102590001EDC10286FD008DC01286DD0022803D083
:1025A000042801D00828E8D198E0302878D04028C5
:1025B00077D0C02876D0B0F5807FDED1506820F487
:1025C000407050600129D8D1506840F480704BE1D0
:1025D000B0F5804F67D00CDCB0F5407F7AD0B0F515
:1025E000006F78D0B0F5406F76D0B0F5805FC4D181
:1025F00074E0B0F5C04F70D0B0F5004F6ED0B0F5BC
:10260000803F6BD0B0F5003FB7D167E0B0F1005F1D
:1026100077D032DCB0F5000F74D015DCB0F5002FA8
:102620005CD0B0F5801F59D0B0F5001F6BD0B0F56D
:10263000800FA2D1506820F48000506001299CD105
:10264000506840F480000FE1B0F1807F70D0B0F1AD
:10265000007F6ED0B0F1806F6CD0B0F1805F8CD114
:10266000506820F080505060012986D1506840F0B9
:102670008050F9E073E047E039E08D4C031BA04245
:102680001DD011DCB0F1804F73D0A0F18043203B0E
:1026900015D0B3F5787F12D0864CE3428DD10EE091
:1026A0003CE048E051E086E0AB4277D0B3F5402F04
:1026B00075D0B3F5A01F73D0B3F5E01F97D1D369E0
:1026C000C0F315008343D361012990D1D16901433F
:1026D000D16170BD4EE057E063E076E0536883431C
:1026E00053600129F5D1516801435160F1E7506809
:1026F000714B184050600129EBD1506840F0010047
:10270000B2E094E09DE0A6E0506820F03000506018
:102710000129DED1506840F01000A5E0506820F09B
:10272000300050600129D4D1506840F030009BE067
:1027300055E05EE067E0506820F0C000506001297D
:10274000C7D1506840F040008EE0506820F0C000D3
:1027500050600129BDD1506840F0C00084E050684D
:1027600020F4407050600129B3D1506840F40070EB
:102770007AE052E0506820F4407050600129A8D1FE
:10278000506840F440706FE0506820F44060506042
:1027900001299ED1506840F4006065E066E06FE07A
:1027A00078E0506820F440605060012991D1506871
:1027B00040F4406058E0506820F4C0405060012967
:1027C00087D1506840F480404EE0506820F4C0400B
:1027D000506001298AD1506840F4C04044E05068FC
:1027E00020F0E0605060012986D1506840F0807090
:1027F0003AE0506820F0E0605060012989D15068CB
:1028000040F0007030E0506820F0E0605060012936
:1028100089D1506840F0806026E0506820F0804008
:10282000506001298CD1506840F080401CE0506815
:1028300020F00050506001298CD1506840F00050C9
:1028400012E0506820F40000506001298CD15068DB
:1028500040F4000008E0506820F4001050600129A6
:102860008DD1506840F40010506032E7D06920F4F8
:10287000C010D0610129F8D1D06940F4002012E0E5
:10288000D06920F4C010D0610129EED1D06940F4A4
:10289000801008E0D06920F4C010D0610129E4D193
:1028A000D06940F4C010D06113E70000200001405F
:1028B000000004402000FEFFFEFFFF7F38B5044605
:1028C0002148844201D1042012E02048844201D1F1
:1028D00008200DE01E48844201D1102008E01D4868
:1028E000844201D1202003E01B4884421DD14020B6
:1028F000E2B1012A1CD0022A1CD0032A1CD0052ACE
:102900001CD0062A1CD0082A1CD0072A0DD11C2254
:10291000ADF800108DF803208DF80230012100F091
:10292000FBF969462046FFF765FD38BD0422EFE755
:102930004822EDE72822EBE70022E9E71022E7E74B
:102940001422E5E71822E3E700080140000C0140EB
:102950000010014000140140001801402DE9F0432F
:1029600089462DED108B83B08046B0EE41CAF0EE63
:1029700061CAB0EE409AF0EE609A9FED610B51ECA7
:10298000190B53EC102BFDF7A9FE0F4647EC180B63
:1029900005469FED5D0B51EC1C0B53EC102BFDF726
:1029A0009DFE0E46044646EC100BB0EE481AF0EEC3
:1029B000681A06F095FDB0EE40EAF0EE60EA47ECEA
:1029C000115B46EC104B06F0F9FE8DED000B9FED10
:1029D00050AB51EC190B53EC1A2BFDF7F7FE9FEDA2
:1029E0004EBB53EC1B2BFDF77FFE41EC1D0BB0EEF5
:1029F0004D0AF0EE6D0A10F01FF8B0EE408AF0EECE
:102A0000608A9FED470B51EC180B53EC102BFDF730
:102A10006BFE53EC182BFDF767FE9FED431B53EC49
:102A2000112BFDF75EFE41EC180BB0EE480AF0EEFC
:102A3000680A10F02DF9B0EE40FAF0EE60FA53ECAF
:102A40001F2B51EC180BFDF74FFE41EC100B53EC14
:102A5000102B9FED370B51EC100BFDF7B7FE53EC2D
:102A60001B2BFDF741FE41EC180B53EC1A2B51ECDC
:102A70001E0BFDF739FE53EC182BFDF7A7FE41ECBA
:102A8000180BB0EE4D0AF0EE6D0A0FF08DFDB0EEB2
:102A900040DAF0EE60DA9FED280B53EC1F2B51EC7F
:102AA000100BFDF793FE53EC1D2BFDF71DFE53ECB1
:102AB0001B2BFDF719FE9DED000B41EC1B0B53EC9E
:102AC0001A2B51EC100BFDF70FFE53EC1B2BFDF7EF
:102AD0007DFE41EC1A0B53EC182B51EC190BFDF752
:102AE0005CFDC8E9000153EC1A2B51EC1C0BFDF7FF
:102AF00054FDC9E9000103B0BDEC108BBDE8F083C3
:102B000000000000008041400000000000405A40EA
:102B10000000000000806640182D4454FB2109404D
:102B20000BEF80AF8F6A7B3F000000000000F03F9A
:102B3000C155E32D102B584100000040C1545841AD
:102B400081070CD16421B0FBF1F201FB120141B904
:102B50004FF4C871B0FBF1F201FB120008B1002084
:102B6000704701207047000070B50F23C4780178CA
:102B70000122F4B1144C2468457804F4E064C4F5EF
:102B8000E064240AC4F10406E3408478B5401C40A4
:102B90002C4301F1E021230181F80034007800F09A
:102BA0001F018A404009800000F1E020C0F80021A8
:102BB00070BD01F01F0082404809800000F1E02054
:102BC000C0F8802170BD00000CED00E00249084310
:102BD00002490860704700000000FA050CED00E0B3
:102BE0002DE9F04116460C4650280ED2134901EB50
:102BF0000015696849B1A97B39B134B12EB1104FC4
:102C000004FB06F13A68914202D90020BDE8F08148
:102C1000082125F0D1FE38680021B0FBF4F0B0FBAC
:102C2000F6F6686800F0DAFD761E641EAB7BB2B281
:102C3000A1B2686800F04CFCA87BE7E7DC2E040832
:102C4000E8020020014908627047000000000E42BF
:102C5000827A0AB1002202E0C27A3AB101224272BB
:102C6000427A50F822000860012070470020704727
:102C7000027A437A9A4203D1427A32B10022027236
:102C8000027A50F82200086070470122F7E700231B
:102C900080E80E007047427A00210A3011547047D4
:102CA000037A012200F10A015A54017A11B100217C
:102CB000017270470121FBE7034A5168034B194039
:102CC000014351607047000000100240FF3FFFEFDA
:102CD000044A0029516901D0014300E08143516158
:102CE0007047000000100240044A0029D16901D059
:102CF000014300E08143D1617047000000100240B1
:102D0000044A0029116901D0014300E081431161A7
:102D10007047000000100240044A0029916901D068
:102D2000014300E0814391617047000000100240C0
:102D3000044A0029D16801D0014300E08143D160F9
:102D40007047000000100240014908607047000011
:102D50004004424270B53D494A683D4B12F00C02B6
:102D600004D0042A0AD0082A08D109E00A6B92018B
:102D700004D54A6D920501D5364A32E0036031E050
:102D80004A6802F480344A68334D2A4012F0C04F3A
:102D900005D1C2F383450F2D01D0022600E00126A4
:102DA000302505EA5265C2F383421543721964B1B6
:102DB0004C68A4030BD54C6D032505EA1434A41C00
:102DC000B3FBF4F35343036004E0244B00E0204BD7
:102DD0005A4302604A68002A04DB214A036893428E
:102DE00000D902604A684B68C2F302121C061D4BF0
:102DF00001D59C5C00E000240268E24042604C681F
:102E00004D68C4F301246D0501D51C5D00E000246C
:102E100022FA04F484604C684D68C4F3C124AD0404
:102E200001D51B5D00E00023DA40C2604B684968B1
:102E3000C3F38133C90001D543F0040309490831C4
:102E4000C95CB2FBF1F1016170BD000000100240ED
:102E500000127A00006CDC0200003C6000093D00BA
:102E600000A24A04F4330408024600205309094929
:102E7000012B0BD0022B0BD0D1F8241002F01F0233
:102E8000012393400B4200D0012070470968F5E709
:102E9000096AF3E7001002400649002281F8202069
:102EA00081F82020012802D0042802D1052081F8D1
:102EB0002000704700100240014908607047000080
:102EC0003C04424202490A6A02430A627047000017
:102ED0000010024005490128486D03D020F0300061
:102EE0004865704740F03000FAE7000000100240EB
:102EF00002490A8882430A80704700000428004083
:102F00000248018841F01001018070470428004008
:102F10000248018821F01001018070470428004018
:102F20002DE9F04700F066F82E4F0646B0FBF7F3A8
:102F30002D482E4C018899422ED0038040F2B27564
:102F40004FF4B7794FF4B6780DE0A8B2FFF7F8FD6B
:102F500030B14B4502D3A3F5B77303E06D1C04E019
:102F6000A3F26D136D1C4345EFD8A5800025DFF853
:102F700080800BE0A088FFF7E3FD08B1012D2DD084
:102F800018F80500984203D81B1A6D1C1C2BF1D2AF
:102F90006D1CA5715B1CE371B6FBF7F007FB1060BD
:102FA0004FF46161B0FBF1F22270B0FBF1F201FB72
:102FB00012033C22B3FBF2F36370B0FBF1F301FBAD
:102FC0001300B0FBF2F102FB1100A070E279A179CD
:102FD000A08800F019F82072BDE8F0871D2BD7D328
:102FE0001D3BD2E780510100E4020020A80103202C
:102FF000E8330408034800880249091F098840EAA9
:10300000014070471C28004030B56424B0FBF4F345
:10301000B0FBF4F5DBB204FB1500132B01D96430CF
:10302000C0B200EB90040723B4FBF3F503FB154497
:10303000084D22440D44800715F8015C2A4492B2E1
:1030400003D1032901D2521E92B2B2FBF3F003FB6B
:10305000102030BDDC3304081CB501214FF0C050F6
:10306000FFF742FE0120FFF7EDFD0420FEF70EFE04
:1030700045F25104A0422DD0FEF710FE0120FFF7CB
:103080000BFF4120FFF7F0FE0028FAD04FF48070CC
:10309000FFF718FF0120FFF70FFF00F0B3F800F073
:1030A000A9F847F6FF7000F095F800F0A3F80820A3
:1030B0000021CDE9000103460246014640F2E270DC
:1030C00000F014F800F096F82146BDE81C400420FA
:1030D000FEF7EEBD00F096F800F08CF80120FFF747
:1030E00007FFBDE81C4000F085B800002DE9F05F47
:1030F0009A4605460023A0F2B270DDF828B091464A
:103100008846822802D30120BDE8F09F40F2B274C5
:10311000244E254F07E0A0B2FFF712FD08B133445B
:1031200000E03B44641CAC42F5D3A8F10100C6B2F8
:1031300000241E4FDFF878800EE0385D40F2A321B6
:1031400010FB01F003EBC0132846FFF7F9FC10B1A8
:10315000012C00D14344641CB442EED3A9F1010018
:10316000C0B240F2A32110FB01F0CAEB4A1203EBFC
:10317000C010C2EB0A2100EB0110CBEB0B1100EBEE
:1031800081000B99441801214FF0C050FFF7ACFDAE
:103190000120FFF757FD204600F00CF800F02AF858
:1031A0000020B1E70085E2018033E101E833040843
:1031B0008051010000B50246FFF7A2FE0449100C41
:1031C0000880081D02805DF804EBFFF7A1BE000037
:1031D0001828004000B50246FFF792FE0449C2F3EA
:1031E00003400880081D02805DF804EBFFF790BEE5
:1031F00008280040024801888906FCD57047000075
:10320000042800400448018821F008010180018859
:103210000907FCD5704700000428004000290188F8
:1032200002D041F0400101E021F0400101807047EF
:10323000002A828801D00A4300E08A4382807047D6
:10324000144910B588420AD1841401212046FFF7A1
:103250006FFD2046BDE810400021FFF769BD0E4913
:10326000884202D1012104140AE00C49884202D1AB
:103270000121C41304E0B0F1402F0AD101210C0454
:103280002046FFF73DFD2046BDE810400021FFF736
:1032900037BD10BD0030014000380040003C004008
:1032A00030B5028802F441538A891204828802D51B
:1032B00042F4807201E022F4807282800A884C8895
:1032C000CD8822438C882C4322430C8922434C898D
:1032D00022438C89C4F30E042243CC8922431A432F
:1032E0000280828B22F400628283098A018230BDCF
:1032F0001CB50020284C01900090216841F001018C
:1033000021604FF6FF71226802F002020092019ADA
:10331000521C0192009A12B9019A8A42F3D1216893
:10332000890737D50120009060686060606820F4EC
:1033300060506060606840F400506060606820F435
:10334000E0606060606840F48060606060681349BD
:10335000084060606068124908436060206840F07F
:103360008070206020688001FCD50120FFF7B2FD4D
:10337000606820F003006060606840F002006060F8
:103380006068C0F381000228FAD1BDE81C4000202B
:10339000FFF7A0BD00901CBD00100240FFFFC01F42
:1033A00000002CE002480168491C016070470000E1
:1033B000E002002070B525494868254B10F00C024A
:1033C000244804D0042A0AD0082A08D109E00A6B4C
:1033D000920104D54A6D920501D51F4A2AE0036087
:1033E00029E04A6802F480344A684A6830251B4E56
:1033F000324012F0C04F05D1C2F383460F2E01D0E8
:10340000022600E0012605EA5265C2F38342154315
:1034100072195CB14C68A4030AD54C6D032505EA0A
:103420001434A41CB3FBF4F35343D8E70C4B00E073
:10343000074B5A4302604968064AC1F30311121D43
:10344000515C0268CA40026070BD0000001002407A
:1034500000127A00E8020020006CDC0200003C60F0
:1034600000093D00144810B5016841F47001016085
:103470001248016841F0010101604168104A1140A1
:10348000416001680F4A11400160016821F4802108
:10349000016041680C4A11404160016B0B4A1140C8
:1034A00001634FF41F018160FFF722FF02494FF0D3
:1034B00000608039086010BD88ED00E00010024017
:1034C0000C00FFE8FFFFF6FEFFFF001700FFFEFE07
:1034D000F0B50446444889B01E4615460F4684425E
:1034E00026D0B4F1804F23D04048844220D04048B9
:1034F00084421DD03F4884421AD03F48844217D0AE
:103500003E48844214D03E48844211D03D48844213
:103510000ED03D4884420BD03C48844208D03C4801
:10352000844205D03B48844202D03B48844258D173
:103530000121204600F016FBADF814500025079736
:10354000ADF8205005A92046069500F0D1FA68464E
:1035500000F046FA7020ADF800000220ADF80C0033
:103560000820ADF80E000120ADF81050ADF8125053
:10357000ADF80200ADF804500295012E06D0022EDF
:103580000DD0032E14D0042E23D11AE06946204614
:1035900000F050F90821204600F072F919E0694660
:1035A000204600F073F90821204600F0A5F910E04C
:1035B0006946204600F0AAF90821204600F0DAF911
:1035C00007E06946204600F0DBF90821204600F0BC
:1035D000FDF90121204600F00BF90121204600F001
:1035E000FDF809B0F0BD0000002C014000040040CF
:1035F00000080040000C0040001000400014004093
:1036000000340140004C0140005001400054014092
:1036100000180040001C00400020004070B50F4D15
:103620000121284600F0F2F80D4C30B1216801B1BB
:1036300088470121284600F0CEF80A4D012128468E
:1036400000F0E4F8002808D0616A01B188472846F4
:10365000BDE87040012100F0BEB870BD002C0140F3
:103660006C0103200050014010B501218C07204659
:1036700000F0CCF8002809D00548416801B188471E
:103680002046BDE81040012100F0A5B810BD0000A3
:103690006C01032010B5094C0121204600F0B6F85A
:1036A000002809D00648816801B188472046BDE856
:1036B0001040012100F08FB810BD00000004004050
:1036C0006C01032010B5094C0121204600F09EF842
:1036D000002809D00648C16801B188472046BDE8E6
:1036E0001040012100F077B810BD00000008004034
:1036F0006C01032010B5094C0121204600F086F82A
:10370000002809D00648016901B188472046BDE874
:103710001040012100F05FB810BD0000000C004017
:103720006C01032010B5094C0121204600F06EF811
:10373000002809D00648416901B188472046BDE804
:103740001040012100F047B810BD000000100040FB
:103750006C01032010B5094C0121204600F056F8F9
:10376000002809D00648816901B188472046BDE894
:103770001040012100F02FB810BD000000140040DF
:103780006C01032070B50F4D0121284600F03EF872
:103790000D4C30B1E16901B188470121284600F0A4
:1037A0001AF80A4D0121284600F030F8002808D008
:1037B000216B01B188472846BDE87040012100F027
:1037C0000AB870BD003401406C010320001C0040A9
:1037D000C94301827047C9430182704700290188AB
:1037E00002D041F0010101E021F0010101807047A8
:1037F000002930F8441F02D041F4004101E0C1F338
:103800000E010180704701858282704702460020C8
:10381000138A92890B4202EA010202D0002A00D0E8
:1038200001207047002A828901D00A4300E08A43C0
:103830008281704730B5028C22F001020284028C32
:103840008488038B0D8823F073031D438B8922F03A
:10385000020213434A8824F440741A4322F00803F6
:10386000CA891A4322F004038A881A430B8A234325
:103870004C8A1C438480058389684163028430BD7F
:10388000028B22F008020A430283704770B5028C53
:1038900022F010020284048C8688028B0B7822F4BA
:1038A000E6454FF6FF7202EA03232B4324F020057E
:1038B0008C8926F4406602EA04142C434D8802EAFF
:1038C00005152543CC8925F0800502EA04142C4314
:1038D0008D8824F0400402EA051525430C8A02EA8B
:1038E000840434434E8A02EA8602224382800383A0
:1038F00089688163058470BD028B4FF6FF7322F4E3
:10390000006203EA012111430183704770B5028C04
:1039100022F480720284028C8688838B0D8823F0C7
:1039200073031D4322F400740B7B4FF6FF7202EA0F
:10393000032323438C7826F4405602EA04241C43D4
:103940008B7B24F4006402EA0323234323F4806482
:103950000B7902EA032323430C8A02EA041434435A
:103960004E8A02EA06122243828085838968C163F7
:10397000038470BD828B22F008020A438283704761
:1039800070B5028C22F480520284048C8688828B6B
:103990000B7822F4E6454FF6FF7202EA03232B432D
:1039A0000D7B24F4005402EA053525438C7802EAA5
:1039B00004342C4326F480450E8A02EA86122A43F8
:1039C0008280838389680164048470BD828B4FF692
:1039D000FF7322F4006203EA0121114381837047DF
:1039E000002101804180818081608181C1810182CB
:1039F00041827047334910B5884202D10121C41475
:103A000055E0B0F1804F09D02F4988420DD10121F6
:103A10000220FFF775F9002102202DE00121084660
:103A2000FFF76EF90021012026E02849884206D1DF
:103A300001210420FFF764F9002104201CE024493F
:103A4000884206D101210820FFF75AF900210820F9
:103A500012E02049884206D101211020FFF750F9D9
:103A60000021102008E01C49884209D101212020B2
:103A7000FFF746F900212020BDE81040FFF740B9CC
:103A80001649884202D10121441410E014498842A9
:103A900002D10121CC040AE01249884202D101215D
:103AA0000C0504E0104988420AD101214C0520464A
:103AB000FFF73EF92046BDE810400021FFF738B976
:103AC00010BD0000002C0140000400400008004030
:103AD000000C004000100040001400400034014081
:103AE000004C01400050014000540140C162704749
:103AF0000288154B98420ED0B0F1804F0BD0134B7B
:103B0000984208D0124B984205D0124B984202D0EE
:103B1000114B984204D18B8822F0700213439AB261
:103B20000E4B984206D00E4B984203D022F44073BD
:103B30008A891A4302808A68C2620A880285897B60
:103B40000186012181827047002C0140000800405D
:103B5000000C004000340140000400400010004010
:103B600000140040254A904201D1C01433E0B0F166
:103B7000804F04D0224A904203D102203BE0012032
:103B800039E0204A904201D1042034E01E4A90429C
:103B900001D108202FE01D4A904201D110202AE0D7
:103BA0001B4A904201D1202025E01A4A904201D1BF
:103BB000401410E0184A904202D14FF400200AE06D
:103BC000164A904202D14FF4801004E0144A904209
:103BD00003D14FF40010FFF79FB8124A904201D171
:103BE000402008E0104A904201D1802003E00F4AB3
:103BF000904202D18015FFF777B87047002C014042
:103C00000004004000080040000C0040001000408C
:103C10000014004000340140004C014000500140BD
:103C20000054014000180040001C004000200040EB
:103C30007FB5044620480D46164601681F48844259
:103C400026D0B4F1804F23D01D48844220D01D4897
:103C500084421DD01C4884421AD01C48844217D08C
:103C60001B48844214D01B48844211D01A48844215
:103C70000ED01A4884420BD01948844208D0194803
:103C8000844205D01848844202D01848844212D198
:103C9000002D10D003AB02AA284600F04BF90321F7
:103CA0000020CDE900013346BDF80C20BDF8081016
:103CB000204600F01DF87FBDE8020020002C0140E6
:103CC0000004004000080040000C004000100040CC
:103CD0000014004000340140004C014000500140FD
:103CE0000054014000180040001C0040002000402B
:103CF0002DE9FF4FDFF84481DFF844C15149524AB2
:103D0000524BDFF84CB1DFF84CE1534E534FDFF824
:103D10005091DFF850A185B00446404521D0B4F160
:103D2000804F1BD064451FD08C421DD094421BD0C5
:103D30009C4219D05C4517D0744515D0B44213D0BD
:103D4000BC4211D0DFF8208144450DD04C450BD04A
:103D5000544509D045498C426DD137E001201C25DE
:103D600036E00020192504E0644502D102201D251B
:103D700004E08C4202D103201E2504E0944202D1CB
:103D80000420322504E09C4202D10520362504E0BF
:103D90005C4502D10620372504E0744502D1072096
:103DA0002C2504E0B44202D10820182504E0BC42CE
:103DB00002D10920192504E04C4502D10B202B2506
:103DC00006E0544502D10C202C2501E0002D32D014
:103DD000274A089942F820102046FFF70BFE0121E0
:103DE0002046FFF7BFFE06990020491E0291079961
:103DF0008DF80E00491EADF80010ADF80C000190D2
:103E000069462046FFF774FE8DF8105012988DF821
:103E1000110013988DF8120001208DF8130004A8EA
:103E2000FEF7A2FE01212046FFF7D2FC0122114637
:103E30002046FFF7F7FC09B0BDE8F08F002C0140E9
:103E40000004004000080040000C0040001000404A
:103E50000014004000340140004C0140005001407B
:103E600000180040001C00400054014000200040A9
:103E70006C0103207CB5044620480D4601682048AB
:103E8000844226D0B4F1804F23D01E48844220D0F3
:103E90001D4884421DD01D4884421AD01C488442CB
:103EA00017D01C48844214D01B48844211D01B48B0
:103EB00084420ED01A4884420BD01A48844208D05B
:103EC0001948844205D01948844202D018488442D7
:103ED00012D101AB6A46284600F02CF8BDF800105C
:103EE0002046491EFFF702FEBDF804000122401ED5
:103EF00081B22046FFF787FC7CBD0000E80200206D
:103F0000002C01400004004000080040000C00406C
:103F1000001000400014004000340140004C0140FB
:103F2000005001400054014000180040001C0040B7
:103F30000020004010B50D4CB1FBF4F14843C1EB3B
:103F40000111B0EB410F01D20A210AE00849884271
:103F500002D24FF47A7101E044F62061B0FBF1F136
:103F600089B2B0FBF1F01180188010BD40420F0003
:103F700018FCE703014803F00CB8000010FC022015
:103F8000014803F006B800002CFE022070470A0A20
:103F900001219140C943018070470029818902D0E5
:103FA00041F4005101E021F4005181817047024643
:103FB000002012880A4200D00120704730B501F07D
:103FC0001F0201240025C1F3421304FA02F2012B5F
:103FD0000FD0022B0FD0838A4FEA112100881342A1
:103FE00004FA01F400EA040001D000B101252846DA
:103FF00030BD8389F0E7038AEEE710B5C1F34213C1
:1040000001F01F040121A140012B07D0022B07D092
:104010001430002A026805D00A4304E00C30F8E7A7
:104020001030F6E78A43026010BD000030B5044648
:10403000008A85B00D464CF6FF710840E9880143BF
:104040002182A1894EF6F3100140A8882A891043E5
:104050006A890A431043A081A08A4FF6FF410840B5
:10406000A9890143A1826846FEF774FE194884427B
:1040700001D1039800E00298A189090400EBC00176
:1040800001EB0010296801D5490000E08900B0FB70
:10409000F1F06422B0FBF2F109010B096FF0180591
:1040A0006B4300EB8300A3891D044FF0320306D558
:1040B00003EBC000B0FBF2F000F0070005E003EBFB
:1040C0000010B0FBF2F000F00F000843208105B0B3
:1040D00030BD0000003801408088C0F30800704700
:1040E000C1F308018180704730B595B05021684612
:1040F000FCF7FCF801248DF800400CF065F9502322
:104100006A4610A1001D0AF0ACFC0025009501953F
:10411000029503958DF800400CF056F910236A467D
:104120000BA1001D0AF09DFC032000958DF80000F6
:104130000CF04AF904236A4607A1001D0AF091FC1D
:1041400015B030BD537973436F6E66696700000028
:1041500053746F72616765005265636F7264657254
:104160000000000002498A6810448860704700001F
:104170003001002000EB4100052902D2B0F8010017
:1041800070470B2901D280887047112901D2C0885D
:10419000704700207047A0F14101192900D8203054
:1041A000C0B2704730B589B00D4624201EF0A2FE83
:1041B00004004FF0000013D08DF800008DF80100CE
:1041C000242269462046FDF779FA00222946204636
:1041D0000AF080FF18B920461EF016FF0024204682
:1041E00009B030BD2DE9F041ACB0144688466846B0
:1041F0000AF008FA2F26002702AD00224146284681
:104200000BF081FCA8B180220BA928460BF0C9FB5A
:104210009DF8080010F0700F03D026700BA9601CE9
:1042200001E00BA92046FCF7B8F828460BF00EFA7F
:1042300000E0277007A12046FCF794F80028DCD0A6
:1042400005A12046FCF78EF80028D6D02CB000201F
:10425000BDE8F0812F2E00002F2E2E00174810B53C
:104260000078C0070CD115480DF022FF40B106239D
:1042700004221021124803F039FC1048AFF30080EB
:104280000F4803F0ADFA00210D4803F0CBF90021EF
:104290000B4803F087F90A4800F05EFA1EF008F8B0
:1042A000074800F033FB22F079FB00F0A3F94FF44C
:1042B0007A70BDE81040014606F058BD5401002058
:1042C000FC05002010B5044606A10AF029FC0849A7
:1042D00020460AF055FB2046BDE810404FF47A71A5
:1042E0000AF03ABB4D75736963506C617965720071
:1042F0003D870008014908607047000074000020F5
:1043000001490860704700007800002030BF704706
:1043100070B50D4606F0BCFCA88106F0C7FCA8737A
:10432000074D04462878844209D014B14FF4FA703E
:1043300001E04FF42F70142106F03EFF2C7070BD89
:10434000A402002070B50D4608460BF07FF908B1B5
:10435000002400E0022428461EF056FE204670BDD0
:1043600010B504465FF000001DF082FE002803D067
:1043700001680978A142F7D110BD000030B5064DA3
:1043800004466869844205D005F11C01204601F00D
:10439000E5F86C6130BD0000300100202DE9F04FE0
:1043A00087B03C200DF068FD002428B100235C4A52
:1043B0005CA100940AF0DBFB01903C200DF05CFD59
:1043C00028B10023564A59A100940AF0D0FB02906C
:1043D0003C200DF051FD28B13023514A55A10094E5
:1043E0000AF0C5FB03903C200DF046FD28B10023E8
:1043F0004B4A51A100940AF0BAFB04903C200DF006
:104400003BFD28B13823464A4DA100940AF0AFFB8A
:1044100005903C200DF030FD28B10023404A4BA10F
:1044200000940AF0A4FB83463C200DF025FD28B142
:104430000E233B4A48A100940AF099FB82463C2097
:104440000DF01AFD28B10623354A44A100940AF064
:104450008EFB81463C200DF00FFD28B10023304A31
:104460003FA100940AF083FB80463C200DF004FD40
:1044700038B100232A4A3DA100940AF078FB064691
:1044800000E000263C200DF0F7FC38B10023244A60
:1044900039A100940AF06BFB054600E000253C20A2
:1044A0000DF0EAFC28B100231D4A35A100940AF062
:1044B0005EFB07463C200DF0DFFC28B10023184AC4
:1044C00032A100940AF053FB0446019800F02CF945
:1044D000029800F0C5F80398FFF7F4FE049800F086
:1044E000D7F8059800F06CFB584600F06BF9504681
:1044F000FFF700FF4846FFF703FF404600F04EFA83
:10450000304600F057FB284600F0DAF8384600F055
:104510006FFA07B02046BDE8F04F00F011BC000074
:10452000CC03002053746F7261676500436C6F6346
:104530006B00000047505300506F77657200000019
:1045400053706F7274537461747573005265636F46
:104550007264657200000000494D55004D414700EE
:104560005374617475734261720000004D75736914
:1045700063506C6179657200547A436F6E76000007
:10458000537973436F6E666967000000547261630C
:104590006B46696C74657200F8B51546134B02469C
:1045A000406BDA60B1F90430B1F90040B1F906703E
:1045B000B1F902201E1BB91A491C761C16FB01F129
:1045C0004E0000970168CF6C2146B8470848D0F8E4
:1045D0000021B0F80C115161B0F84C10006C016171
:1045E00031462846BDE8F84000F06AB99402002040
:1045F000DC2E040810B50F481CF026FA0D482F21B8
:1046000001700D4941600D4981600D49C1600D493E
:1046100001610D4941610D4981610D49C1610D493A
:1046200081620D4901620D494162BDE810401CF0F4
:104630000FBA0000ACFA022057540008A35100083A
:1046400039540008015200085B5400082152000848
:104650005152000845430008A5410008E541000803
:1046600010B5044606A10AF05BFA07A120460AF03D
:1046700057FA2046BDE8104004490AF081B900000D
:10468000547A436F6E760000475053000988000843
:1046900010B5044606A10AF043FA084920460AF07C
:1046A0006FF92046BDE810404FF4FA710AF054B992
:1046B0004D75736963506C61796572006988000893
:1046C0001FB504460FA10AF02BFA0FA120460AF0ED
:1046D00027FA0F4920460AF053F902208DF800000E
:1046E0000CA001900F4802900420ADF80C000120AE
:1046F0008DF80E0010236A4603A120460AF0B1F996
:104700001FBD00004750530053746F72616765000E
:104710007D890008474D545F4F6666736574486F26
:10472000757273007C00002010B5044605490AF03C
:1047300027F905A120460AF0F3F9BDE81040054825
:1047400006F00EBBB1900008537973436F6E666933
:10475000670000003991000810B5104C10A215A197
:10476000206016A013F0ECF80121206802F080F917
:104770000121206802F078F92068002201680B6DA1
:10478000114698470021206802F027FA2068BDE80A
:1047900010401F224FF6FF7102F06FB95801002040
:1047A00076312E3620417567202037203230323165
:1047B0000000000076312E3000000000582D5452C9
:1047C00041434B0010B5044613480079C0070FD190
:1047D0001148001D0DF06CFC50B1104805F09AFF17
:1047E0000F4A1049FBF7C2FE0B48001DAFF30080D3
:1047F0000A48A0600CA120460AF092F90BA12046BD
:104800000AF08EF90BA120460AF08AF92046BDE88D
:1048100010400B490AF0B4B8600000205804002092
:10482000000000085DA7000847505300436C6F6309
:104830006B000000547261636B46696C74657200B2
:10484000D593000810B501218CB00846FEF740FA58
:10485000184C2046FDF7B6FA6846FDF76FFA1020AF
:104860000021029008910002CDE909011248006878
:104870000190802005904FF6FF7003900F4807913C
:1048800004910691009069462046FDF77DFA0B4899
:10489000012202210C38FEF7CBFC4FF0E0214FF44F
:1048A0000050C1F80001012202212046FDF764FA00
:1048B0000CB010BD30000240940200200C300140CA
:1048C00070B50C460F490546B4F5803F08D34868DB
:1048D00008B9281948604FF6FF742819886002E06B
:1048E000002088604860084E00213046FDF70EFA2F
:1048F00005483038C56344633046BDE87040012147
:10490000FDF704BA940200203000024010B50446BE
:10491000FFF798FF0E484FF46143002201680D48ED
:104920001AF041FB0B4824301AF04CFB0949F020E7
:104930002431088048800848C8600848C861054894
:104940004C634860BDE8104024301AF05BBB0000A7
:104950009402002030380120994500080D430008DA
:1049600010B50D4C0B48617800EB01100168CA6866
:1049700080894240CA6023F081FFE168884207D9FC
:104980002078002804D16078BDE8104000F0C4BB56
:1049900010BD0000DC2E0408CC02002010B5044637
:1049A0000AA10AF0BDF80AA120460AF0B9F80AA146
:1049B00020460AF0B5F80AA120460AF0B1F80A49E3
:1049C000204609F0DDFF0948446010BD4750530000
:1049D000506F776572000000436C6F636B000000DE
:1049E00053746F7261676500A98F0008DC000020B6
:1049F0002DE9FF41804642A10AF092F84249404623
:104A000009F0BEFF41A00190464801250224029012
:104A1000ADF80C508DF800408DF80E5010236A460A
:104A200037A140460AF01DF83FA001903D480826F6
:104A3000C01D0290ADF80C6003278DF800408DF882
:104A40000E7010236A462EA140460AF00AF83DA0D7
:104A500001903448ADF80C600F3002908DF80040A2
:104A60008DF80E7010236A4625A1404609F0F9FF23
:104A70003BA001902B48ADF80C6017300290042742
:104A80008DF800408DF80E7010236A461CA1404638
:104A900009F0E7FF37A0019022488DF800401F3051
:104AA00002902020ADF80C008DF80E7010236A469D
:104AB00013A1404609F0D5FF34A001901948ADF884
:104AC0000C503F3002908DF800408DF80E501023AE
:104AD0006A460BA1404609F0C4FF30A0019011487E
:104AE000ADF80C60403002908DF800408DF80E70EB
:104AF00010236A4602A1404609F0B3FFBDE8FF81DA
:104B000053746F7261676500BD9E000873797343CB
:104B10006F6E6669672E736F756E64456E61626C49
:104B20006500000081000020737973436F6E666931
:104B3000672E6C6F6E676974756465446566617530
:104B40006C740000737973436F6E6669672E6C61D5
:104B500074697475646544656661756C7400000001
:104B6000737973436F6E6669672E6C616E677561EA
:104B700067650000737973436F6E6669672E6D61B8
:104B80007044697250617468000000007379734367
:104B90006F6E6669672E57475338340073797343D5
:104BA0006F6E6669672E6172726F775468656D65A6
:104BB00000000000014909F0E3BE000029B200082E
:104BC0002DE9FF41074637A109F0AAFF36A1384673
:104BD00009F0A6FF36A0019002243C48042502906B
:104BE000ADF80C508DF800408DF80E4010236A4649
:104BF0002DA1384609F035FF35A001903348ADF8B6
:104C00000C500838029001268DF800408DF80E6097
:104C100010236A4624A1384609F023FF34A00190EE
:104C20002A48ADF80C50001F02908DF800408DF816
:104C30000E6010236A461CA1384609F012FF34A00A
:104C400001902248ADF80C50143802908DF80040C5
:104C50008DF80E4010236A4613A1384609F001FF73
:104C600031A001901948ADF80C501C3802908DF815
:104C700000408DF80E4010236A460BA1384609F01B
:104C8000F0FE0BF0A5FB1149203908602B4938468E
:104C900009F076FE04B03846BDE8F0414FF4FA71F1
:104CA00009F05ABE4750530053746F726167650034
:104CB00073706F72745374617475732E746F746152
:104CC0006C44697374616E636500000048000020E5
:104CD00073706F72745374617475732E746F746132
:104CE0006C54696D6555494E5433325B305D00003C
:104CF00073706F72745374617475732E746F746112
:104D00006C54696D6555494E5433325B315D00001A
:104D100073706F72745374617475732E73706565FC
:104D2000644D61784B70680073706F727453746176
:104D30007475732E7765696768740000FDB20008AA
:104D400038B5044613A109F0EBFE1349204609F0DB
:104D500017FE102111480BF0D5F9114C2079C0072E
:104D60000FD1201D0DF0A4F958B10C486946103838
:104D700026F098FA0B4A0C49FBF7F8FB201DAFF31D
:104D8000008006489FED090B1038A060483003F002
:104D900036F838BD4750530089B40008D8040020C5
:104DA000D000002000000008AFB2020800000000A0
:104DB00000000040C9B2002221F0B5BC70B5064623
:104DC000012005F089FF384C206801680A6C1F211A
:104DD00090474FF6FF71206801F04CFE3349206880
:104DE00001F0FBFE0221206801F03EFE2068222235
:104DF00001680B6D002198472DA1206809F05CFB2C
:104E00000021206801F0E9FE0121206801F02CFE5C
:104E1000256828460CF0BEFA00EBD0706FF00C014C
:104E200001EB600002B228680021036D2846984714
:104E30003146206809F080FB1EA1206809F03CFB88
:104E4000256828460CF0A6FA303802B228680021FE
:104E5000036D284698471DA1206809F06DFB1E4888
:104E600002681EA1206809F053FB1B48001D026860
:104E70001FA1206809F04CFB17480C38026821A1DB
:104E8000206809F045FB14480838026822A1206810
:104E900009F03EFB1048001F02682068BDE8704022
:104EA00022A109F035BB00005801002074BF03089F
:104EB0003A2800005072657373204B455920746F77
:104EC000207265626F6F742E2E0000004572726F43
:104ED0007220636F64653A0034ED00E04D4D464149
:104EE00052203D203078253038580D0A000000004F
:104EF0004246415220203D203078253038580D0A56
:104F0000000000004346535220203D2030782530D9
:104F100038580D0A000000004846535220203D201A
:104F20003078253038580D0A0000000044465352AE
:104F300020203D203078253038580D0A0000000030
:104F400000B5FFF71BFA0148007900BD4C010020B5
:104F500010B500F005F8BDE81040FFF7F1BF000004
:104F600070B5134C4FF47A7505E0A06801F57A71BD
:104F7000401CC4E9020123F081FCE168401AA84208
:104F8000F3D2A168206988420FD8A06968B1804730
:104F900010B100F07BF908E02546D5E9011008447E
:104FA0002061207800B101202070A06870BD000051
:104FB0003001002000B5FFF7E1F90148807800BD1D
:104FC0004C01002010B5FFF7CBFFBDE81040FFF704
:104FD000F1BF000030B50D002DED028B83B002D083
:104FE00023498D4206D903B0BDEC028BBDE83040A9
:104FF00000F092B81F4C9FED208A60700120207055
:10500000D4E9011088421ED000210091FF220191B5
:105010001A4B1146FEF76CFE00EE105AA068B8EE6F
:10502000400AC8EE000ABCEEE00A10EE101AFEF7C5
:1050300021FF0121A068FEF7D1FBA068606003B0EA
:10504000BDEC028B30BD00EE105AB8EE400AC8EE3F
:10505000000ABCEEE00A10EE101AFEF70BFFA06883
:1050600003B00121BDEC028BBDE83040FEF7B6BBBA
:1050700020A10700CC0200200024F4486149000868
:1050800010B5144669B1094A91420AD84CB1FFF7EC
:10509000A1FF23F0F3FB01190548C1600021017055
:1050A00010BDBDE8104000F037B8000020A1070097
:1050B000CC02002000B5FFF761F90248807900F2C8
:1050C000B27000BD4C01002010B5FFF749FFBDE8EC
:1050D0001040FFF7EFBF000000B5FFF74FF90148A0
:1050E000407900BD4C01002010B5FFF739FFBDE845
:1050F0001040FFF7F1BF000000B5FFF73FF901488E
:10510000407800BD4C01002010B5FFF729FFBDE835
:105110001040FFF7F1BF000070B5074C05460021B5
:10512000A068FEF75BFB054800EB0510818900686D
:1051300041610020207070BDCC020020DC2E0408EC
:1051400000B5FFF71BF90148007800BD4C010020B5
:1051500010B5FFF705FFBDE81040FFF7F1BF0000F5
:105160001FB51C4609F05EF90449496804B02046A1
:1051700010BDAFF30080AFF30080F7E75C030020C1
:1051800013B5002401200CF077FE044620460CF0F5
:105190006BFE4FF0FF301CBDAFF30080AFF300801B
:1051A000F4E7F0B500258BB00F46012A04D0022A9F
:1051B00005D0032A02D002E0012500E012252C20B0
:1051C0001DF098FE040012D0684609F01BFA04F1A5
:1051D00008002422064602A9FCF770FA01986060D4
:1051E0002A463946304609F075FF18B106E000201E
:1051F0000BB0F0BD20461DF007FF00242046F7E766
:1052000070B5154608461A4629460830049C0AF02F
:105210003FF9002801DA022070BD2060002070BD37
:1052200010B501F108002BB1012B05D0022B06D0DF
:105230000C2010BD114607E04169114404E00178DB
:10524000C1F3C00111B1C1690AF017FC002010BD03
:10525000C86910600020704770B5DDE90464632CF4
:1052600002DDA4F2B27400E01E34074DAC716E7121
:105270002B71A87069702A70284600F0FDF8BDE80F
:10528000704000F003B800004C01002010B5054C40
:10529000A0606168084420610220207023F0EEFACB
:1052A000E06010BD3001002030B595B0FFF776F812
:1052B00019F022FF19F05EFF344A002120F0D0FEE1
:1052C000BDF80000002464F3020080B264F3C7005C
:1052D00080B264F30C2080B264F34F30ADF800006C
:1052E00080B20090BDF8005019F006FF294619F071
:1052F0006DFF274801F024FE19F0FEFE19F032FF81
:105300000BF0FAFF23A227A1294800F05DFF29A294
:105310002CA1274800F058FF2CA230A1244800F00F
:1053200053FF31A235A1224800F04EFF36A23AA128
:105330001F4800F049FF3A4B4FF4FA7203211C4812
:1053400000F0A1FE002230A1194800F008FF0094EF
:105350000194029403948DF800400BF035F810236B
:105360006A4630A1001D09F07CFB50216846FAF71F
:10537000BDFF8DF800400BF027F850236A462BA1A3
:10538000001D09F06EFB15B030BD0000FFFF0F00DF
:10539000DC05002050616765732F5F54656D706C8C
:1053A0006174650054656D706C6174650000000087
:1053B0007403002050616765732F4C6976654D61F9
:1053C000700000004C6976654D6170005061676542
:1053D000732F4469616C706C617465004469616C21
:1053E000706C61746500000050616765732F5379BC
:1053F0007374656D496E666F730000005379737442
:10540000656D496E666F730050616765732F5374E5
:10541000617274757000000053746172747570006D
:10542000D5E1010853746F72616765005379734366
:105430006F6E66696700000070B50C4601F10800E8
:105440000AF004F908B1002500E0022520461DF00D
:10545000DBFD284670BD05F003BB10B508461146BC
:105460001A460830029C0AF0A1F9002801DA02204D
:1054700010BD2060002010BD2DE9F0438179334B31
:105480000A46594300236424A500314F17E000BFAA
:1054900003F2B276002E11DD4FEA837CBCF1004F9F
:1054A0000CD196FBF4FC04FB1C6CBCF1000F04D186
:1054B00096FBF5FC05FB1C6606B939445B1C9A4259
:1054C000E6DC0123DFF88C90DFF88CC047791EE022
:1054D000022B11D19607B6F1004F0DD102F2B27630
:1054E000B6FBF4F804FB1868B8F1000F2BD1B6FB3B
:1054F000F5F805FB186636B30CEB030640F2A3285B
:1055000016F8016C16FB08F601EBC6115B1C9F42F6
:10551000DEDC027940F2A32312FB03F201EBC2119D
:105520000B4A524211448278C2EB4213C3EB02226F
:1055300001EB021142780078C2EB021201EB82010A
:105540000844BDE8F0834944E0E700008033E1010E
:1055500080510100803B2600BCB603083C22B0FB12
:10556000F2F32DE9F04302FB1303B0FBF2F00B70F2
:10557000B0FBF2F302FB1303B0FBF2F018224B7006
:10558000B0FBF2F3B0FBF2F402FB13038B70201DAF
:105590000722B0FBF2F302FB1300401CC87000208E
:1055A000642205464FF4B77C40F26D19930001E088
:1055B000401CC0B28707B7F1004F0DD100F2B276A0
:1055C000B6FBF2F802FB1868B8F1000F0ED1B6FB7B
:1055D000F3F803FB18664EB14E463544A542E7D9B1
:1055E00086078871B6F1004F02D00FE06646F4E7F7
:1055F00000F2B276B6FBF2F802FB1868B8F1000FC1
:1056000005D1B6FBF3F803FB186606B1CC46A5EB53
:105610000C05651B0024DFF84CC000F2B27001E0FD
:10562000012C0ED01CF80460B54204D3641CAD1BE1
:10563000E4B20C2CF4D3641C4C716D1C0D71BDE8EC
:10564000F083B7F1004F09D1B0FBF2F602FB16066A
:1056500036B9B0FBF3F603FB16060EB11C26E3E7E2
:105660001D26E1E7BCB6030810B523F007F980B2A8
:1056700010BD000010B50C4624A12046FAF772FEBA
:10568000A8B125A12046FAF76DFEC8B124A1204695
:10569000FAF768FEF0B125A12046FAF763FE10B3D1
:1056A00025A12046FAF75EFE30B3002010BD44204D
:1056B0000CF0E2FB0028F9D0BDE8104008F0ACBBCC
:1056C0004FF4F8700CF0D8FB0028EFD0BDE8104084
:1056D00008F080BAD8200CF0CFFB0028E6D0BDE857
:1056E000104008F05DBDE0200CF0C6FB0028DDD0C6
:1056F000BDE8104006F0EABC44200CF0BDFB0028D9
:10570000D4D0BDE8104008F0DDBA000054656D70DB
:105710006C617465000000004C6976654D61700035
:105720004469616C706C6174650000005379737436
:10573000656D496E666F73005374617274757000A5
:1057400013B504460198211D884204D00168204603
:1057500000F01FF808B100201CBD04F1400001AAB0
:10576000D0E90113994206D0091D4160091F04D0F8
:105770000198086001E025F02BFE01980168201DCA
:1057800009F0CEF901201CBD0A4600F1400100F0ED
:1057900019B80A4600F14001AFF300802DE9F0414D
:1057A000D1E90046154606E0276828463968FAF729
:1057B000D9FD28B1241DB442F6D10020BDE8F08106
:1057C0003846FBE730B50C684B68204600E0001D0A
:1057D000984202D005689542F9D1834201D1002058
:1057E00030BD9C420AD0021D934202D103E010CA90
:1057F00010C09A42FBD14868001F4860012030BDAC
:1058000038B5002402460D462346001D009409F0D9
:10581000AEF9C4630464446440F8045D38BD10B557
:1058200000F14004006C6268014600E0091D9142ED
:10583000FCD1A1680022091A891008F0F7FCA4F134
:105840003C0009F0D0F9001F10BD0021018041602B
:105850000172704700214180704770B502690D46A2
:10586000044672B360882188884220D26168A942C8
:105870001BD2E36800EB4000042101EB4001595AC0
:1058800033F8100090476188E06801EB4102022381
:1058900003EB4202805A22895043C21700EB126088
:1058A00005EB2020491C60606180012070BD08D19B
:1058B0006068A84205D20021084690476088401CD5
:1058C0006080002070BDC3688B4202D0C16002803E
:1058D0004280704700210161C1604FF480710181F5
:1058E0007047C161704770B50446C0690D46002815
:1058F0006FD0012675B1207980B92671267022F00B
:10590000BDFF2061E269012120469047E26907213D
:1059100020469047207900285BD0DDB1E269022162
:10592000204690472046216900F054F8E1888842DB
:105930004FD302202071A07EE8B32046E16800F03A
:1059400049F82189884244D322F098FFE06004217D
:10595000E2692FE0002525712046616900F03AF8E0
:105960006189884206D2208B401C2083E2690A218B
:1059700020469047A07E18B1E26905212046904755
:10598000A576667022F07AFF60612046216900F0FA
:1059900021F8E188884203D2E26909212046904734
:1059A000E269082120469047E26906212046904797
:1059B0000721E26900E003E02046BDE8704010479F
:1059C000E26903212046904722F058FFE060A67666
:1059D000A67070BD10B50C4622F050FF001B10BD24
:1059E0002DE9F0410F4604461D4616461C21001DB8
:1059F000FAF77CFCE78026816581002020616061E8
:105A0000E060A0762071E0612046BDE8F08108B535
:105A10006B46001D1BF0B2F8009808BD10B5044697
:105A200000206060A060201D1BF04EF82070204612
:105A300010BD10B51030044624F0B6FE08B10020A9
:105A400010BD204625F017FA006810BD70B50C4651
:105A50000546002C29D094F82400082825D2DFE838
:105A600000F02404090E13171C252146284600F0D7
:105A7000FDF90AE02146284600F014FB1AE0214611
:105A8000284600F008FB15E0052084F82400E0E734
:105A90002146284600F02BFB0CE02146284600F06A
:105AA00012FB84F824000728D3D070BD2146284675
:105AB00000F09AFA84F8240070BD2DE9F041D0E995
:105AC00001450E4606E027683046F968FAF74AFCB9
:105AD00028B1241DAC42F6D10020BDE8F081384643
:105AE000FBE7000010B50C460023012208492046C0
:105AF0001DF026FC00230222054920461DF020FC53
:105B000020460023BDE81040082201491DF018BCC2
:105B1000D55C000810B5C26B002122B192F8292093
:105B20000AB1012300E00023026C92F829401C43D3
:105B300004D1002180F844100121C263084610BD41
:105B400070B504460D46084618F0DCFA94F8480093
:105B50000A2805D0B4F84A00A862E06CA86170BDBC
:105B60000020F9E730B50D468BB000F11001684612
:105B700025F0EDF90CE000BF25F07DF9046828461A
:105B8000E168FAF7EFFB002868460CD025F028FA08
:105B9000684624F009FE00286846EDD025F003FA97
:105BA00000200BB030BD25F0FEF92046F9E70000DB
:105BB0002DE9F04114460E4619F09EFA19F0B4FA98
:105BC000054619F099FA19F0EBFA01460020022275
:105BD00001230B2E67D2DFE806F066060D15171FAE
:105BE0002A35404B560023726581A081E0812082D6
:105BF000608218E0237269426181A081E081208285
:105C000060821BE0227201E0227249426181A08120
:105C1000E081208260821CE023726581A081E081A6
:105C2000694221826182A082E08225833DE0237265
:105C300069426181A081E08125826582A082E08243
:105C4000218332E022726181A081E0814A42228276
:105C50006282A082E08221832BE022724A4262812A
:105C6000A081E08121826182A082E082228320E003
:105C700020726081FF21A181E18121826182A18264
:105C8000E182208308E01C212046FAF72FFB207ACE
:105C900001280AD002280CD008482060084860601B
:105CA0000120BDE8F0810020FBE70648206006489F
:105CB000F5E7064820600648F1E70000FF87000886
:105CC000F1870008956802082F520208CD68020883
:105CD000675202082DE9F0439FB004461AF05BFDBD
:105CE000064600695FEA000840D020461AF02AFD07
:105CF000D8F808500446284607AA95F84810FFF738
:105D000057FF002832D04FF00009012C20D0022C80
:105D10002FD0082C2AD195F84400002826D1BDF8B0
:105D20002800BDF82610ADF81890401A07B2ADF85B
:105D30000C9003A906A800F02DF908993046884771
:105D40009DF824100446012943D0022944D047E09D
:105D500095F84400002809D195F84500002805D0A1
:105D60003046079918F08CF985F845901FB0BDE8CA
:105D7000F0830899304688470446BDF93200BDF9E2
:105D80003410884201DD054600E00D4601DA074681
:105D900000E00F461CF066F902A91CF0A9F99DF875
:105DA0002400012802D0022803D006E0BDF8080034
:105DB00001E0BDF80A00204404B2BC4201DA3C46CE
:105DC00002E0AC4200DD2C46079A2146304690475F
:105DD000CCE7BDF8181001E0BDF80C10601800B257
:105DE000002F00DC7F42002801DD014600E0414237
:105DF00007EBD772B1EB620F04DD41460E4818F095
:105E000001FCB3E7BDF928108142AFD0012085F82D
:105E100045000EA92846FFF793FEBDF928000E960F
:105E2000CDE9164007980F900448119013951594EA
:105E30000EA818F023FA99E78B5F0008815F00082D
:105E400038B50546FFF7F5FD009000280DD005F1A7
:105E50001000044625F0C4F82846FFF7EAFD054681
:105E60002046694625F05CF8284638BDF0B587B075
:105E70000C46054619F040F919F07CF91DF09AFE20
:105E8000064619F039F919F08BF9074619F034F97B
:105E900019F04AF901463A46304620F027FB102116
:105EA00030461DF00AFE346166602068C1682046F5
:105EB000884795F848000126401E032813D8284635
:105EC000FFF7BEFF78B1C07E68B128466A4695F8F4
:105ED0004810FFF76DFE30B19DF8080018B1284654
:105EE0006168FFF7FFFD2068016920468847A07EB2
:105EF00010B1207EE07600E0E67607B00220F0BD2B
:105F000030B599B00C46054611AA90F84810FFF735
:105F10004FFE00282FD069462846FFF711FE059452
:105F20006068009015480390119801901299002024
:105F300009B16068884795F84610002994F8281040
:105F400008D021B1BDF94E00BDF950100AE0BDF9ED
:105F5000541007E021B1BDF95600BDF9581001E019
:105F6000BDF95C100790CDE90801684618F086F984
:105F7000012084F8290019B030BD00001960000824
:105F80004069002180F845107047002240681021C8
:105F90001AF006BC38B50C4605461CF063F8694695
:105FA0001CF0A6F800231A46642108E0034400EB25
:105FB0008000000190FBF1F01BB2ADF80200BDF9CA
:105FC00002000028F2D108E0024400EB800000014A
:105FD00090FBF1F012B2ADF80000BDF9000000280E
:105FE000F2D12A80238038BD70B548680C4688B14C
:105FF000E069002528B1216A19B11DF005F8E561B5
:10600000256260681DF010FE6560E5762068416AD3
:1060100020468847002070BD70B545692946AC68A8
:106020002046FFF713FD002085F829002046FFF7E2
:1060300071FD94F84610002907D1002805D02046AC
:10604000216CBDE8704000F00BB870BD90F84410B2
:1060500011B990F8450008B1002070470120704741
:1060600091F82C2052B10A2A03D9D0E91423C1E9AE
:106070000B23D1E90B21C0E912217047D0E914129A
:10608000C0E9121270470A2900D90A2100F8501FEE
:1060900042804360704710B508460968896988479F
:1060A000042010BD70B5054608680C4641692046BD
:1060B0008847012160681DF000FD21462846FFF752
:1060C0001FFF032070BD10B590F848000C4609284A
:1060D00003D1012160681DF06FF92068016A204634
:1060E0008847E07E08B1022010BD072010BD70B5C2
:1060F000054608680C46C16920468847214628465F
:10610000FFF7FEFE062070BD70B50446FFF79EFF48
:10611000002823D02046FFF78CFC00281ED0817E6B
:1061200009B90021C176216A04F11000091F21621A
:10613000216B491E2163226A02D041698A4201D142
:1061400024F0A8FD2046FFF774FC050005D00023CD
:1061500001461A46204600F079F8284670BD2DE920
:10616000F04117460C460646FFF770FF002805D0A1
:1061700021463046FFF7F6FC10B10020BDE8F08163
:1061800021463046FFF799FC051EF7D0687EA876B9
:10619000306B06F1100418B1A1692069884202D160
:1061A000204624F0ADFD206900B1056020693B4622
:1061B000001D2061206A0122401C206229463046D1
:1061C00000F044F82846D9E72DE9F0410746006879
:1061D00015460E4600281BD001680A6831469047D4
:1061E000041E15D0002060602082A06060611C2128
:1061F00004F11800FAF77AF8206881682046884789
:1062000005B935462A462146384600F003F82046AF
:10621000BDE8F08137B5154604461146FFF74DFC41
:1062200008B100203EBD019B201D01AAC3E9024523
:10623000D0E90114A14205D0091D4160091F03D016
:106240000B6001E025F04BF901203EBD2DE9F04740
:106250001E4691460D00044654D094F84400002890
:1062600050D14FF0010884F844806EB1EF6997B1C6
:10627000286A7168884207D1D6E900123846FBF7D0
:106280001DFAEF61706828622564E87E48B102203B
:1062900085F8240007E070681CF02CFE0700EBD1A5
:1062A000F2E785F82480E06B10B1002180F8281017
:1062B000216C5FEA090081F8288084F8460003D049
:1062C0002046216CFFF7CCFE2046E16BFFF7BEFBBA
:1062D0002046216CFFF7BAFB94F8460030B1E06B22
:1062E00010B140681FF0E2FA206C06E0206C4068B4
:1062F0001FF0DCFAE06B002804D04068BDE8F047EE
:106300001FF0D4BABDE8F08770B58CB00024C0E9A6
:1063100000148460C46000F110066D4628460A949B
:1063200024F0ECFD2946304624F011FEA0F11005C2
:10633000684624F038FEEC63142105F144002C6417
:10634000F9F7D4FF044B4FF4FA7201212846FFF706
:106350009AFE0CB0284670BDD5E1010810B510308A
:1063600024F021FEA0F10C04216860680B4600E0D7
:106370001B1D8342FCD1A068401A8210204624F0E5
:1063800087FA201F10BD00214170406842F2107151
:10639000B0FBF1F0C0B27047002141704068642149
:1063A000B0FBF1F201FB120000F5FA6080B2704719
:1063B0000021417041686420B1FBF0F1B1FBF0F2C3
:1063C00000FB1210704710B504468068606022F030
:1063D00055FAE06001206070207010BD70B5054670
:1063E00000782D280AD000262846FAF7A2F8642162
:1063F00000FB01F4F9F734FF006803E001266D1C8F
:10640000F2E76D1C2978415C2029FAD029782E29E1
:106410000FD16978425C202A0BD101EB810104EB9A
:106420004104A978A4F5F074405C202801D1303CE7
:106430000C440EB1604270BD204670BD2DE9F041A4
:106440000F460446FAF775F86421B0FBF1F201FB40
:106450001205B0FBF1F0144E38807543F9F700FFD8
:10646000016800E0641C2078085C2028FAD02078BD
:106470002E2807D00CE000BFB6FBF2F6303800FB48
:10648000065500E00A2214F8010F0B5C202BF3D014
:1064900005EB85000321401CB0FBF1F07860002083
:1064A0003872BDE8F08100008096980010B553EC7A
:1064B000132B2DED0E8BB0EE42AAF0EE62AAB0EED9
:1064C00040BAF0EE60BA51EC110BFAF707F99FED04
:1064D0005A8B53EC182BFAF707F941EC190BB0EE75
:1064E000490AF0EE690A0CF0A7FAB0EE40EAF0EEC5
:1064F00060EAB0EE490AF0EE690A0CF055F8B0EE29
:1065000040CAF0EE60CA53EC182B51EC1B0BFAF7A3
:10651000EBF841EC190B53EC182B51EC1A0BFAF772
:10652000E3F841EC180BB0EE490AF0EE690A0CF002
:1065300083FAB0EE40BAF0EE60BAB0EE490AF0EE7F
:10654000690A0CF031F8B0EE40AAF0EE60AAB0EEA5
:10655000480AF0EE680A0CF06FFAB0EE409AF0EEDE
:10656000609AB0EE480AF0EE680A0CF01DF8B0EE42
:10657000408AF0EE608A53EC182B51EC1B0BFAF7B3
:10658000B3F853EC1C2BFAF7AFF841EC1D0B53ECAE
:10659000192B51EC1A0BFAF7A7F853EC1D2BFAF74D
:1065A0009DF841EC100B53EC102BFAF79DF841ECE1
:1065B0001D0B53EC1E2B51EC180BFAF795F841EC20
:1065C000110B53EC112BFAF78FF853EC1D2BF9F745
:1065D000E4FF41EC100B0CF05BFBB0EE40DAF0EEA8
:1065E00060DA53EC182B51EC1A0BFAF77DF853ECE8
:1065F0001C2BFAF779F841EC180B53EC192B51ECE2
:106600001B0BFAF771F853EC182BF9F7C6FF41ECA6
:10661000110BB0EE4D0AF0EE6D0A0BF0CDFE9FEDC2
:10662000081B51EC100B53EC112BFAF75DF8BDEC85
:106630000E8B41EC100B10BD000000A046DF913F17
:10664000000000C06E4F584170B5044690F8A90094
:10665000002864D094F8AB10204600F084F902467C
:1066600094F8AA10204600F07EF902EB001094F88E
:10667000A810C0B281424DD1D4F8D400401CC4F857
:10668000D40094F8BC0020B1D4F8CC00401CC4F86D
:10669000CC0094F8B91004F148000546A1B10129D5
:1066A00026D11038FFF78FFE284600F0B3F994F892
:1066B000BC00E8B1204601F0F7FA04F1580000F000
:1066C00056FF04F1680011E000F0A4F994F8BC0052
:1066D00030B1204601F0E8FA04F1780000F047FFFD
:1066E00004F1880000F053FF04F1980000F03FFF30
:1066F000D4F8C45003E0284600F03DFC2D6B3DB1BA
:10670000D4F8C400816AA86AF9F72CFE0028F2D0F8
:10671000012070BD54F8D00F401C2060BAE094F8FE
:10672000BA2004F1AA05AAB194F8B910022954D0EC
:1067300094F8AA00002850D042EA4111212948D0FB
:106740003EDC0A2949D2DFE801F08F4451565F64EC
:106750007B7E848A51A12846F9F704FE0026A0B169
:1067600050A12846F9F7FEFD78B150A12846F9F767
:10677000F9FD60B14FA12846F9F7F4FD38B10220C8
:1067800084F8B900D4F8C00005E00120F8E784F8E7
:10679000B960F7E7006BC4F8C40090B3806A29467B
:1067A000F9F7E0FD0028D4F8C400F3DB48B3806AB1
:1067B0002946F9F7D7FD00286CDDC4F8C46069E00C
:1067C0002239082950D2DFE801F00911161F242CC4
:1067D00031362846FFF702FE206545E0412801D109
:1067E000012000E0002084F8BC003DE0294620465E
:1067F00001F0FAF938E0532804D0002084F824008E
:1068000032E047E00120F9E72946204601F0F2F99D
:106810002AE0572803D0002084F8300024E001202B
:10682000FAE72846FFF7DAFD60661DE02846FFF725
:10683000D5FD606718E02846F9F77BFE206413E079
:106840003028CFD9CCE72846F9F773FEC4F8940076
:106850000AE02846FFF7C2FDC4F8A40004E0284679
:10686000FFF7BCFDC4F88400D4F8C46005E003D190
:106870002946304600F07CFB366B5EB1D4F8C4008C
:10688000816AB06AF9F76EFD20B994F8BA10F06A1F
:106890008842ECDD4FF0000070BD00004750524DC3
:1068A00043000000474E524D430000004750474709
:1068B00041000000474E47474100000070B50446C4
:1068C000D0F8C8000026401CC4F8C8000D4604F1EA
:1068D000AA00242936D004DC0A2D18D00D2D04D1AD
:1068E00015E02A2D13D02C2D0CD094F8BB100E29B6
:1068F00004D20A46491C84F8BB10155494F8A90028
:1069000058B32EE094F8A810694084F8A81094F8C1
:10691000BB2000210F2A04D216542046FFF794FE14
:10692000014694F8BA00401C84F8BA0084F8BB60B1
:106930002A2D05D05FF0000084F8A900084670BD3C
:106940000120F9E784F8BB6084F8BA6004F8A86F06
:10695000022060746670267503E014F8A80F684082
:106960002070002070BDA1F14100052801D80A3037
:106970007047A1F16100052801D80A307047A1F1E4
:106980003000704710B5002400F8014B00F8034BAD
:10699000FEF75BFF0C30FEF758FF0C30FEF755FF9B
:1069A0000C30FEF752FFA0F1280100F8104F4470A0
:1069B000446001F14800047044701030CC6400F071
:1069C000E1FD103000F0DEFD103000F0DBFD00F8DE
:1069D000104F44708460103000F0D4FD00F8104F68
:1069E0000221447041748474C47404758461C46168
:1069F000046244628462C4628470A83810BD0000DE
:106A00000021417040680249B0FBF1F0C0B270470C
:106A100040420F0010B504468068606021F02EFFF0
:106A2000E06001206070207010BD0021417040685E
:106A300042F21071B0FBF1F06421B0FBF1F201FB06
:106A4000120070470021417041686420B1FBF0F1F1
:106A5000B1FBF0F200FB12107047704730B40468CD
:106A6000E468A44630BC604701B901210176704753
:106A700081767047C182818270478182C28270476D
:106A80002DE9FC41044600680E461F460169154683
:106A9000DDF8208020468847E919491E09B2CDE972
:106AA0000018206833462A46476A19462046B847E8
:106AB0002068816A02B02046BDE8F04108477CB5F5
:106AC000DDE90645CDE900450468E46BA0477CBDDF
:106AD00038B5049C00940468646BA04738BDFEB5CB
:106AE0000446C0690022E8B30A296DD00D2937D0C9
:106AF000037A994234D3457A8D4231D34568CB1A13
:106B000005EBC305AB78EE781BB316B395F90570AA
:106B1000A67E86B1B4F910C0267E3B4416FB03C3A3
:106B2000B4F90C70BB4206DD2282B4F91220807ADF
:106B300016FB00206082A08A237EE28A8DE80D0089
:106B4000B4F910000B460146B4F91220204600F0BB
:106B500051F8B4F910002979227E11FB020020823D
:106B60000120FEBDFFE70A2928D00D29F8D0A07E1C
:106B700078B1207EB4F9103000EB400503EB4503FB
:106B8000B4F90C50AB4204DD2282628A02EBC000F1
:106B90006082A08A237EE28A8DE80D00B4F910009D
:106BA0000B460146B4F91220204600F023F8217E5E
:106BB000208A01EB410100EB4100D0E72282608A8C
:106BC000217E00EBC10006E02282B4F91210227E81
:106BD000807A12FB00106082C2E7C26919B132B933
:106BE000428A921D02E012B1428A921F4282C16122
:106BF000704700002DE9F04F91B08946DDE91BA4F4
:106C0000C1691F469346054629B3087A4A68181A8F
:106C1000C0B202EBC00009680A9101880491817832
:106C20000891C178079190F905100D914FF0000877
:106C300090F90600CDF81480C246CDF818800F9068
:106C4000012C02D90F980691059028680169284601
:106C500088470020C0E0B5F90C1049457ADDB5F948
:106C60000E10594576DD04EB440109EB4100012883
:106C700070D40BEBC40001286CD4E87E18B9B02F97
:106C800001D35F1CFFB2286801692846884707EBDB
:106C900087000026039081195E48002710F80180C4
:106CA0005FEAC87016D0012C09D01A98CDE90040CF
:106CB00007FB04B002B206FB049001B217E00BEB35
:106CC000070002B209EB060001B228681A9BD0F84F
:106CD00014C028E01A9882450FD0012C19D007FB68
:106CE00004B002B206FB0490CDE9004A01B2286864
:106CF0002346D0F818C02846E0477F1C7FB24FEAF1
:106D00005808082FCCDB761C76B2052E0EDA0398D5
:106D1000C1E70BEB070002B209EB060001B22868DD
:106D20005346D0F814C02846E047E6E71A998A454A
:106D300056D0012C0FD0E100CDE9001A04EB8401FC
:106D400001EB090001B2286823465A4686692846A5
:106D5000B04745E05BE0CDF800A0286808235A461C
:106D6000C46909F1050001B22846A04738E00026B1
:106D70002CE000BF5FEA4A710AF1010000F0FF0A4F
:106D800006D10A99049811F80080401C80B2049042
:106D90005FEA086014D5012C29D01A982346CDE962
:106DA000004005990398014401FB04B002B2069823
:106DB000811901FB049001B2286887692846B84709
:106DC0004FEA4860761C4FEA1068F6B2089886428F
:106DD000D0D30398401CC0B2079903908842C6D311
:106DE0002868816A11B02846BDE8F04F08470F991E
:106DF0000398594408440D9902B209EB010030444C
:106E000001B228681A9B47692846B847D8E711B0ED
:106E1000BDE8F08FFC28040870472DE9F8430546CB
:106E200000680C46DDE9088701691E469146284640
:106E3000884726440AE00097286843464A46D0F827
:106E40001CC021462846E047641C24B2A642F2DC5E
:106E50002868816A01B02846BDE8F0430847000071
:106E60002DE9FF5F14460E980E461D46021BA3EB4C
:106E7000060100D55242002900DA49428A4207DD64
:106E80003146264605464FF001080C46184601E0FB
:106E90004FF00008AE4205DD31462E460D46214634
:106EA00004460846A91B0FFA81F9011B00D5494287
:106EB0000FFA81FB09EBD9714F10844201DA0120EE
:106EC00001E04FF0FF3082461CE000BF00980F9BAE
:106ED000B8F1000F0068D0F814C002D03246214645
:106EE00001E0224631460098E047A7EB0B0007B2CD
:106EF000002F05DA04EB0A0004B207EB090007B221
:106F0000761C36B2AE42E1DDBDE8FF9F10B500232E
:106F10000A4CC0E900430181428189B2818191B26A
:106F2000C181437603824382012101764FF6FF72CD
:106F3000C28282828176C376C36110BD1C39040887
:106F400010B5034900F00FFEBDE8104002F0D6BFB7
:106F5000D425040800F025BE103000F022BE10B584
:106F6000103000F02EFEBDE81040103800F029BEB1
:106F70001022F9F7E4B910B5044601461030F9F7CC
:106F80000CFA21F07BFC44F8200F01206071207185
:106F900010BD70B5044640F2255500692946FDF73D
:106FA0000DF898B12069FDF797F8C1B2208B628B7C
:106FB000401CC0F30800824204D0238B04F11C0261
:106FC0009954208329462069FCF7E1FF6069002875
:106FD00002D0BDE87040004770BD018B428B9142EA
:106FE00002D14FF0FF307047428B00F11C01515C21
:106FF000428B521CC2F308024283084670470022AB
:10700000AFF3008008B503230093012300F002F8DA
:1070100008BD00002DE9F04F91468B463A4A0746DD
:1070200001691515394887B09A4691420BD144152C
:10703000804601210420FBF76FFE01218803FBF746
:107040006BFE25261FE0324A91420CD10424804673
:10705000082501212046FBF75FFE01214804FBF7CC
:1070600043FE26260FE02B48814249D12C46C51409
:10707000DFF8A48001210820FBF74EFE01218804DF
:10708000FBF732FE27262C43ADF8144002208DF882
:10709000160018208DF8170005A94046FBF7AAF93D
:1070A0008DF810608DF811A010988DF81200012055
:1070B0008DF8130004A8FBF757FD09F47040ADF8F4
:1070C000040009F47060ADF8060009F0F000000259
:1070D000ADF808000020ADF80C000C20CDF800B091
:1070E000ADF80A0069463869FCF7A0FF012240F2BA
:1070F00025513869FCF781FF01213869FCF74DFF04
:1071000007B0BDE8F08F00000038014000080140E2
:107110000044004000480040000C014070B50D469E
:10712000044680212069FCF742FF0028F9D0294657
:107130002069FCF7D5FF012070BD018B408B081A38
:10714000C0F308007047000000224FF47A73C0E9D2
:107150000123034B0360C0E904124283028370479A
:10716000703904080FB410B50399049A059B069C66
:1071700000F1040C8CE81E009DF81C10017510BC79
:107180005DF814FB2DE9F041D0E901450E4606E01B
:10719000276830463968F9F7E5F828B1241DAC4274
:1071A000F6D10020BDE8F0813846FBE72DE9F84331
:1071B0001D4616460F460446DDF82080FFF7E2FF25
:1071C00010B10020BDE8F8830C200AF055FE0090B5
:1071D000C0E90076058180F80A80D4E90213241DF5
:1071E0006A46994205D0091D6160091F04D00860F4
:1071F00002E0204624F0D4F90120E3E770B504460C
:10720000FFF7C0FF031E0CD06068A268014600E0D3
:10721000091D914202D00D689D42F9D18A4201D1E7
:10722000002070BD90420AD0081D824204D001E0C7
:1072300020C820C19042FBD1A068001FA060184662
:107240000AF012FE012070BDF0B5ADF2444D0446C7
:10725000016802220DF58660FEF7E0FB9DF8300420
:10726000B0B902A822F067FF02A80DF586610A22D4
:1072700022F07CFBC0B2CDF83C040DF23C416846E4
:107280000AF090F8DDE9001011B9C10708D038B153
:107290000DF2344019F07CFB00200DF2444DF0BD9E
:1072A000D4E9015608AF50E02C683846216823F035
:1072B00043FA70B15FF0000090F0010F44D0A07A63
:1072C000012808D0022813D003281ED004283BD15F
:1072D00028E00120F0E73846216823F02DFA22F05B
:1072E000A9FF00900CE069466068FAF7E7F92BE027
:1072F0003846216823F020FA22F092FF8DED000A33
:107300002289042AEFD30422EDE73846216823F0CE
:1073100013FA22F079FF8DED000B2289082AE2D3BF
:107320000822E0E73846216823F006FA30B1017AF6
:1073300001F07F01042910D005290ED0002119B1D8
:1073400022896068F8F7FBFF2D1DB542ACD10DF224
:10735000344019F01DFB01209FE70168EFE70000B2
:107360002DE9F047ADF58A6D0446016803220DF55D
:107370008660FEF753FB9DF8301400297ED102A8E9
:1073800022F0D9FED4E901674FF0000808ACADE067
:107390003568A87A012806D0022830D0032856D0B4
:1073A00004282BD183E0CDF800802A89042A00D953
:1073B000042268466968FAF781F99DF828002D686B
:1073C0000DF10809400602D1204600F00EFF9DF89D
:1073D0002800800601D4002004E04A4629462046C1
:1073E00022F0CEFB009900287FD0894605460A216D
:1073F00000F0E7FE4FEAE970C5E9009075E09FED07
:107400004D0A8DED000A2A89042A00D90422684613
:107410006968FAF753F99DF828002D680DF10809FD
:10742000400602D1204600F0E0FE9DF828008006CC
:1074300001D4002004E04A462946204622F0A0FB61
:107440009DED000A90B300BF00F0C1FE4DE09FED3E
:107450003A0B8DED000B2A89082A00D908226846CC
:107460006968FAF72BF99DF828002D680DF10809D5
:10747000400602D1204600F0B8FE00E054E09DF83E
:107480002800800601D4002004E04A462946204610
:1074900022F076FB9DED000B050026D051EC100B81
:1074A000F9F7E0FA00EE100A2846CDE71DE0D5E92D
:1074B00000959DF828000DF1080A400602D12046EB
:1074C00000F093FE9DF82800800601D4002004E01F
:1074D00052464946204622F053FB30B105B381465F
:1074E000042100F06EFEC9F80050361DBE427FF444
:1074F0004FAF0DF58660CDF83C04CDF840848DF893
:1075000048840DF23C41204623F018F860B10DF29A
:10751000344019F03DFA01200DF58A6DBDE8F08781
:10752000002100F04EFEE0E70DF2344019F030FA91
:107530000020F1E700000000000000000000000053
:10754000002343608360C3600160704710B5041D71
:1075500040686268014600E0091D9142FCD1A168C3
:107560000022091A891006F061FE201F10BD10B517
:107570000446C068A06021F081F96060012060705D
:10758000207010BD0021017041708160704710B5FE
:107590000446C068A06021F071F96060012060704D
:1075A000207010BDF8B50446C0890E46401E00B2DA
:1075B0000090A089401E03B2206800221146C56CCD
:1075C0002046A847A089E18910FB01F594F8250021
:1075D000E0B1A16A208F4861E16A608F08611048BC
:1075E000310A07E002899207FCD58181028992075E
:1075F000FCD586816D1EF5D201898907FCD50189EC
:107600000906FCD4A16A208F0861F8BD002704E0B8
:107610003146204600F02EF87F1CAF42F8D3F8BD6B
:107620000030014010B5044601F0030060763621B9
:10763000204600F041F8617EF02069B101290FD0A9
:10764000022911D0032913D1A081E081A021204675
:10765000BDE8104000F032BAA081E0810021F6E7D9
:10766000A081E081C021F2E7A081E0817021EEE7F6
:1076700010BD000070B504460D46A16A008F486138
:10768000E16A608F086194F82500290A38B1094839
:1076900009F0C4FEE9B2074809F0C0FE06E0204642
:1076A00000F0C4F9E9B2204600F0C0F9A16A208FC9
:1076B000086170BD4800032010B50446008FA26A1F
:1076C0005061E26A608F506194F8250018B1054856
:1076D00009F0A4FE02E0204600F0A8F9A16A208F7C
:1076E000086110BD48000320F8B50546B0F90C004C
:1076F000069E1C46884222DDB5F90E0090421EDD32
:10770000012C1CDB13195B1E834201DB801A04B2BF
:10771000002900DA0021002A00DA00221019401E98
:1077200000B2009028680B46C76C2846B84703E0B3
:1077300031462846FFF79EFF641E24B2F8D2F8BDFA
:107740002DE9F0418046407E069F1C4615460E46B8
:1077500030B101280DD0022802D0032823D128E01F
:107760002A214046FFF7A8FFB1B24046FFF782FF4B
:1077700029E02A214046FFF79FFFB1B24046FFF7BC
:1077800079FFA1B24046FFF775FF2B214046FFF776
:1077900093FF5035A9B24046FFF76CFF5037B9B29E
:1077A0004046FFF767FF4046BDE8F0412C21FFF758
:1077B00083BF2A214046FFF77FFF5036B1B24046D3
:1077C000FFF758FF5034A1B24046FFF753FF2B217B
:1077D0004046FFF771FFA9B24046FFF74BFFDEE7D7
:1077E00010B5044690F8250038B18E4808F008FF1F
:1077F0008D498C4808F066FF09E094F823000521C4
:1078000021F0DAF894F82400052121F0D5F894F855
:1078100021000521203421F0CFF8A078052121F0A6
:10782000CBF82078052121F0C7F86078012110F00D
:107830001FFA2078002110F01BFA642010F0DEF906
:1078400014F82009012110F013FA642010F0D6F981
:1078500011212046FFF730FF782010F0CFF9206883
:107860000021C26A204690473A212046FFF724FFB4
:107870000521204600F022F9B2212046FFF71CFF27
:107880000C21204600F01AF90C21204600F016F9D0
:107890000021204600F012F93321204600F00EF9B5
:1078A0003321204600F00AF9B7212046FFF704FFF4
:1078B0003521204600F002F9BB212046FFF7FCFEEF
:1078C0003221204600F0FAF8C2212046FFF7F4FEEC
:1078D0000121204600F0F2F8C3212046FFF7ECFE1C
:1078E0001521204600F0EAF8C4212046FFF7E4FE07
:1078F0002021204600F0E2F8C6212046FFF7DCFEFA
:107900000F21204600F0DAF8D0212046FFF7D4FE00
:10791000A421204600F0D2F8A121204600F0CEF8A4
:10792000E0212046FFF7C8FED021204600F0C6F82F
:107930000821204600F0C2F80E21204600F0BEF8D3
:107940000921204600F0BAF80921204600F0B6F8D7
:107950000521204600F0B2F83121204600F0AEF8B3
:107960003321204600F0AAF84821204600F0A6F86E
:107970001721204600F0A2F81421204600F09EF8BE
:107980001521204600F09AF83121204600F096F8A3
:107990003421204600F092F8E1212046FFF78CFECA
:1079A000D021204600F08AF80821204600F086F811
:1079B0000E21204600F082F80921204600F07EF8D2
:1079C0000921204600F07AF81521204600F076F8CB
:1079D0003121204600F072F83321204600F06EF885
:1079E0004821204600F06AF81721204600F066F88A
:1079F0001421204600F062F81521204600F05EF8C0
:107A00003121204600F05AF83421204600F056F883
:107A100021212046FFF750FE2046BDE810402921D5
:107A2000FFF74ABE4800032000C2EB0B10B500224E
:107A3000046B838F63610B06C38F446B01D5236195
:107A400000E06361046B838F23614906521C090EB9
:107A5000D2B2082AECD310BDF8B51D460446002961
:107A600015DBB4F90C00884211DD002A0FDBB4F9F4
:107A70000E0090420BDD009220680B46C66C20463B
:107A8000B04729462046BDE8F840FFF7F3BDF8BDF2
:107A900038B50182428200290EDBB0F90C308B42EE
:107AA0000ADD002A08DBB0F90E30934204DD0092B3
:107AB0000368DC6C0B46A04738BD000010B50446D7
:107AC000008FA26A5061E26A608F106194F825000D
:107AD00018B1054809F0A2FC02E02046FFF7A6FF16
:107AE000A16A208F086110BD4800032070B51446BC
:107AF0000D46F0221E461146FFF708FA0B4940F8E2
:107B0000081B0B494576847601EB0512067613684F
:107B10000362928901EB041102860A684262898934
:107B2000418601214177083870BD0000943904086E
:107B3000DC2E04082DE9F047D0E90046904689463E
:107B400008E000BFD4E900170D464846F8F70AFCE4
:107B500028B10834B442F5D10020BDE8F087C8E967
:107B600000570120F9E7C16070477CB515460E4605
:107B700004466A46FFF7DEFF08B100207CBDCDE970
:107B8000006520466A46D0E90113994205D00831C4
:107B90004160083922F075FE01E023F0ABFA0120C4
:107BA0007CBD1CB504466A46FFF7C4FF08B10198C6
:107BB0001CBDE0681CBD0021016041608160C160A6
:107BC000704710B5044600686268014600E008315D
:107BD0009142FCD1A1680022091AC91006F026FBC7
:107BE000204610BD06F020BE0A4600F11C011046DA
:107BF000FEF724BC0A4600F128011046FEF71EBC21
:107C000010B504462DED028B00206070A068F8F7D7
:107C100081FE9FED0E1B53EC112BF8F7D7FD41ECC5
:107C2000180BA088F8F776FE53EC182BF8F7B5FC84
:107C300041EC100B207B002805D051EC100B81F09B
:107C4000004141EC100BBDEC028B10BD00000000A8
:107C500065CDCD4110B504462DED028B002060703E
:107C60006069F8F757FE9FED0E1B53EC112BF8F7E8
:107C7000ADFD41EC180B208AF8F74CFE53EC182BA5
:107C8000F8F78BFC41EC100B207E002805D051EC5E
:107C9000100B81F0004141EC100BBDEC028B10BDCC
:107CA0000000000065CDCD4110B5044600F11C0177
:107CB0000922001DF9F702FD092204F1280104F14F
:107CC0001000F9F7FBFC20F0D9FD60630120607023
:107CD000207010BD10B50269044602B19047606D76
:107CE000401C606510BD00002DE9F0411F462DEDE0
:107CF000088B15460C46012693ED020B91ED029B75
:107D000053EC102B51EC190BF8F7EEFC97ED000B30
:107D100094ED008B41EC1A0B53EC102B51EC180B2B
:107D2000F8F7E2FC53EC1A2BF8F737FC94ED04ABB0
:107D300053EC1A2BF8F731FC95ED020B41EC1B0BC1
:107D400053EC102B51EC190BF8F7CEFC95ED000B12
:107D500041EC190B53EC102B51EC180BF8F7C4FC49
:107D600053EC192BF8F719FC53EC1A2BF8F715FC08
:107D700053EC1B2BF8F7B8FC9FED061B53EC112BB3
:107D8000F8F740FE00D20026BDEC088B3046BDE877
:107D9000F0810000F168E388B5F8E43E70B50C4668
:107DA0002DED048B1E46154692ED020B51EC100B87
:107DB00081F0004141EC190B84ED009B95ED000B27
:107DC00084ED020B96ED021B51EC100B53EC112BC2
:107DD000F8F78AFC96ED000B41EC180B53EC102BD6
:107DE00051EC190BF8F780FC81F0004153EC182B93
:107DF000F8F774FCC4E90401BDEC048B70BD80EDA0
:107E0000020B7047016170470021016541657047B1
:107E10002DE9F0470E462DED108B9FED688B92ED0E
:107E200000DB93ED009B92ED02CB93ED02EB01277B
:107E300053EC192B51EC1D0BF8F750FC894649EC1B
:107E4000100B044653EC182B51EC100BF8F7F2FD15
:107E500002D249EC1A4B07E053EC1D2B51EC190BE5
:107E6000F8F73CFC41EC1A0B53EC1E2B51EC1C0BAD
:107E7000F8F734FC884648EC100B054653EC182BF9
:107E800051EC100BF8F7D6FD02D248EC1B5B07E073
:107E900053EC1C2B51EC1E0BF8F720FC41EC1B0B98
:107EA000B0EE489AF0EE689AB0EE48FAF0EE68FA52
:107EB0009FED440B51EC1A0B53EC102BF8F7A2FD7D
:107EC0000DD251EC1B0B9FED3F0B53EC102BF8F731
:107ED000B1FD04D251EC1D0B9FED3C8B15E09FEDE5
:107EE000390B51EC1A0B53EC102BF8F7A3FD0FD202
:107EF00051EC1B0B9FED330B53EC102BF8F782FD6D
:107F000006D251EC1C0B9FED319B81F0004147E004
:107F10009FED2C0B51EC1A0B53EC102BF8F78AFD4C
:107F200041D251EC1B0B9FED270B53EC102BF8F7B4
:107F300081FD38D249EC184B53EC1C2B51EC1E0B35
:107F4000F8F7CCFB884648EC100B054653EC182B91
:107F500051EC100BF8F73AFC41EC180B49EC104BC4
:107F600048EC195B53EC182B51EC100BF8F7BCFBE9
:107F700053EC192BF8F72AFC41EC190B53EC1C2B92
:107F8000F8F7B2FB41EC1A0B53EC1D2B51EC180B1C
:107F9000F8F7AAFB81F0004153EC1A2BF8F79EFB8F
:107FA00041EC1F0B00E0002786ED04FB384686EC11
:107FB000048BBDEC108BBDE8F087000000000000D2
:107FC00000000000F168E388B5F8E43E000000001E
:107FD0000000F03F70B515462DED068B0C460646A9
:107FE00092ED020B91ED02AB53EC102B51EC1A0BFE
:107FF000F8F77AFB95ED000B94ED009B41EC180B24
:1080000053EC102B51EC190BF8F76EFB53EC182BBB
:10801000F8F7C3FA94ED041B53EC112BF8F7BDFAF3
:1080200041EC180B53EC1A2B51EC1A0BF8F75CFBD4
:1080300041EC1A0B53EC192B51EC190BF8F754FBCC
:1080400053EC1A2BF8F7A9FA41EC100B304600F06C
:1080500081F8B0EE409AF0EE609A9FED0D0B51EC76
:10806000180B53EC102BF8F7E5FC05D351EC180B6B
:1080700081F0004141EC180B53EC192B51EC180B1B
:10808000F8F732FBBDEC068B41EC100B70BD000025
:1080900000000000000000002DE9F0430446006DE0
:1080A0008DB08846002688B304F1380704F128050E
:1080B000012831D00A4639462046FFF78BFF94ED60
:1080C000021B51EC100B53EC112BF8F7B3FC16D339
:1080D00004F118022B46914669462046FFF798FEA8
:1080E000002834D02B466A4606A92046FFF756FEE4
:1080F00043464A4606A92046FFF7F6FDA0B10126F1
:1081000029462046FFF7E6FD434606E0FFE7012645
:108110002046FFF7DFFD07E00B462A46394620469A
:10812000FFF776FE002812D004F1280004F11805AC
:108130000FC885E80F0098E80E00D8F80C00C4E9D5
:108140000C30C4E90A12206D401C206530460DB089
:10815000BDE8F08310B551EC100B2DED028BB7EE9E
:10816000088AF8F77FFC00EE100AF6EE000A0F49C5
:1081700060EE200AA1EB600000EE100AB0EE481A93
:1081800060EE801A01EEC01A21EE000A60EE800A4D
:1081900000EEC08A28EE000A10EE100AF8F71FFC65
:1081A000BDEC028B41EC100B10BD0000DF59375FB6
:1081B00010B5044650210830F8F798F8204610BD55
:1081C0007047027A02F080020A430272704710B5CB
:1081D00004462DED028BB0EE408A0C21FFF7F1FF33
:1081E00084ED008ABDEC028B10BD10B50446202141
:1081F000FFF7E7FF002020606060204610BDB0F967
:108200000A1011B100EB0110704700207047000008
:108210002DE9F04704460078002689462B2802D035
:108220002D2801D10126641C2078A0F130010A29F3
:1082300001D32E287CD100200146054682461AE053
:108240004FF09937684B3F1AD2B28B4117D30A27A8
:10825000A0FB073801FB07814FF0000C00FB0C115D
:108260001846D7436FEA0A033F1A8B4107D3801899
:1082700041EB0A01641C2278303A092AE0D92278BD
:10828000EAB98EB14FF0004243428A4117D3C4434A
:10829000C843641C4D4640F100060A214846FFF7DA
:1082A00090FFC5E9004664E00E464D4604460821AD
:1082B000F4E70A220023F7F7A1FF6D1C6DB24B4BC8
:1082C00000221B1A8A41F4D302E06D1C6DB2641CBB
:1082D0002278303A092AF8D922782E2A1AD100BFFA
:1082E00014F8012F303A092A14D8414BC31A71F1FE
:1082F0000003F5D20A27A0FB07C801FB0781002372
:1083000000FB0311D0B21CEB000041EB0A016D1E13
:108310006DB2E5E723780022652B01D0452B2FD1E4
:1083200014F8017F00232D2F03D02B2F02D002E061
:1083300029E00123641C6FF02F0C2778A7F1300887
:10834000B8F1090F1AD802EB82020CEB42023A4450
:108350005719262F10DD33B116B19FED260A3EE0E6
:108360009FED250A3BE04FF0FF4000EE100AA6BB50
:1083700035E00120BDE8F087641CDEE703B152421E
:10838000154422780AB10020F4E7F8F7A4FA00EEC9
:10839000100A002D0FDD19490020EA0705D001EB76
:1083A0008002D2ED000A20EE800A00F101006D107B
:1083B000C0B2F2D110E069420020114A0AE0CB07B6
:1083C00005D002EB8003D3ED000A20EE800A4910AD
:1083D000401CC0B20029F2D10EB1B1EE400A4846AD
:1083E000FFF7F5FEC5E7000099999919FFFF7F0097
:1083F000CCCC0C000000008000000000143C0408FD
:10840000FC3B040801684A6842608A684968511A5E
:10841000C160002181607047F0B505688668D5E9C4
:108420000001814211D904460A4602E0401C53B1C2
:10843000521C037817789F42F8D000BF10F8012B28
:10844000002AFBD1EDE7200002D1084631446960E3
:10845000F0BD10B54368002B08D0D0E90224A24239
:1084600005D30021416000680121017410BD541C36
:108470008460995410BD30B50246D1E90140002313
:1084800001251034844208D81038886006D051681D
:1084900031B1441A24114C8103E00D74002030BD29
:1084A0001060506043810372C36030BD00B1022090
:1084B0000149084470470000543C04082DE9F04786
:1084C0009A462DED0A8BB0EE419AF0EE619A9146F4
:1084D0000E46044690ED042B90ED021B00F0D2F8FE
:1084E000B0EE408AF0EE608A94ED082B94ED061B06
:1084F000B0EE490AF0EE690A204600F0C3F89FED9D
:10850000559B51EC100B53EC192BF8F746F89FEDE7
:10851000531B53EC112BF8F759F994ED0A0B41EC6E
:108520001B0B53EC102B51EC180BF8F7DDF853EC48
:10853000192BF8F74BF941EC100B0AF07DFAB0EE6D
:1085400040AAF0EE60AA94ED0A0B9FED461B51EC99
:10855000100B53EC112BF8F7C7F853EC1A2B41EC26
:10856000180B9FED42CB51EC1C0BF8F7B7F841EC20
:10857000190B53EC1C2B51EC1A0BF8F70EF853ECBB
:10858000192BF8F723F941EC100B0AF071F853ECB2
:10859000182B51EC100BF8F719F99FED369B53ECA3
:1085A000192BF8F79EF84FF4807541EC1A0BB54083
:1085B000681EF8F7AFF98846064648EC180B2846BF
:1085C000F8F7A8F90F4647EC100B054653EC1B2BA8
:1085D00051EC100BF8F788F853EC192BF7F7DDFF87
:1085E0009FED26BB41EC100BB0EE482AF0EE682A56
:1085F000B0EE4B1AF0EE6B1A204600F043F851EC47
:10860000100BF8F7B4F947EC105BC9F8000048EC20
:10861000186B53EC1A2B51EC100BF8F765F853EC70
:10862000192BF7F7BAFF41EC100BB0EE482AF0EE29
:10863000682AB0EE4B1AF0EE6B1A204600F022F8D2
:1086400051EC100BF8F793F9CAF80000BDEC0A8B57
:10865000BDE8F087000000000080664000000000D8
:108660000080764000000000000010400000000084
:108670000000F03F000000000000E03F00000000AC
:108680000000000031B52DED060B6D4602AC9DECEF
:10869000040B51EC100B53EC112BF8F7B3F900D38A
:1086A0002C469DED040B94ED001B04AD53EC112BF7
:1086B00051EC100BF8F7A6F900D22C4694ED000B04
:1086C00007B030BD9FED0C0B80ED000B9FED0C0B48
:1086D00080ED020B9FED0C0B80ED040B9FED0C0B5E
:1086E00080ED060B9FED0C0B80ED080B9FED0C0B46
:1086F00080ED0A0B7047000000000040A65458416E
:10870000007FA5B1454355C0007FA5B14543554005
:1087100000000000008066C000000000008066408D
:10872000182D4454FB210940704710B502F0C8F9D8
:1087300002F068FABDE8104002F098B910B50A7866
:10874000042A04D0022A05D06FF0020010BD00F008
:108750000DF808E00869302802D06FF0010010BD64
:10876000C86802F005F9002010BD000070B592B095
:10877000064606A802F0FCF8BDF93C50174C072D40
:1087800001DD022006E0E81E022801D2012001E0FE
:108790000DB90020207020786178884211D0104BEC
:1087A0000DF1080C0ECB8CE80E0002A9042351F841
:1087B0002000059005AA0BA1304606F052F920785A
:1087C0006070032D07DB302206A9304606F031F930
:1087D000304606F074F912B070BD000004000020AD
:1087E0002CBA02084D75736963506C61796572002B
:1087F00010B5002121221CF020FCC0B210BDC9B26E
:1088000000221DF090BF00003EB504460878012804
:1088100004D0022817D06FF002003EBD086930284E
:108820000FD1C9682046097859B10A236A460BA1BD
:1088300006F0BAF8684602F091F90AA1204606F05F
:1088400071F800203EBD08690A2802D06FF00100CF
:108850003EBDC86802F06AF9F3E70000547A436F3E
:108860006E760000475053002DE9FF41344C064618
:108870000D46207A4FF00107C0070ED104F1080021
:1088800009F016FC48B12F482F4A02210260877177
:10889000018104F10800AFF300802079C0070FD1F7
:1088A0002748001D09F004FC50B1264800210C3077
:1088B0008771C161254901602148001DAFF3008027
:1088C0002878042806D002281ED06FF0020004B0D9
:1088D000BDE8F081684602F04DF99DF8030021786B
:1088E00088420FD010F0FF0F01D019A000E01CA0AB
:1088F0000190042301AA1EA1304606F0B2F89DF8AB
:10890000030020700020E2E72869042802D06FF0FD
:108910000100DCE702A802F02DF99DF80A100948D1
:1089200021F070FD014607480C3021F079FD8DF8EB
:108930000A00D5E9030202A9F8F7C0FEE2E7000049
:108940000800002018040020103B0408243B040801
:108950004261747443686172676553746172740034
:1089600042617474436861726765456E640000001B
:108970004D75736963506C617965720010B50C4672
:1089800009788EB0022903D06FF002000EB010BD3E
:1089900021690A2902D06FF00100F7E7302302AA0B
:1089A00017A106F001F8BDF82E109DF83000CDE9B2
:1089B00000019DF831309DF835209DF834109DF868
:1089C0003300FCF749FC0F484FF4616100684843ED
:1089D000FBF7C8FBE468FCF777FB2080FCF784FB1F
:1089E000A070FCF7B5FAE070FCF7ECFA6071FCF7E8
:1089F0008BFBA071FCF7ACFBE0710020C6E7000028
:108A0000475053007C0000204FF0FF3102F0D4BBF0
:108A100010B5012186B04802FAF77EF94FF44040C4
:108A2000FAF74AF91E4C2046F9F7F0F86846F9F7CC
:108A300023F900214FF46020CDE902018DF80410E4
:108A4000012000918DF805108DF810006946204630
:108A5000F9F77EF802212046F8F7DCFF01224FF4F7
:108A600008712046F9F76BF84FF0E0214FF48020B1
:108A7000C1F8000101212046F8F7D3FF2046F9F79D
:108A8000E7F82046F9F754F80028FAD12046F9F71C
:108A9000EEF82046F9F734F80028FAD106B010BDF8
:108AA0000024014018B54C09BDF80030D20864F329
:108AB0000203ADF80030C308BDF80000890863F375
:108AC000C70080B262F30C2080B261F34F30ADF882
:108AD000000080B218BD002208B511461046FFF70D
:108AE000E1FF0090BDF8000008BDFF2208B5114667
:108AF0001046FFF7D7FF0090BDF8000008BD00004A
:108B00002DE9FC471BF056F8DFF87882064642460E
:108B100000211DF0A5FA16F0EFFA16F005FB01464C
:108B2000162230461DF0E2FC6FF0150130461DF0B4
:108B3000CDFE0022114630461DF0F5FD33221046D1
:108B40000146FFF7AFFF00900027BDF800103A463E
:108B500030461DF0D7FD4FF480542246992130460F
:108B60001DF0E1FDFFF7B7FF0146224630461DF03C
:108B7000C9FDFFF7B0FF0146224630461DF037FE23
:108B800022460A2130461DF03EFE0097C8237E4A49
:108B90007E497F4801971EF093FE22467C4930466D
:108BA0001DF04AFE7A4C7B48143426601EF0C6FC49
:108BB000FFF79BFF014677481EF067FE764877A1D6
:108BC000FEF7EFFF014673481EF06BFE304618F0CB
:108BD000FBFA0546704875A110308146FEF7E1FFAB
:108BE0000146284619F04AF900230E22072128469B
:108BF0001AF062FC3046656019F0BAFB05460022A7
:108C000064491AF003FC0097052314222846616882
:108C10001AF060FC68A128461AF002F83046A560F8
:108C200018F0D2FA054665A14846FEF7BAFF01469C
:108C3000284619F023F97B1E3222072128461AF014
:108C40003BFC012128461AF0B7FB3046E56019F0DD
:108C50008FFB054600224F491AF0D8FB59A1284640
:108C600019F0DEFF002328461A4609211AF024FCD9
:108C70003046256119F07CFB0546002245491AF073
:108C8000C5FB00236FF03102082128461AF014FCBE
:108C90004EA1284619F0C4FF012128461AF08CFB8A
:108CA0003046656118F090FA054649A14846FEF73E
:108CB00078FF0146284619F0E1F800236FF01D0205
:108CC000082128461AF0F8FBB5F92E20B5F92C102A
:108CD00028461DF00BFC2846A5611AF06BFF0546DF
:108CE000424600211DF0BCF9FFF7FFFE01460022BD
:108CF00028461DF007FD0022FF2128461DF013FD28
:108D00000022FF2128461DF05BFD0021A06900F034
:108D100013F9801F0FFA80F841F201023946A06969
:108D20001CF08BF9001F01B2424628461DF0DEFB05
:108D3000BB1E0022052128461AF0BEFB3046E56125
:108D400019F016FB0546002212491AF05FFB009746
:108D5000052314222846A1691AF0BCFB1EA128464F
:108D600019F05EFF0020256208F0F8FA00224FF4A7
:108D70007A711B481EF0E4FD1EF0BDFE2068BDE8C0
:108D8000FC870000FFFF0F00D5E1010838BA020898
:108D900068050020E4000020DC0500206261686EA8
:108DA000736368726966745F313300007361746560
:108DB0006C6C6974650000003000000073645F63D0
:108DC0006172640030303A30300000000000000072
:108DD00062617474657279003130302500000000E2
:108DE000E58D000870B5344C96B0302306AA31A149
:108DF000606805F0D9FD314DBDF93C2030A1A8686F
:108E000019F048FF0C2312AA2EA1606805F0CCFDD2
:108E10009DF848004FF001010028E86802D01AF0E0
:108E20004CFE01E01AF0C8FA0A2302AA27A16068E2
:108E300005F0BAFD9DF80E309DF80D2025A128699A
:108E400019F028FF042305AA25A1606805F0ACFDF0
:108E50009DF816201AA1286A19F01CFF9DF817002A
:108E6000EE690028207808D0002804D1304600F0B0
:108E70003BF80120207016B070BD48B1002130468B
:108E800015F0FEF8FF21304600F052F80020207067
:108E90000021A86900F050F8801F009000239DF881
:108EA0001600642219461AF012F801B230461DF07D
:108EB000D3FAE0E747505300DC0000207C05002097
:108EC0002564000053746F7261676500436C6F63C3
:108ED0006B000000253032643A2530326400000017
:108EE000506F77657200000010B592B00446684676
:108EF00015F008F90B48CDE900400B480024214645
:108F0000806900F019F8801FCDE908404FF47A70AD
:108F10000A90064803900794684615F0AFF912B01E
:108F200010BD0000011E01087C0500205D8F0008B7
:108F3000C9B200221DF044BC10B541F204021CF07D
:108F40007CF800B210BD10B50468FF212046FFF781
:108F5000EFFF2046BDE81040FFF7C6BF10B592B046
:108F60000446684615F0CEF8206800900C48019041
:108F70000C480390FF200021CDE9080107909DF8DF
:108F80003E10012060F300018DF83E104FF4FA709E
:108F90004142CDE90A01684615F070F912B010BDE2
:108FA000318F0008478F000870B50878032802D079
:108FB0006FF0020070BD0869082802D06FF0010050
:108FC00070BDCD68094C2978606900294FF0010116
:108FD00007D01AF072FD696829B1606919F020FEA6
:108FE00001E01AF0E9F9002070BD00007C050020C6
:108FF0002DE9F0410446B8B02548FEF725F9502385
:1090000020AA24A1204605F0CFFC28A90C46102256
:109010002348F7F794F99DF8C00080B1002021495A
:1090200034AE35AD08701320ADF8D0000020ADF897
:10903000D400214636A817F0CCFC10B11DE0012069
:10904000EDE713270024E846694636A817F0E8FC48
:109050009DF8000060B12F28F6D108F10100F7F764
:109060005BFAB84200DA07B2A042EDDD04B2EBE7EA
:1090700037802C8036A817F09BFC0B4ABDF8D01027
:10908000BDF8D40011800949088038B0BDE8F081EE
:10909000B8040020537973436F6E6669670000005F
:1090A0001E010020180100201A0100201C010020D0
:1090B00038B50A786FF00103022A04D0032A12D0CF
:1090C0006FF0020038BD08690C280FD1CC6801F0A0
:1090D000C7FC207001F0E4FD84ED010A9FED140A45
:1090E00084ED020A22E00A69102A01D0184638BD30
:1090F000C9680A7832B1012A07D0022A09D0032AA6
:1091000014D10FE0FFF774FF10E00A48FEF728F9CA
:109110000CE0887B00908B898A6849680548FEF7D7
:1091200045F803E049680348FEF768F8002038BDB9
:1091300000000000B80400201FB500280AD000205D
:109140008DF8000007F040F910236A4602A1001DC7
:1091500005F087FC1FBD000053746F7261676500E6
:1091600070B59EB014460D46402301AA22A100F01E
:10917000FDF894ED060A022111A805F07FFB0146D7
:10918000284601F039FA11A805F097FB01A911A8AA
:1091900005F03AFB0146284601F09AFA11A805F0BD
:1091A0008CFB94ED040B06211BA805F048FB06463A
:1091B00094ED020B062118A805F041FB044616A108
:1091C00011A805F021FB02462346294615A8009662
:1091D00001F042F911A805F070FB18A805F06DFB2D
:1091E0001BA805F06AFB159800F0E6F815A805F035
:1091F00064FB1EB070BD000025642D253032642D47
:109200002530326454253032643A253032643A25B0
:109210003032645A0000000074726B7074000000F9
:1092200010B5A4B00C4680236A4637A100F09EF822
:10923000032269463E4817F047FC002861D13DA152
:1092400020A805F0E1FA0146204601F0E6F820A842
:1092500005F033FB3BA120A805F0D6FA01462046D5
:1092600001F0D8F820A805F028FB694620A805F0F1
:10927000CBFA0146204601F028FA20A805F01DFB94
:109280002FA120A805F0C0FA0146204601F01AFAE5
:1092900020A805F012FB214620A801F00DFA209825
:1092A00000F08AF820A805F008FB214620A800F06D
:1092B000CFFF209800F080F820A805F0FEFA2146A4
:1092C00020A801F09FF8209800F076F820A805F07B
:1092D000F4FA214620A801F093F9209800F06CF8E8
:1092E00020A805F0EAFA214620A801F0A1F820986C
:1092F00000F062F820A805F0E0FA0D4901200C39D1
:10930000087024B010BD00002F547261636B2F549D
:10931000524B5F256425303264253032645F25303E
:10932000326425303264253032642E677078000054
:109330006C000020582D545241434B2076312E367C
:109340000000000068747470733A2F2F67697468A6
:1093500075622E636F6D2F464153545348494654EE
:109360002F582D545241434B0000000070B588B077
:109370001D4616460C460A2305AA0DA105F014FB4E
:109380009DF817000DF1040C9DF81B309DF81A2074
:109390009DF819108CE80F009DF816000090BDF89C
:1093A000143022462946304608F0A6FD08B070BDAC
:1093B000436C6F636B00000010B50446F6F7CBFFFB
:1093C00021460246BDE810400023014817F0D6BBF5
:1093D0006C00002010B503464FF0FF340A7860009F
:1093E000012A04D0022A10D0032A1FD116E00A69EC
:1093F000302A1AD10E48007828B19868CA68014608
:109400001846FFF7ADFE002410E00A69042A0CD1CB
:10941000C86807490831F8F751F907E00A69042AD2
:1094200003D1C968184600F005F80446204610BD6F
:1094300060000020F0B587B0064600200C4603907F
:109440000490059006902378B16805463BB1204A08
:10945000012B09D0022B09D0032B2CD108E0628804
:109460003046FFF7DDFE26E0107024E00120FBE728
:1094700010700F46684600F0E5FF0098FFF79CFF6C
:10948000684605F01AFA3946684600F0C9FF0098A8
:10949000FFF792FF684605F010FA3946684601F07A
:1094A0001BF90098FFF788FF684605F006FA0848A0
:1094B0000C3017F06DFA20788DF80C00102303AAF9
:1094C00004A1304605F0CDFA07B02846F0BD0000F3
:1094D00060000020547261636B46696C74657200B1
:1094E00070B52DED108BB0EE418AF0EE618AB0EED2
:1094F000409AF0EE609A9FED950B51EC190B53ECEE
:10950000102BF7F797FA04D2B0EE490AF0EE690A89
:1095100005E051EC190B81F0004141EC100B09F012
:10952000B7FB9FED8CAB51EC100B53EC1A2BF7F7FC
:10953000DBF841EC1F0B9FED890B51EC190B53EC41
:10954000102BF7F7D1F853EC182BF7F7CDF841ECC7
:109550001E0B53EC1A2B51EC180BF7F7C5F853EC14
:10956000182BF7F7C1F841EC1D0B9FED7EAB51ECCA
:10957000180B53EC1A2BF7F7B7F841EC1B0B9FEDC8
:109580007BCB51EC190B53EC1C2BF7F7ADF80D46C8
:1095900045EC100B04469FED771B51EC100B53EC80
:1095A000112BF6F7FAFF53EC1B2BF6F7F6FF53ECF3
:1095B0001D2BF6F7F2FF53EC1E2BF6F7EEFF53ECE4
:1095C0001F2BF6F7EAFF41EC1E0B45EC104B9FED0D
:1095D0006BBB51EC100B53EC1B2BF7F785F841ECF0
:1095E000100B09F029FA9FED67DB51EC100B53ECDF
:1095F0001D2BF7F779F841EC1F0B9FED640B51EC35
:10960000190B53EC102BF7F76FF853EC1B2BF7F7F4
:109610006BF841EC100B09F00FFA53EC1D2B51ECD9
:10962000100BF7F761F853EC1F2BF6F7B6FF53EC6E
:109630001C2BF7F759F853EC1A2BF7F7C7F853EC34
:109640001E2BF6F7AAFF41EC1E0B53EC1A2B51EC24
:10965000180BF7F7BBF853EC1B2BF7F745F841EC69
:10966000100B09F0E9F99FED4B1B51EC100B53EC7B
:10967000112BF7F739F841EC190B53EC1B2B51EC7C
:10968000180BF7F731F80D46044645EC100B09F0BE
:10969000D3F953EC1D2B51EC100BF7F725F853ECD5
:1096A000192BF6F77AFF53EC1C2BF7F71DF853EC48
:1096B0001A2BF7F78BF853EC1E2BF6F76EFF45ECE1
:1096C000104B9FED361B41EC190B53EC112B51EC59
:1096D000100BF7F77BF841EC100B09F0ADF99FED9B
:1096E000311B51EC100B53EC112BF6F7FDFF9FEDE6
:1096F0002F0B41EC1D0B53EC102B51EC180BF7F713
:1097000065F853EC1B2BF6F7EFFF41EC100B09F05B
:1097100093F99FED281B51EC100B53EC112BF6F72E
:10972000E3FF53EC1D2BF6F738FF53EC1C2BF6F739
:10973000DBFF53EC1A2BF7F749F853EC192BF6F72C
:109740002CFFBDEC108B41EC100B70BD0000000035
:10975000000000009A9999999999C93F9A99999905
:109760009999B93F00000000000008400000000087
:109770000000004000000000000059C0182D4454B3
:10978000FB21094000000000000034400000000000
:1097900000001840000000000000444000000000ED
:1097A00000003E4000000000000074400000000087
:1097B00000002840000000000000644070B52DED5E
:1097C000108BB0EE419AF0EE619AB0EE408AF0EE66
:1097D000608A9FED910B51EC180B53EC102BF7F7AF
:1097E00029F904D2B0EE480AF0EE680A05E051EC1F
:1097F000180B81F0004141EC100B09F049FA9FED84
:1098000088AB51EC100B53EC1A2BF6F76DFF41ECC3
:109810001B0B53EC1A2B51EC180BF6F765FF0D469A
:1098200045EC100B044653EC192B51EC100BF6F7DA
:109830005BFF45EC104B41EC1D0B53EC182B51EC2E
:10984000100BF6F751FF41EC1C0B9FED77AB51EC81
:10985000190B53EC1A2BF6F747FF41EC190B9FED50
:1098600074EB51EC180B53EC1E2BF6F796FE53ECF1
:10987000192BF6F792FE53EC1C2BF6F78EFE53ECE9
:109880001D2BF6F78AFE53EC1B2BF6F786FE41ECF8
:109890001D0B53EC1A2B51EC180BF6F725FF9FED1F
:1098A000669B53EC192BF6F71FFF41EC100B09F0E8
:1098B000C3F89FED63CB51EC100B53EC1C2BF6F768
:1098C00013FF41EC1B0B9FED600B51EC180B53EC9D
:1098D000102BF6F709FF53EC192BF6F705FF41ECB7
:1098E000100B09F0A9F853EC1C2B51EC100BF6F7F8
:1098F000FBFE53EC1B2BF6F750FE53EC1A2BF6F73E
:10990000F3FE9FED53BB53EC1B2BF6F75FFF53ECBD
:109910001D2BF6F742FE41EC1F0B53EC1B2B51ECB9
:10992000180BF6F753FF53EC192BF6F7DDFE41EC5D
:10993000100B09F081F89FED481B51EC100B53EC14
:10994000112BF6F7D1FE41EC1D0B53EC192B51EC0A
:10995000180BF6F7C9FE41EC100B09F06DF853EC4B
:109960001C2B51EC100BF6F7BFFE53EC1D2BF6F73A
:1099700014FE53EC1A2BF6F7B7FE53EC1B2BF6F73D
:1099800025FF53EC1F2BF6F708FE9FED350B41EC3E
:109990001C0B53EC102B51EC180BF6F717FF53EC84
:1099A000192BF6F7A1FE41EC100B09F045F853EC2A
:1099B0001E2B51EC100BF6F797FE9FED2B0B41EC95
:1099C0001D0B53EC102B51EC180BF6F7FFFE53EC6C
:1099D000192BF6F789FE41EC100B09F02DF89FEDDD
:1099E000241B51EC100B53EC112BF6F77DFE53ECBE
:1099F0001D2BF6F7D2FD53EC1A2BF6F775FE53EC40
:109A00001B2BF6F7E3FE53EC1C2BF6F7C6FDBDEC63
:109A1000108B41EC100B70BD000000000000000036
:109A20009A9999999999B93F000000000000004067
:109A30000000000000C07240182D4454FB21094072
:109A4000000000000000344000000000000018404A
:109A5000000000000000084000000000000044403A
:109A60000000000000003E40000000000000284010
:109A70000000000000C0624070B505461EF0FEFE0A
:109A8000134CA168401AB0F57A7F02D94FF4FA60FE
:109A900014E0002D03DD608800F1640003E003DAC8
:109AA0006088A0F1640060806088642801D264202E
:109AB00004E044F62061884200D9084660801EF028
:109AC000DDFEA0606088BDE87040052101F074BB38
:109AD0009801002010B5084801290BD0062908D0AC
:109AE000032908D105A001F0A9F8BDE8104001F054
:109AF00095B80021417010BD98010020536875741D
:109B0000646F776E0000000010B50A4C2078617811
:109B100088430ED015200EF09BF838B10120616803
:109B200001446160BDE81040FFF7A6BF4FF0FF3071
:109B3000F5E710BD98010020F0B589B00025144963
:109B4000044602468DF8005001260F468DF801505C
:109B50002B46684605F04EFCB0B922460DA11548CB
:109B600004F0D6FC8DF80050224601238DF80150F8
:109B70003946684605F0CDFD060001D00EA100E093
:109B80000FA10C4804F0D8FC09B03046F0BD00002D
:109B9000600B002053443A204175746F2063726556
:109BA000617465207061746820222573222E2E2E28
:109BB0000000000010FC022073756363657373007E
:109BC0006661696C656400003EB505460C466846F2
:109BD00000F0ACFFBDF800209DF8021052024423B3
:109BE0009DF8030002EB432242EA411202432A801D
:109BF0009DF805209DF806009DF80710D20242EA64
:109C0000401040EA510020803EBD000010B50B4CD2
:109C100068B101F0E7F828B1A16809B101208847CF
:109C200007A000E00AA0BDE8104001F007B800203E
:109C30002070A16801B1884707A0F4E780010020E7
:109C4000446576696365496E73657274000000004F
:109C50004572726F720000004465766963655075E5
:109C60006C6C6F757400000018B54C09BDF80030BD
:109C7000D20864F30203ADF80030C308BDF8000059
:109C8000890863F3C70080B262F30C2080B261F3ED
:109C90004F30ADF8000080B218BD002208B5114663
:109CA0001046FFF7E1FF0090BDF8000008BDFF225D
:109CB00008B511461046FFF7D7FF0090BDF8000029
:109CC00008BD10B541F201021BF0B7F900B210BD9A
:109CD000014A00211CF0C4B9FFFF0F0018B54C0960
:109CE000BDF80030D20864F30203ADF80030C308B9
:109CF000BDF80000890863F3C70080B262F30C204E
:109D000080B261F34F30ADF8000080B218BD00237F
:109D10001A46092119F0D0BB2DE9F0411F469046A3
:109D20000D00064601D00C4600E040241EB9204636
:109D300008F09EF806463B464246214608F008F9E0
:109D4000002802DA0020307010E0844202DA00F1CC
:109D5000010402E00AD14FEA44041DB14FF00000B3
:109D6000BDE8F081304608F07BF8E0E73046F7E7E1
:109D70002DE9FF4F484D002789B028689B46924641
:109D8000002857D145A0002000BF040001D105F1F3
:109D90000C0420463A21F6F709FB68B13E4A00F868
:109DA000017B121D40A1F7F7B9F8012802D16868BC
:109DB000002801DC012068603C49142089460846DF
:109DC00000BF06001BD04FF40070C6E901073848F9
:109DD000F760306006F1100807A8AFF30080024674
:109DE000344904A820F096FE0146404620F0B6FE15
:109DF000A0F1100604A820F0D0FE2F4830602B4EB2
:109E000006A8AFF3008002462146684620F082FE95
:109E1000074601A807F086FF024630683946C36846
:109E200030469847A86001A807F08CFF684620F0EC
:109E3000B4FE2C60AC68601C26D06F680DF1080879
:109E40001A4E554605A8AFF30080024615A103A897
:109E500020F060FECDE9005030683B46224605699F
:109E600031464046A84703A820F097FE029A52F8D0
:109E7000040C60B1DDE909015B46FFF74DFF0446C4
:109E800002A820F08AFE20460DB0BDE8F08F02A89F
:109E900020F083FE0020F7E7FC02002052575354C5
:109EA000444552520000000025640000B801032020
:109EB000383B04089F3C0408C83B040810B50869F7
:109EC000502802D06FF0010010BDC868097802293F
:109ED0000BD0032902D06FF0020010BD007840B90A
:109EE0000548407800F088FE03E050220249F7F769
:109EF000E5FB002010BD00008000002010B5484A9E
:109F000048A14C48FDF731FE4B4A4CA14948FDF7AA
:109F10002CFE4E4A4EA14748FDF727FE504A51A15C
:109F20004448FDF722FE534A53A14248FDF71DFE67
:109F30004048544A103054A10446FDF716FE544AD6
:109F400054A12046FDF711FE544A55A12046FDF7C5
:109F50000CFE574A57A12046FDF707FE574A58A165
:109F60002046FDF702FE584A58A12046FDF7FDFDA8
:109F70005B4A5CA12046FDF7F8FD5E4A5EA12046E3
:109F8000FDF7F3FD604A61A12046FDF7EEFD614A51
:109F900061A12046FDF7E9FD624A63A12046FDF775
:109FA000E4FD634A63A12046FDF7DFFD654A66A133
:109FB0002046FDF7DAFD664A66A12046FDF7D5FD8D
:109FC000684A69A12046FDF7D0FD694A69A120468B
:109FD000FDF7CBFD6A4A6BA12046FDF7C6FD6B4A33
:109FE0006BA12046FDF7C1FD6B4A6CA12046FDF731
:109FF000BCFD6C4A6CA12046FDF7B7FD6C4A6DA113
:10A000002046FDF7B2FD6E4A6EA12046FDF7ADFD7C
:10A010002046BDE810406E4A6EA1FDF7A6BD0000C7
:10A02000E4D102086261686E736368726966745F86
:10A0300031330000DC05002078ED02086261686EB3
:10A04000736368726966745F313700005CF50208FB
:10A050006261686E736368726966745F33320000B0
:10A06000D81003086261686E736368726966745F12
:10A0700036350000B81603086167656E6379625F64
:10A08000333600005C2B0308616C61726D000000C8
:10A09000D02C03086261747465727900604C030807
:10A0A000626174746572795F696E666F00000000AA
:10A0B000F457030862696379636C650030670308CD
:10A0C000636F6D7061737300341F03086770735F93
:10A0D0006172726F775F64656661756C7400000011
:10A0E000681B03086770735F6172726F775F6461EA
:10A0F000726B0000D82303086770735F6172726F20
:10A10000775F6C6967687400202703086770735F66
:10A1100070696E00887803086779726F73636F7077
:10A1200065000000642F03086C6F636174650000B4
:10A130009C8803086D61705F6C6F636174696F6EFA
:10A1400000000000103203086D656E75000000000D
:10A15000883303086F726967696E5F706F696E7428
:10A1600000000000443C0308706175736500000046
:10A1700090350308736174656C6C69746500000048
:10A18000A0B6030873645F63617264009C3E0308B9
:10A1900073746172740000004C37030873746F703D
:10A1A000000000009496030873746F726167650085
:10A1B000D0A5030873797374656D5F696E666F006F
:10A1C0000CB5030874696D655F696E666F00000009
:10A1D000883A0308747269700000000008B5C2B2C2
:10A1E000C0F30721C0F3074000F004F80090BDF869
:10A1F000000008BD18B54C09BDF80030D20864F362
:10A200000203ADF80030C308BDF80000890863F30D
:10A21000C70080B262F30C2080B261F34F30ADF81A
:10A22000000080B218BDFF2208B511461046FFF7A6
:10A23000E1FF0090BDF8000008BD0000014A0021C8
:10A240001BF00EBFFFFF0F0008B200F05BBD000067
:10A2500070B50C4690B05AA104F0D6FA0546A06835
:10A26000002848D059A103A804F0CEFA0646294692
:10A270006846FDF7B7FC314607F024FE0146284644
:10A2800004F033FB684604F018FB03A804F015FB48
:10A2900021460CA804F0C8FA0246214603A800F0A3
:10A2A00023FA29466846FDF79DFC03A907F00AFE3C
:10A2B0000146284604F019FB684604F0FEFA03A89C
:10A2C00004F0FBFA0CA804F0F8FA42A10CA804F080
:10A2D0009BFA064629466846FDF784FC314607F09E
:10A2E000F1FD0146284604F000FB684604F0E5FA5B
:10A2F0000CA804F0E2FA6069002849D038A103A84C
:10A3000004F082FA064629466846FDF76BFC3146A2
:10A3100007F0D8FD0146284604F0E7FA684604F045
:10A32000CCFA03A804F0C9FA04F10C010DA804F05A
:10A330007BFA0246214603A800F0D6F92946684672
:10A34000FDF750FC03A907F0BDFD0146284604F0C7
:10A35000CCFA684604F0B1FA03A804F0AEFA0DA8EE
:10A3600004F0ABFA20A10DA804F04EFA04462946E9
:10A370006846FDF737FC214607F0A4FD0146284654
:10A3800004F0B3FA684604F098FA0DA804F095FAC0
:10A3900018A109A804F038FA0446294606A8FDF7D2
:10A3A00021FC214607F08EFD0146284604F09DFA67
:10A3B00006A804F082FA09A804F07FFA10B070BD74
:10A3C0003C6D657461646174613E00003C6E616D5A
:10A3D000653E00003C2F6E616D653E0A0000000086
:10A3E0003C646573633E00003C2F646573633E0A02
:10A3F000000000003C2F6D657461646174613E0A69
:10A400000000000001A104F0FFB900003C74726B71
:10A410003E0000000C3004F068BA04F066BA000098
:10A4200001A104F0F1B900003C2F74726B3E0A00E8
:10A4300001A104F0E9B900003C74726B7365673EDA
:10A440000000000001A104F0DFB900003C2F74728D
:10A450006B7365673E0A00002DE9F04190B00C4631
:10A460001E46174648A1169D04F0CEF9804649A124
:10A47000684604F0C9F901463A46404604F02AF914
:10A48000684604F01AFA294603A8FDF7ABFB43A17E
:10A4900007F006FD0146404604F03EFA03A804F02A
:10A4A0000CFA314603A8FDF79DFB3EA107F0F8FC2E
:10A4B0000146404604F030FA03A804F0FEF9A06B10
:10A4C00060B139A1404604F021FA04F13001404660
:10A4D00004F022FA36A1404604F018FAE06D60B1AB
:10A4E00035A1404604F012FA04F15401404604F04C
:10A4F00013FA33A1404604F009FA606C60B133A14D
:10A50000404604F003FA04F13C01404604F004FA2A
:10A5100030A1404604F0FAF9206DD8B12FA1404691
:10A5200004F0F4F904F148010CA804F07DF90246A6
:10A53000214609A800F0D8F809A9404604F0ECF932
:10A5400009A804F0BAF90CA804F0B7F925A140460F
:10A5500004F0DCF925A106A804F056F90DA168461F
:10A5600004F052F901463A4606A804F0B3F86846EA
:10A5700004F0A3F906A9404604F0CEF906A804F0B9
:10A580009CF910B0BDE8F0813C54595045206C61F5
:10A59000743D2200545950450000000022206C6F89
:10A5A0006E3D2200223E00003C656C653E000000CE
:10A5B0003C2F656C653E0A003C74696D653E000089
:10A5C0003C2F74696D653E0A000000003C73796D94
:10A5D0003E0000003C2F73796D3E0A003C737263AD
:10A5E0003E0000003C2F7372633E0A003C2F54591A
:10A5F00050453E0A00000000303004F076B90000FB
:10A6000030B50C4687B021A104F0FEF80546206A5B
:10A61000D8B11FA1284604F079F904F1180103A864
:10A6200004F002F902462146684600F05DF86946EA
:10A63000284604F071F9684604F03FF903A804F0D5
:10A640003CF915A1284604F061F9E06A00281BD006
:10A6500014A1284604F05AF904F1240103A804F0D7
:10A66000E3F802462146684600F03EF8694628466F
:10A6700004F052F9684604F020F903A804F01DF92B
:10A680000AA1284604F042F907B030BD00000000DE
:10A690003C6E616D653E00003C2F6E616D653E0A4B
:10A6A000000000003C646573633E00003C2F64655D
:10A6B00073633E0A00000000014904F0A5B80000E1
:10A6C000DC3C0408243004F010B9183004F00DB953
:10A6D000543004F00AB9000001A104F095B800005C
:10A6E0003C2F6770783E0A0070B5144605A104F04F
:10A6F0008BF80546214604F00FF905A1284604F021
:10A7000005F970BD3C215B43444154415B000000AE
:10A710005D5D3E0010B510A104F076F80EA10C307E
:10A7200004F072F80CA10C3004F06EF80AA10C30A1
:10A7300004F06AF808A10C3004F066F806A10C30A9
:10A7400004F062F804A10C3004F05EF802A10C30B1
:10A7500004F05AF8543810BD0000000010B5543011
:10A7600004F0ABF80C3804F0A8F80C3804F0A5F8A5
:10A770000C3804F0A2F80C3804F09FF80C3804F000
:10A780009CF80C3804F099F8BDE810400C3804F03F
:10A7900094B800000249014808617047098A00081E
:10A7A000CC0B002000B589B0F8F756FC05A800F0E6
:10A7B000BDF99DF8180000F0BFFA9DF819309DF81A
:10A7C0001B209DF81A10CDE90103CDE903129DF875
:10A7D000170000909DF81630BDF8142002A10D4816
:10A7E00003F096FE09B000BD436C6F636B3A202501
:10A7F0003034642D253032642D25303264202573A9
:10A8000020253032643A253032643A253032640DE6
:10A810000A00000010FC022010B506E00648FCF714
:10A82000DCFBC1B20548FCF749F80348FCF785FC9E
:10A830000028F3DC10BD00002CFE02203C060020A6
:10A8400010B51EF01BF8144C2168401AB0F5FA7FC1
:10A8500004D300F0C7FC1EF011F820601EF00EF8C3
:10A860006168401AB0F57A7F06D300F017F800F05F
:10A8700031F81EF003F860601EF000F8A168401A7D
:10A88000C82804D3FFF7C8FF1DF0F8FFA060BDE89B
:10A89000104000F045BA00005C01002000B587B010
:10A8A0000DF11600021F05A9CDE9002103AA0290AF
:10A8B000131D03A906488A1C05F064FA044805F034
:10A8C0008EFAADF8180003A805F06CFD07B000BDC6
:10A8D000680100201CB5084805F0C6F90648018843
:10A8E000ADF800104188ADF802108088ADF8040082
:10A8F000684605F05FFD1CBD1407002010B513A1CC
:10A90000174803F019FE05210C201EF055F8002110
:10A910000C200DF0ADF94FF47A700DF06FF90121B4
:10A920000C200DF0A5F90FA10D4803F005FEFEF770
:10A930006FF8032101201EF03FF801210B201EF0CB
:10A940003BF8BDE81040002000F046BA506F776534
:10A95000723A2057616974696E672E2E2E000000CE
:10A9600010FC0220506F7765723A204F4E000000B5
:10A9700070B504462DED028B3021F5F7B7FC334856
:10A98000007804F8100B3148FDF764F904ED020B70
:10A990002E48FDF735F92D4884ED000B002580F891
:10A9A0007950D0F88000F5F7A4FF9FED298B53EC88
:10A9B000182BF5F70BFFF6F755F8A060234880F841
:10A9C0005950006EF5F795FF9FED231B53EC112BAB
:10A9D000F5F78AFE53EC182BF5F7F8FEF6F742F878
:10A9E00020611A4880F86950006FF5F782FF53EC38
:10A9F000182BF5F7EBFEF6F735F8E0601348383022
:10AA00000646FBF7C9FCE0823046FBF7D1FC207616
:10AA10003046FBF7B8FC60760C4848300646FBF73A
:10AA2000EFFFE0763046FCF700F820773046FCF781
:10AA300009F86077054880F88950B0F89000A08246
:10AA400014F8100CBDEC028B70BD00003C06002019
:10AA500000000000000059406F1283C0CAA1FD3FF2
:10AA600001480078704700008001002010B51DF0FB
:10AA700005FF0146BDE810400148FAF7EEBE0000B0
:10AA8000CC0B002010B5012114201DF095FF0121F1
:10AA900015201DF091FF012113201DF08DFF0C22C8
:10AAA000044914200CF02CF8BDE81040024903487A
:10AAB000FAF717BF099B0008D59A0008AC0B0020D5
:10AAC00070B51DF0DBFE164C2169401AB0F57A7F97
:10AAD0000ED31448144D0423C17F01222846F7F7F2
:10AAE0005BF801212846F7F7B8F81DF0C7FE206192
:10AAF0002078002812D0608800280FD01DF0BEFEFC
:10AB0000A168401A618801EB4102C2EBC111B0EBB0
:10AB1000C10F03D3BDE8704000F080B870BD0000E5
:10AB20006C010020DC2E04080024014010B504460E
:10AB3000F8F7F6F90848818821808179A170C179F8
:10AB4000E170017A2171017861714178A171807899
:10AB5000E0710020208110BDA80103201CB5C2793E
:10AB60008179CDE900124379C27881780088F8F7BD
:10AB7000BDFA1CBDF8B50546174840F6E44600236B
:10AB8000009640F6FF72194680881DF06DFB440068
:10AB9000B44201DA344604E041F26800844200DD48
:10ABA000044664200090002341F20402314620460E
:10ABB0001DF05AFB002801DA002002E0642800DDC5
:10ABC0006420A8700B200DF043F818B10020E87045
:10ABD0002C80F8BD0120FAE76C01002010B544F686
:10ABE00020624FF47A711120F7F7FAFFBDE81040A8
:10ABF000002000F087B8000001490870704700008D
:10AC00009401002010B500F051F80146BDE8104055
:10AC10000148FAF768BE0000AC0B002010B54FF4F5
:10AC2000FA71002000F0A2F800210C200DF020F8AD
:10AC300001490120487010BD6C0100202DE9F04150
:10AC40000025114E07462C4604EB440006EB80001D
:10AC500081683846F5F786FB28B1641C0B2CF3D3CA
:10AC60002846BDE8F08104EB4400084D56F820105A
:10AC700006EB800082882846FAF725FE2846FAF778
:10AC8000E9FD0125ECE7000068C00308CC0B0020BB
:10AC90000249486800224A6070470000980100207D
:10ACA000014890ED010A704780010020064810B568
:10ACB0000078002804D013200CF0CAFF08B100204F
:10ACC00010BD012010BD000098010020014908704E
:10ACD000704700009801002010B50446052111209E
:10ACE0001DF06AFE2146BDE8104011200CF0C0BFE7
:10ACF000034890F81E11D0F814011EF0BBBB0000F1
:10AD0000DC2E0408002801DA002004E04FF47A71F8
:10AD1000884200DD084681B211200BF007BE00001A
:10AD200004484178002903D0C068002800D00047BB
:10AD3000704700006C01002010B588B004461C224A
:10AD400005496846F6F7BAFC072C03D25DF82400E3
:10AD500008B010BD01A0FBE780BF030800000000A1
:10AD600001498860704700008001002030B591B033
:10AD700005460C46684613F0C5F907480190FFF7F1
:10AD8000B7FFCDE908050790044806900A94684685
:10AD900013F074FA11B030BD49A20008D5E10108E2
:10ADA000B0EE412AF0EE612AB0EE403AF0EE603AA1
:10ADB00090ED021B90ED040BFBF778BB10B51DF076
:10ADC0005DFD0149886010BD6C0100200149C8602B
:10ADD000704700006C01002001490870FFF7EEBFCA
:10ADE0006C0100203EB5012108201DF0E5FD082082
:10ADF0000CF02EFF18B119A11F4803F09DFB012490
:10AE0000002164F30F0061F31740CDE900500B46B9
:10AE10001A4A1C2102961A4803F0AEFB194D040091
:10AE200014D0194806F020F800EE100ADFED170ADA
:10AE30001849B8EE400A164820EE200A85ED010AAE
:10AE4000086015A0FEF778FE15A100E019A10A48D8
:10AE500003F072FB2C7020463EBD000053443A20A4
:10AE60004341524420776173206E6F7420696E7382
:10AE7000657274656400000010FC022080C3C90183
:10AE80002407002080010020840B0020BD37063AF3
:10AE9000C99B0008B0020020547261636B0000007F
:10AEA00053443A20496E6974207375636365737304
:10AEB0000000000053443A2043415244204552527E
:10AEC0004F52000010B54FF416510848FCF797F8A0
:10AED00007A10E4803F0F0FA0D490C4803F0ECFA14
:10AEE000BDE810400BA1094803F026BB2CFE022050
:10AEF0004750533A2054696E794750532B2B206C9E
:10AF000069627261727920762E20000010FC0220A6
:10AF1000F43B0408206279204D696B616C20486124
:10AF20007274000010B54FF4E1311B48FCF767F86C
:10AF30001AA1194803F000FB1AA1174803F0FCFA04
:10AF40001CA1154803F0F8FA1FA1134803F0F4FA06
:10AF5000FFF7D4FCFFF742FEFFF794FDFFF722FC5A
:10AF600000F03CF9FFF7AEFF012000F049F800F0D7
:10AF7000D3F800F0F7F8FFF70DFCFFF733FF1F4C95
:10AF80001D4A42F210712046F8F752FE2046BDE8F5
:10AF900010400121F8F722BC10FC0220582D545219
:10AFA00041434B0056657273696F6E3A2076312EBD
:10AFB00036000000417574686F723A205F5649464A
:10AFC000455854656368000050726F6A6563743A4F
:10AFD0002068747470733A2F2F6769746875622ED5
:10AFE000636F6D2F4641535453484946542F582D93
:10AFF000545241434B0000002B87000800080040DA
:10B0000070B504460021234805F009F9002C3FD013
:10B0100021A1274803F090FA0025012421461D486C
:10B0200005F039FC1B4805F026FC10B1042815D0AA
:10B0300023E020A11E4803F03FFA102C03D225A1E3
:10B040001B4803F039FA10222146194803F03AFA56
:10B0500021A1174803F070FA6D1C0EE01FA11448DF
:10B0600003F02AFA102C03D21AA1114803F024FA93
:10B07000102221460E4803F069FA641CE4B27F2CCA
:10B08000CCD32A46BDE870401CA1094803F040BA61
:10B0900070BD00009C0003204932433A206465766D
:10B0A000696365207363616E6E696E672E2E2E0074
:10B0B00010FC02204932433A2064657669636520BA
:10B0C000666F756E64206174206164647265737369
:10B0D0002030780030000000202100004932433A3F
:10B0E00020756E6B6E6F77206572726F722061745F
:10B0F0002061646472657373203078004932433A8A
:10B100002025642064657669636573207761732008
:10B11000666F756E640D0A0010B508A10B4803F048
:10B12000CBF96A210A4804F0C4FE08B109A100E085
:10B130000AA1BDE81040054803F0FEB9494D553A53
:10B1400020696E69742E2E2E0000000010FC022073
:10B150006801002073756363657373006661696CD1
:10B160006564000010B50AA10D4803F0A5F902229C
:10B1700001210C4804F044FD08B10BA100E00CA132
:10B18000074803F0D9F9BDE81040064804F01CBD9B
:10B190004D41473A20696E69742E2E2E0000000042
:10B1A00010FC02201407002073756363657373003D
:10B1B0006661696C65640000074A1278002A0AD04B
:10B1C000002904DB0A4601460020F9F759BF014671
:10B1D0000020F9F7FFBE70479401002005210020F0
:10B1E0001DF0EABB70B508200CF032FD28B1002438
:10B1F0000C4D287BC00702D00BE00124F8E709487A
:10B200000C3006F055FF20B106482C610C30AFF32E
:10B2100000802869A04203D02046FEF7F7FC2C618D
:10B2200070BD00008001002010B50878032802D00E
:10B230006FF0020010BD0869042802D06FF0010011
:10B2400010BDC8680068FFF7F9FC002010BD0000C1
:10B2500070B5254C05462DED048BB0EE409AF0EE0E
:10B26000609A94EC040BFFF79BFDB0EE408AF0EE81
:10B27000608A95ED020B53EC192B84ED000B95EDD4
:10B28000040B51EC180B84ED020BF5F727FA0D4671
:10B2900045EC100B9FED151B044653EC112B51ECA4
:10B2A000100BF5F7C7FB02D245EC104B07E053EC4F
:10B2B000182B51EC190BF5F711FA41EC100B9FED1F
:10B2C0000D1B51EC100B53EC112BF5F79BFB03D32B
:10B2D000B0EE498AF0EE698AB0EE480AF0EE680AEC
:10B2E000BDEC048B70BD00001800002000000000C1
:10B2F00000000000000000000000594010B50A786E
:10B30000042A04D0022A05D06FF0020010BD00F01C
:10B310000FF809E00A69382A02D06FF0010010BD69
:10B32000C8680249F6F7CAF9002010BD28000020BD
:10B3300070B506462DED048B8CB030236A464BA1C8
:10B3400003F032FB4A4C206805F03CF805469FEDBF
:10B35000490ABDF92400B0EE408A032808DB9DEDC0
:10B36000088A18EE100AB0F17E5F01DCB0EE408A68
:10B37000B5EEC08AF1EE10FA66DD00EE105ADFED90
:10B380003E9ADFED3E8AB8EE400AC8EE290AD4E9BB
:10B390000A21002052194141C4E90A21D4E90621B9
:10B3A00052194141C4E9062160EE800A80EEA80AE4
:10B3B00010EE100AF5F713FB41EC100B6846FFF78F
:10B3C00047FF51EC100BF5F74DFB00EE100AD4EDE2
:10B3D0000C0A30EE809A84ED0C9AD4ED080A30EE17
:10B3E000800A84ED080A94ED030AB4EEC80AF1EE6F
:10B3F00010FA01D284ED038AD4E90A01F5F76BFA59
:10B4000029EE281A00EE900A81EE200ADFED1C0AD0
:10B410009FED1C1A20EE290A84ED040A94ED010A1E
:10B4200020EE080A60EE200A00EE105AB8EE400A3C
:10B4300020EE800AC0EE280A80EE810AD4ED0D0AC3
:10B4400030EE800A84ED0D0A84ED028A04F0C0FF1C
:10B45000206038220649304603F0EBFA304603F00C
:10B460002EFB0CB0BDEC048B70BD000047505300A8
:10B4700028000020000000006666664000007A4454
:10B480006666863F0000614570B503460A78184C31
:10B4900008694FF0FF36012A01D1302804D0102866
:10B4A0000AD06FF0010070BD607818B1C968184605
:10B4B00000F04CF8002070BD022A02D0032A14D1FB
:10B4C0000EE0CD68A0681FF07EF908B1A0680068A2
:10B4D0006860A0681FF077F9A8602078287304E0FE
:10B4E000C968184600F006F80646304670BD0000F0
:10B4F000D00000207FB500260978124C012539B113
:10B50000002001290AD002290AD0032917D109E015
:10B510000D48FCF779FC6570257010E060700EE056
:10B5200065700CE02070607003A968461FF0BAFED9
:10B530006946A0681FF0A9FE68461FF0B8FE04B077
:10B54000304670BDD000002010050020F0B587B057
:10B550000C4691ED041B91ED020B01AA69461B48B4
:10B5600004F0AAFD194F00983837F5F7C2F90546DF
:10B570000E460198F5F7BDF9CDE90401CDE9025673
:10B5800002A93846FCF788FD002819D094ED020B7B
:10B5900051EC100BF5F766FA029094ED040B51ECA8
:10B5A000100BF5F75FFA0390094802AA8068D0E90A
:10B5B0000113994206D00831416008391EF010F994
:10B5C00007B0F0BD1FF0FCFDFAE70000D804002032
:10B5D000D000002008B5C2B2C0F30721C0F3074075
:10B5E00000F004F80090BDF8000008BD18B54C0943
:10B5F000BDF80030D20864F30203ADF80030C30890
:10B60000BDF80000890863F3C70080B262F30C2024
:10B6100080B261F34F30ADF8000080B218BD002257
:10B6200008B511461046FFF7E1FF0090BDF8000095
:10B6300008BDFF2208B511461046FFF7D7FF00905E
:10B64000BDF8000008BD00002DE9F0410546164692
:10B65000084618F0AFFA0746FEF73AFBB000EF6174
:10B6600017F048FCC5E90906002409E0384615F042
:10B67000ABFD8046FEF72CFB696A41F82480641C10
:10B68000B442F3D33946284600F056FA384615F04E
:10B690009BFD044609A10D48FBF75EFC01462046D0
:10B6A00016F0ECFBE18DA08D49420AB2404201B296
:10B6B00020461AF0FCFE2C62BDE8F0816770735FD3
:10B6C0006172726F775F6461726B0000DC0500204D
:10B6D0002DE9F0471646D0F828808146B8FBF6F0F1
:10B6E0000D466843714302B209B2D9F81C001AF042
:10B6F000FDFE00242FB216E0D9F824003A46114688
:10B7000050F8240082461AF0F1FEB4FBF6F006FB76
:10B710001040684301B2B4FBF6F0684302B25046F1
:10B720001AF0C5FE641C4445E6D3BDE8F08770B549
:10B730000446D4E90F02904213D013461546014641
:10B7400003E053F8046B41F8046BAB42F9D1236C6E
:10B7500000E0091D9942FCD1101A20F00300181ACC
:10B76000206400221146E06A17F0A6FB206BBDE8BA
:10B7700070400022114617F09FBB000038B5044608
:10B78000001D1BF0DBFEFEF788FA0146201D1BF0B2
:10B79000C2FF9921201D1BF0C9FF0621201D1CF0AE
:10B7A00060F80A21201D1CF06BF8FEF776FA0146BE
:10B7B000201D1CF05AF804F10C0005461BF0BEFEDB
:10B7C00015A11948FBF7C6FB014628461CF069F88D
:10B7D000FEF76DFA014628461CF057F804F11400F4
:10B7E00004461BF0ABFE1E229321FF20FEF73CFA1D
:10B7F0000090BDF8001020461BF0B0FF0521204648
:10B800001BF0BFFFFF2120461BF0B3FF2046BDE821
:10B81000384001211BF0B1BF6261686E73636872CA
:10B820006966745F31370000DC05002030B589B0EF
:10B8300005460B460AA22021684606F05DFB6946D4
:10B840000B48FBF789FB040003D10AA10848FBF76A
:10B8500083FB2146286A16F011FB09B030BD0000B9
:10B860006770735F6172726F775F2573000000000D
:10B87000DC0500206770735F6172726F775F6465CB
:10B880006661756C7400000008B5ADF80010ADF885
:10B890000220D0E910133C306A46994206D0091DB7
:10B8A0004160091F01D00098086008BD1FF0A7FB88
:10B8B00008BD00002DE9F84305461F46904689461D
:10B8C0000846089E15F080FC0446414616F0D6FA5C
:10B8D000334600220221204617F0EEFD484616F0BE
:10B8E00047FD064609A117F09BF9002205F10C015E
:10B8F000304617F08BFD002000903B461422214675
:10B90000304617F0E7FD3046BDE8F8832D2D0000E6
:10B910002DE9FC4104460F46084618F04BF9054650
:10B92000FEF7D6F90022211D284617F06FFD0022F0
:10B93000FF2128461AF044FF1E22322128461AF021
:10B94000D5FD00213846FEF7BCF906460021284601
:10B95000FEF7B7F9301A401D01B2282228461AF026
:10B96000A6FD0026A5640096C823234A234924483F
:10B9700001961BF0A5FF00213846FEF7A2F901460B
:10B980004FF480573A4628461AF061FF3A460021A4
:10B9900028461AF015FF3946284617F030FD3A467A
:10B9A000174928461AF048FF0022154928461AF080
:10B9B00043FF284616F0DCFC0746002204F10C0188
:10B9C00017F024FD00239A1E0921384617F074FD54
:10B9D0000CA1384617F024F92846E7641BF000FB59
:10B9E0000546FEF775F928460F21324612F04DFF45
:10B9F0002565BDE8FC810000D5E1010898BB02087F
:10BA0000B40500202D2D0000F8B50446084618F0B6
:10BA1000D1F80546FEF75CF90022211D284617F0F3
:10BA2000F5FC42229F2128461AF060FD0A235F425E
:10BA30003A460421284617F03FFD00220A212846F5
:10BA40001AF0D0FE2846A56516F092FC06462AA1FB
:10BA500017F0E6F829A12D48FBF77CFA01460022F1
:10BA600030461AF0E3FEFEF722F901460022304686
:10BA70001AF0CFFE3B4614220721304617F01CFD7A
:10BA80002846E66516F074FC064621A117F0C8F8B2
:10BA900021A11E48FBF75EFA0146002230461AF04B
:10BAA000C5FEFEF704F90146002230461AF0B1FE49
:10BAB0000320009000230E223046E16D17F00AFDAE
:10BAC00019A11248FBF748FA02460A200090052304
:10BAD00029462046FFF7EEFE206615A10B48FBF72E
:10BAE0003BFA02461E200090052329462046FFF718
:10BAF000E1FE6066F8BD0000303000006261686EF3
:10BB0000736368726966745F33320000DC0500207D
:10BB10006B6D2F68000000006261686E736368726D
:10BB20006966745F31330000747269700000000050
:10BB3000616C61726D0000002DE9F04104460F4612
:10BB4000084617F0F1F80546FEF7C2F804F11401B3
:10BB500000220E46284617F059FC3846E56217F0D9
:10BB6000E3F80546FEF7B4F800223146284617F000
:10BB70004DFC2563BDE8F0812DE9F04104463C30E1
:10BB800015460E4607461EF015FE38B138461EF023
:10BB900011FE82B2E16BE06A17F08EF9206C04F1BD
:10BBA0003401022250F8040C606326876587206BFD
:10BBB000BDE8F04117F080B92DE9F0410546174680
:10BBC0000E460846FEF784F813F096FA13F0E8FAEA
:10BBD000044613F091FA13F0A7FA014622463046C4
:10BBE0001AF084FCFEF763F80146002230461AF092
:10BBF00089FD0022FF2130461AF095FD304616F0EF
:10BC0000B7FB002304461A46092117F055FC10A182
:10BC10001348FBF79FF90146002220461AF006FE62
:10BC200010A1204616F0FCFF28462C60FFF7A6FD69
:10BC30003A4631462846FFF707FD31462846FFF7CA
:10BC400067FE31462846BDE8F041FFF7DDBE000043
:10BC50006261686E736368726966745F3137000091
:10BC6000DC0500204C4F4144494E472E2E2E00004B
:10BC70003EB50446406A002510B117F0C5F965626B
:10BC800000950195694604F13C0002951FF018FAF1
:10BC9000201D1BF02EFD04F10C001BF02AFD04F109
:10BCA00014001BF026FD68461FF017FA3EBD000089
:10BCB000F0B50446444E0D46084699B03246002180
:10BCC0001AF0CEF913F018FA13F06AFA074613F0D7
:10BCD00013FA13F029FA01463A4628461AF006FCF0
:10BCE000284617F067FF0546324600211AF0B8F9DA
:10BCF00032226E2128461AF0F9FB1E229321FF20E2
:10BD0000FDF7ECFF18900026BDF86010324628467B
:10BD10001AF00EFD0022012128461AF01AFD002219
:10BD2000032128461AF01AFD0022012128461AF0A4
:10BD30000BFD2846FDF7EBFF2846256016F018FBA3
:10BD40000546224822A1FBF72CFF01460022284687
:10BD50001AF06CFDFF2211461046FDF7BFFF189048
:10BD6000BDF86010002228461AF053FD1BA128469A
:10BD700016F056FF2846FDF7CAFF656012F00CFB6F
:10BD8000A060602217496846F5F798FC206801908A
:10BD900041F201023146206819F04FF900B20490D7
:10BDA0006068099041F204023146206819F045F9B3
:10BDB00000B20B90606819F056FA0C906946A068C2
:10BDC00012F0C0FA19B0F0BDFFFF0F00DC05002033
:10BDD0006167656E6379625F33360000582D545297
:10BDE00041434B0040BA020810B504468068002861
:10BDF00003D012F0DCFA0020A06010BD10B504469C
:10BE0000D83001F0BFFB04F13400616801F018F88C
:10BE10002046616800F026F82046A16B00F022F869
:10BE20002046A16C00F01EF82046A16E00F01AF822
:10BE30002046A16D00F016F82046A16F00F012F820
:10BE40002046D4F8881000F00DF82046D4F8981059
:10BE500000F008F82046D4F8A810BDE8104000F023
:10BE600001B8000030B40C4608610346204630BCDF
:10BE70000022014917F064BA8DC00008C06800F0C4
:10BE800049B87047D0F8B40001F0C3B910B5044602
:10BE9000343001F02FF904F1D800BDE8104001F072
:10BEA000C1BB000010B504460420F8F759FAD4F8D5
:10BEB000B41016F0F4F9012005F050FA22464FF4C0
:10BEC0007A710D481BF03CFDC4F8DC001BF013FE3A
:10BED00013F012F913F064F9404202B2002304F1A6
:10BEE0003400616800F09BFF6068BDE810400022EC
:10BEF0004FF4967118F0C4B97DBE00087047D0F8B1
:10BF0000DC001BF03FBD406800224FF4967118F032
:10BF1000D5B90000F0B5A5B0044622A8009004F100
:10BF2000D800402304AA21A9064601F09FFA04F193
:10BF30003400DDED220A04A99DED210A054601F039
:10BF40007BF919A818A9CDE90210402704ACCDE966
:10BF5000004717AB16AA15A9304601F0B3F915AA88
:10BF60009DED192ADDED181A04A992EC030A284662
:10BF700001F0CCF81DA800901CAB1BAA1AA93046F2
:10BF800001F022FA1BA89DED1A0A90E80E0028463F
:10BF900001F01EF9402304AA1EA9304601F0E2F97F
:10BFA00004AA28461E9901F009F9402204A9304646
:10BFB00001F02AFA04A9284601F028F904AB20AAC6
:10BFC0001FA93046009701F079FA04AA9DED200AD6
:10BFD00028461F9900F0BCFD402304AA23A930463F
:10BFE00001F0A2FA9DF88C0008B10EA100E00EA1AC
:10BFF0000EA304AA284600F0C3FD1BF09EFC0021FE
:10C00000402304AA04F0E6F90CA012A10094CDE9A3
:10C01000011014A316A219A1284601F03BF925B07E
:10C02000F0BD0000594553004E4F000053444641B7
:10C0300054207631303130320000000041756720E5
:10C04000203720323032310A32323A31303A353804
:10C050000000000041524D43430A763530363037F8
:10C060003530000076382E312E30206465760000A1
:10C070005F5649464558546563680000582D545230
:10C0800041434B2076312E360000000070B5044647
:10C0900014F081FB0546204614F054FB2C6906463B
:10C0A000012807D10221284619F005F910B1A0682E
:10C0B000FAF72AF86068A84206D1102E04D1A068C9
:10C0C000BDE87040FAF720B870BD0000014901607A
:10C0D00070470000203A0408F0B4D0E949318B429F
:10C0E00016D00C460D461A4604E000BFF4E802677D
:10C0F000E2E80267AC42F9D1D0F8284100E008320A
:10C10000A242FCD1C91A21F00701611AC0F8281116
:10C11000F0BC9030FBF778BE30B505460C460A46B9
:10C1200095B0D0F8200130230BA102F03DFC20781F
:10C1300000280ED150236A4608A1D5F8200102F04C
:10C1400033FC9DED020B84ED020B9DED040B84EDA1
:10C15000040B15B030BD00004750530053797343B2
:10C160006F6E6669670000002DE9F04782462DED8D
:10C17000028BA0B0D0F8200110231CAA26A102F047
:10C1800013FC9DF87C00002840D05046FFF7A4FF28
:10C190006846FCF70DF89FED230B6846FBF72FFE72
:10C1A000DDE91D9700242CE009EBC4056868F4F76D
:10C1B00016FC41EC180B2868F4F711FC41EC100B4D
:10C1C00017AA16A9B0EE481AF0EE681A504603F006
:10C1D00073FFE8461698F4F78CFB05460E46179851
:10C1E000F4F787FBCDE91A01CDE9185618A94046A6
:10C1F000FBF752FF20B1DDE91612504600F030F88F
:10C20000641CBC42D0D36846FBF7DAFF20B0BDEC1B
:10C21000028BBDE8F0870000547261636B46696C65
:10C2200074657200000000000000004030B595B059
:10C2300014460D46D0F8200150236A4605A102F0AD
:10C24000B3FB224628460DF14101F4F778F815B00A
:10C2500030BD0000537973436F6E6669670000005C
:10C260001CB5CDE90012D0E94A136A4600F5927078
:10C27000994205D00831416008391DF0B8FA1CBD5B
:10C280001FF022F81CBD000038B504463C2005F024
:10C29000F3FD051E08D004F097F8024600230FA115
:10C2A0002846009402F063FCC4F820010FA104F5B5
:10C2B000907402F035FC0EA1206802F031FC0FA151
:10C2C000206802F02DFC10A1206802F029FC2068F3
:10C2D000BDE838400F4902F053BB00004C69766559
:10C2E0004D61704D6F64656C000000004750530055
:10C2F00053706F7274537461747573005472616318
:10C300006B46696C74657200537973436F6E66692E
:10C31000670000004DC300087FB50446D0F8200137
:10C32000002528B102F05FFC05F09EFDC4F8205105
:10C3300003A968461FF03AF8694604F592701FF0A9
:10C3400028F868461FF037F87FBD000070B5054635
:10C3500008780C46012802D06FF0020070BD6068BA
:10C3600008A10068F3F7FEFF10B92269382A02D04D
:10C370004FF0FF3070BDA868E168E830F5F79EF92E
:10C38000002070BD53706F727453746174757300C4
:10C3900008B503F0C5FE01231A461946383004F0EB
:10C3A0003FFA5830FBF704FF694694301EF0FEFF59
:10C3B000A0F5927008BD000038B504463C2005F099
:10C3C0005BFD051E08D003F0FFFF0246002305A118
:10C3D0002846009402F0CBFB2060BDE8384005A160
:10C3E00002F09EBB537461727475704D6F64656C1E
:10C3F000000000004D75736963506C6179657200CF
:10C4000010B504460068002805D002F0ECFB05F0EA
:10C410002BFD0020206010BD08B5042300910068AA
:10C420006A4602A102F01DFB08BD00004D7573694C
:10C4300063506C617965720070B505460E4608461A
:10C4400015F096FF044614230022022117F034F859
:10C4500009A1204616F0E4FB30462C6015F088FF59
:10C46000044605A116F0DCFB002320461A460921EC
:10C4700017F022F86C6070BD000000007CB51D460E
:10C480001646084617F096FB0446FDF7D7FE1F2216
:10C49000282120461AF02AF81021204617F00DFB1B
:10C4A00000232A460921204617F006F800223146CB
:10C4B00020461AF033F90022FF2120461AF033F902
:10C4C00020222D2120461AF0BCF9202219212046D5
:10C4D0001AF06AF91A48FDF781FE0146002220464B
:10C4E0001AF010F91748FDF779FE01462022204680
:10C4F0001AF008F91448FDF771FE014602222046A1
:10C500001AF000F90022092120461AF06BF90020E8
:10C5100000900190C8230D4A0D490E481BF0D0F938
:10C5200020220C4920461AF087F9022209492046A8
:10C530001AF082F920461AF0EBF920467CBD000083
:10C5400066666600BBBBBB001E93FF00D5E1010819
:10C55000A0BA0208A0050020F8B50446084617F066
:10C5600029FB0546FDF76AFE12F0C6FD12F0DCFD60
:10C5700001462822284619F0B9FF00200090034602
:10C580000E222846E16816F0A5FF124812A10646C1
:10C590002564FBF706FB02466FF04F032946204651
:10C5A000FFF76CFF60640EA13046FBF7FAFA024613
:10C5B000002329462046FFF761FFA0640AA1304608
:10C5C000FBF7EFFA0246502329462046FFF756FFB5
:10C5D000E064F8BDEC0500206C6F636174650000D9
:10C5E00073746172740000006D656E750000000068
:10C5F000F8B50446084617F0DDFA0546FDF71EFEBD
:10C6000012F07AFD12F090FD01468E22284619F0B4
:10C610006DFF0022FF2128461AF085F82948FDF712
:10C62000DDFD0146002228461AF06CF800221B218D
:10C6300028461AF0D7F86FF0230128461AF046F979
:10C640002846256015F094FE06461FA12248FAF7F9
:10C6500081FC0146002230461AF0E8F8FDF7E3FDC0
:10C660000146002230461AF0D4F81CA1304616F0DC
:10C67000D7FA3F2300220221304616F01DFF28463C
:10C68000666015F075FE054615A11348FAF762FCC1
:10C690000146002228461AF0C9F8FDF7C4FD0146FC
:10C6A000002228461AF0B5F811A1284616F0B8FA6B
:10C6B0000820009000230E222846616816F00AFF29
:10C6C000A560F8BD333333006261686E73636872CE
:10C6D0006966745F36350000DC05002030300000EC
:10C6E0006261686E736368726966745F31370000F7
:10C6F0006B6D2F680000000010B50446006D11F04E
:10C700007CFE206DBDE8104011F07ABEF0B5064603
:10C7100085B0084617F04EFA0546FDF78FFD00225A
:10C7200011461046FDF766FD0490BDF8101000227A
:10C73000284619F0E7FF12F0DFFC12F0F5FC014685
:10C740005A22284619F0D2FE6A23002202212846E6
:10C7500016F0B2FE0421284619F06EFE02231A4696
:10C760000321284619F04CFE0B4BF56000240FCB3B
:10C770008DE80F006F4600BF04EB440006EB80021B
:10C7800057F8243029463046103200F007F8641C70
:10C79000042CF1D305B0F0BD88BB02082DE9F041AF
:10C7A0001F461446084617F005FA0546FDF746FDF4
:10C7B00027225D21284619F099FE0121284619F00B
:10C7C0003BFE02231A460421284619F019FE28468A
:10C7D00015F0CEFD064617A11A48FAF7BBFB014635
:10C7E000002230461AF022F8FDF71DFD0146002216
:10C7F00030461AF00EF82846666015F0B9FD064678
:10C8000011A11048FAF7A6FB0146002230461AF0A3
:10C810000DF81148FDF7E2FC01460022304619F000
:10C82000F8FF3946304616F0FBF9A6602560BDE8F2
:10C83000F08100006261686E736368726966745F9C
:10C8400031370000DC0500206261686E7363687236
:10C850006966745F31330000B3B3B300F0B50446CA
:10C86000B9B00E460846FDF7E9FC12F045FC12F09F
:10C8700097FC054612F040FC12F056FC01462A4691
:10C88000304619F033FE31462046FFF73FFF314670
:10C890002046FFF7ADFE31462046FFF75DFE11F062
:10C8A0007BFD2065206818F0DEFC0646E06818F085
:10C8B000DAFC0546A06C17F006FE0746E022124996
:10C8C0006846F4F7FBFE20680190206817F0FBFD36
:10C8D0004042CDE90306E0680990E06817F0F3FDF7
:10C8E0004042CDE90B05E0681190606C1C971990EF
:10C8F000A06C24972190E06C2C9729906946206DBC
:10C9000011F020FD39B0F0BDA8BA020810B50446F8
:10C91000006D002803D011F04AFD0020206510BDF5
:10C920001BF00BB800B58DB0806B30236A4606A1B2
:10C9300002F03AF8BDF92400002802DD01200DB014
:10C9400000BD0020FBE70000475053003EB5054600
:10C950008DF808104FF47A700C46ADF80A000423E5
:10C9600002AA10A1A86B02F07CF8012034B1012CBE
:10C9700008D0022C02D0032C0CD108E08DF8000066
:10C980000BA002E08DF800000AA0019002E0002058
:10C990008DF8000008236A4608A1A86B02F061F830
:10C9A0003EBD00005265636F726465720000000056
:10C9B0005245430050415553450000005374617483
:10C9C000757342617200000038B504463C2005F0E2
:10C9D00053FA051E08D003F0F7FC024600230FA10E
:10C9E0002846009402F0C3F810A1A06302F098F862
:10C9F00011A1A06B02F094F812A1A06B02F090F8C4
:10CA000013A1A06B02F08CF812A1A06B02F088F8C1
:10CA1000A06BBDE83840124901F0B2BF4469616CB7
:10CA2000706C6174654D6F64656C000053706F725B
:10CA300074537461747573005265636F72646572C8
:10CA4000000000005374617475734261720000004D
:10CA5000475053004D75736963506C61796572007E
:10CA60007DCA000810B50446806B002805D002F08E
:10CA7000BAF805F0F9F90020A06310BD70B50546BD
:10CA800008780C46012802D06FF0020070BD606883
:10CA900008A10068F3F766FC10B92269382A02D0B1
:10CAA0004FF0FF3070BDA868E168F4F707FE002082
:10CAB00070BD000053706F727453746174757300AD
:10CAC00008B504230091806B6A4602A101F0C9FFFA
:10CAD00008BD00004D75736963506C617965720023
:10CAE00010B5044614F0DAF8C4F880001749241D84
:10CAF00014F018FA0420F7F733FCE16F15F0CFFBC0
:10CB0000216FE06F14F096F8216EE06F14F092F848
:10CB1000216DE06F14F08EF8216CE06F14F08AF84C
:10CB2000216BE06F14F086F8216AE06F14F082F850
:10CB30002169E06F14F07EF82168E06F14F07AF854
:10CB40002068BDE8104014F0FBB8000013D20008C4
:10CB5000FEB5064614460D4610EE100AF3F73FFFE9
:10CB60008DE813002A4602A1F06D16F093F8FEBD81
:10CB7000256425250A25302E3266560A25730000C5
:10CB800008B5009313460A46C06E02A116F082F85B
:10CB900008BD000025730A25730A257300000000F4
:10CBA0007CB50446843005461AF0C8FCDC212846D2
:10CBB0001AF080FEFEF733FD014628461AF0ABFD61
:10CBC000FF2128461AF0B2FD2F4830A1FAF7E9FFFD
:10CBD000014628461AF065FEFEF72BFD0146284661
:10CBE0001AF053FE04F18C0006461AF0A7FC462109
:10CBF00030461AF05FFE082130461AF0A6FD0221E9
:10CC000030461AF0A6FD2548FEF7E4FC0146304602
:10CC10001AF090FD002000900190C823204A21497D
:10CC200021481AF04DFE204930461AF03FFE1E49B9
:10CC300028461AF03BFE04F1940005461AF07EFCEB
:10CC400011481AA1FAF7ADFF014628461AF029FE4D
:10CC50001A48FEF7BFFC014628461AF016FE04F1FA
:10CC60009C0004461AF06AFC074810A1FAF799FFE5
:10CC7000014620461AF015FEFEF7DBFC0146204671
:10CC8000BDE87C401AF001BEDC0500206261686EE0
:10CC9000736368726966745F313700001E93FF002A
:10CCA0002DE201089EBB0208C80500206261686E83
:10CCB000736368726966745F3133000099999900F3
:10CCC0002DE9F05F0546DDE90A9A9B460C461046C1
:10CCD00016F070FFDFF8148107464246002119F074
:10CCE000BFF9DC21384619F0BEFD1021384616F098
:10CCF000E4FE3846276016F05DFF064642460021F6
:10CD000019F0AEF91021304616F0D7FE002205F1D9
:10CD10008401304616F07AFB022205F18C01304680
:10CD200016F074FB00220721304619F0E5FC0121C2
:10CD3000304619F081FB02231A460421304619F0CF
:10CD40005FFB304614F040FA804629484946FAF71E
:10CD500028FF0146404615F091F8304615F008FBD3
:10CD6000594615F05DFF3846666015F001FB8046B8
:10CD7000514615F055FF002205F19401404616F08A
:10CD800045FB00234B220721404616F095FB384611
:10CD9000C4F8088015F0ECFA804616A115F040FFA3
:10CDA000002205F19C01404616F030FB00233C2296
:10CDB0000921404616F080FB3046C4F80C8018F07C
:10CDC00075FDA06819F0A4FDA06817F07CFB64282D
:10CDD00000DC642004460146384619F03DFB21463C
:10CDE0003046BDE8F05F19F037BB0000FFFF0F00D1
:10CDF000EC0500202D00000010B5044684301AF028
:10CE000078FC04F194001AF074FC04F19C001AF010
:10CE100070FC04F18C00BDE810401AF06ABC70B5DB
:10CE20001E4614460D46084617F0B0FC001B02B221
:10CE300033462846BDE87040002119F08FB9000044
:10CE40002DE9FC4104460D4608464D4A002119F0E3
:10CE500007F912F051F912F0A3F9064612F04CF955
:10CE600012F062F901463246284619F03FFBFEF700
:10CE7000D6FB01460022284619F044FC0022FF217F
:10CE8000284619F050FC12F037F912F089F964388D
:10CE900000EBD07040F34F07002632463946284653
:10CEA00019F09AFC32463946284619F08FFC0121C8
:10CEB000284619F0C1FA002202231146284619F02B
:10CEC0009FFA2046FFF76CFE2EA136A0CDE90001A7
:10CED000214636A32A460846FFF7F2FE35A142A0B6
:10CEE000CDE9000144A32A4604F110012046FFF7D2
:10CEF000E7FE42A145A0CDE9000146A32A4604F180
:10CF000020012046FFF7DCFE43A149A0CDE9000146
:10CF10004AA32A4604F130012046FFF7D1FE48A17A
:10CF20004AA0CDE900014CA32A4604F14001204665
:10CF3000FFF7C6FE49A14FA0CDE9000151A32A4643
:10CF400004F150012046FFF7BBFE50A154A0CDE9EB
:10CF5000000155A32A4604F160012046FFF7B0FE08
:10CF600053A15FA0CDE9000160A32A4604F170013E
:10CF70002046FFF7A5FE2046BDE8FC41FFF7B0BD07
:10CF8000FFFF0F00546F74616C20747269700A5453
:10CF90006F74616C2074696D650A4D6178207370DF
:10CFA0006565640062696379636C650053706F72D4
:10CFB000740000004C617469747564650A4C6F6E8E
:10CFC0006769747564650A416C7469747564650A8F
:10CFD0005554432054696D650A0A436F7572736531
:10CFE0000A537065656400006D61705F6C6F63610A
:10CFF00074696F6E0000000047505300436F6D70FE
:10D000006173730A580A590A5A000000636F6D7001
:10D01000617373004D414700537465700A41780A8B
:10D0200041790A417A0A47780A47790A477A000023
:10D030006779726F73636F7065000000494D55002A
:10D04000446174650A54696D6500000074696D651A
:10D050005F696E666F00000052544300557361674C
:10D06000650A566F6C746167650A537461747573F1
:10D0700000000000626174746572795F696E666FAA
:10D080000000000042617474657279004465746543
:10D0900063740A53697A650A56657273696F6E0024
:10D0A00073746F726167650053746F7261676500B6
:10D0B0004669726D776172650A417574686F720AAC
:10D0C0004C56474C0A5379735469636B0A436F6D2E
:10D0D00070696C65720A0A4275696C640A00000026
:10D0E00073797374656D5F696E666F0053797374DD
:10D0F000656D000010B50446D0F8800013F0E8FD1F
:10D100002046BDE81040FFF777BE00002DE9F34F41
:10D1100012EE100A2DED060B2DED048B8BB0B0EE48
:10D12000618AF0EE418AB0EE609AF0EE409AF3F731
:10D1300056FC06460F4618EE100AF3F750FC04465C
:10D140000D4618EE900AF3F74AFC82468B4619EE1C
:10D15000100AF3F744FC8046894619EE900AF3F76B
:10D160003EFC41EC100B06A853EC102B80E8F000BD
:10D17000169807A1CDE903B08DE800071598C0699E
:10D1800015F088FD0BB0BDEC048B08B0BDE8F08F46
:10D1900025302E36660A25302E36660A25302E3288
:10D1A000666D0A25730A25302E3166206465670A8C
:10D1B00025302E31666B6D2F6800000013460A463D
:10D1C000C06B01A115F066BD25640A25730000003F
:10D1D000FEB507461E4615460C4610EE100AF3F73C
:10D1E000FEFB41EC100B8DE8700053EC102B02A1FC
:10D1F000F86A15F04FFDFEBD25302E3166206465BE
:10D20000670A25640A25640A25640000C06C15F0CD
:10D2100007BD70B513F0F0FD17F07CF9054618F066
:10D2200022F80446284617F075F92146BDE87040FB
:10D23000012219F08FB80000F0B507462DED028BE2
:10D2400085B00E46B0EE408A10EE900AF3F7C7FBA9
:10D2500004460D4618EE100AF3F7C1FB41EC100B23
:10D260000096CDE9024553EC102B04A1F86815F0A7
:10D2700011FD05B0BDEC028BF0BD000025302E3253
:10D28000666B6D0A25730A25302E31666B6D2F682B
:10D29000000000007FB50DF1200C9CE870008DE8C7
:10D2A000780013460A46C06F01A115F0F3FC7FBD5C
:10D2B00025730A25730A25730A25730A25730A251F
:10D2C000730000002DE9F04792B00E461AA91C46E3
:10D2D00091E8800715460068302306AA1AA101F0DC
:10D2E00063FB9DED0A0B51EC100BF3F7BBFB3060B9
:10D2F0009DED080B51EC100BF3F7B4FB28609DED8E
:10D300000C0A0DF1040C84ED000A9DF841009DF813
:10D3100045309DF844209DF843108CE80F009DF89F
:10D3200040000090BDF83E3008A24146384604F067
:10D33000E3FD9DED0D0A89ED000A9DED0E0A8AEDD3
:10D34000000A12B0BDE8F0874750530025642D2530
:10D35000642D25640A253032643A253032643A253A
:10D360003032640070B58AB01D4616460C4600681F
:10D370000E2305AA0EA101F017FBBDF920002060C5
:10D38000BDF918000DF1040CBDF91E30BDF91C20CB
:10D39000BDF91A108CE80F00BDF916000090BDF918
:10D3A000143004A22946304604F0A6FD0AB070BD30
:10D3B000494D550025640A25640A25640A25640A36
:10D3C00025640A25640000002DE9FC411C46154631
:10D3D0000E46089F006806236A4609A101F0E4FA98
:10D3E0009FED080A86ED000ABDF900002860BDF92E
:10D3F00002002060BDF904003860BDE8FC81000037
:10D400004D4147000000000030B589B014460D467C
:10D4100000680A2305AA0DA101F0C6FA9DF81700BD
:10D420000DF1040C9DF81B309DF81A209DF8191081
:10D430008CE80F009DF816000090BDF8143005A28E
:10D440002146284604F058FD09B030BD436C6F6397
:10D450006B00000025642D25642D25640A253032DB
:10D46000643A253032643A2530326400F0B58FB02A
:10D470001E4615460F46149C006838236A460BA1C9
:10D4800001F092FA9DED080ADFED0B0AB3B22A46CD
:10D4900080EE201A87ED001ADDE9060102F09AFFFE
:10D4A0009DED030A84ED000A0FB0F0BD53706F725A
:10D4B000745374617475730000007A44F8B51E46A5
:10D4C00014460D46069F006804236A460EA101F02B
:10D4D0006BFA9DF802002860BDF80000DFED0C0A31
:10D4E00000EE100AB8EE400A80EE201A84ED001A11
:10D4F0009DF8030008B107A100E008A13A463046B4
:10D50000F2F71DFFF8BD0000506F77657200000054
:10D5100000007A4443484152474500004449534380
:10D52000484152474500000070B586B01C4615467C
:10D530000E4600680C2302AA0CA101F035FA9DF8F2
:10D54000080030709DED030ADFED0A0A20EE200A84
:10D5500010EE100AF3F743FACDE9000106A22146C6
:10D56000284604F0C9FC06B070BD000053746F7209
:10D57000616765000000803A25302E316620474201
:10D580000000000038B504463C2004F075FC051E80
:10D5900008D002F019FF0246002311A1284600948A
:10D5A00001F0E5FA13A1206001F0BAFA14A1206895
:10D5B00001F0B6FA13A1206801F0B2FA12A12068B6
:10D5C00001F0AEFA11A1206801F0AAFA11A12068B9
:10D5D00001F0A6FA2068BDE8384010A101F0A0BA19
:10D5E00053797374656D496E666F734D6F64656CC6
:10D5F0000000000053706F7274537461747573008F
:10D60000475053004D414700494D5500436C6F63EF
:10D610006B000000506F77657200000053746F72EA
:10D620006167650010B504460068002805D001F068
:10D63000DAFA04F019FC0020206010BD7FB54FF429
:10D64000807500F1D804C0F8E05011F055FD11F0DC
:10D650006BFD064611F050FD11F0A2FDC4E900601B
:10D660002046002211460646D83C03F06FF8694672
:10D67000304603F0A6F8024604F13400064661681D
:10D68000FEF79AFA2B492C4AD4F88400B1F900101D
:10D69000B2F9002011F0B0F802982946020A30468B
:10D6A000FEF716F82046616800F050F82046D4F8DE
:10D6B000841000F04BF82046D4F88C1000F046F8A7
:10D6C00013F0ECFAC4F8DC010420F6F749FED4F8B4
:10D6D000DC1114F0E4FDD4F88410D4F8DC0113F06C
:10D6E000A9FAD4F8840008B1012100E00021D4F89F
:10D6F000DC0113F0F6FB114D0022D4F884002988D8
:10D7000011F0C3F8298804F1A00002F0FBFC01210C
:10D71000206D15F051FE04F598709FED090B05463C
:10D72000FAF76DFB08492846FAF76CFBC4F830415C
:10D730007FBD00001A0100201C010020EC00002029
:10D740000000000000000040071E010830B40C4635
:10D7500008610346204630BC0022014915F0F0BDA7
:10D760009DD9000870B50C4605461AF0E6F820442D
:10D77000A0F57A70C5F8D00170BD70471FB590ED67
:10D78000640A044612A1BDEEC00A54F8900F10EED0
:10D79000102A15F07FFAD4ED4A0A9FED0F1A80EE99
:10D7A000810A10EE100AF3F71AF941EC100B0BA1E5
:10D7B00053EC102B606815F06DFAD4E94801102382
:10D7C0006A4602F007FE0146A06815F029FA1FBD5F
:10D7D000253032640000000000007A4425302E31EC
:10D7E00066206B6D0000000070B504460C482246B0
:10D7F00064211AF0A5F80025C4F8D051C4F8D80166
:10D800000121206D16F059F90121606B15F0D4FD4E
:10D81000C4F8E0510120C4F8E45184F8E90170BD76
:10D820005B1E010810B504463430FEF721FAD4F827
:10D83000DC01BDE8104013F04BBA000030B50446DF
:10D84000A03089B00546FEF71FFD10226946284624
:10D85000FEF7ECFC694604F13400FDF7E7FF102306
:10D8600004AA0D49D4F8C00101F09EF89DF81C00EF
:10D8700084F8E801012003F071FD2046FFF77EFFE8
:10D880000121606B16F019F90022FA21606816F088
:10D89000F7FC09B030BD0000903C04087047A03090
:10D8A000FEF73ABD2DE9F0410746D7E97140001B6C
:10D8B000C51000D1002407F13400FDF738FF002621
:10D8C00009E000BF04EBC60054F836104268384641
:10D8D00000F005F8761CAE42F4D3BDE8F0811FB528
:10D8E0000446CDE900126A4602A9D83002F08EFF44
:10D8F000039802B2029801B204F13400FDF7C4FFAC
:10D900001FBD10B50446D0F8D8011AF03BF801212C
:10D91000206D15F051FD6068FA22BDE810401146F7
:10D9200016F0CCBC1CB504466A460021D83002F083
:10D93000F7FE0098D4F8E011884204D10198D4F899
:10D94000E411884201D0012000E00020DDE900124E
:10D95000C4E978121CBD10B50446D0F8D00119F006
:10D96000E6FFB0F57A7F0AD3204600F05FF8204644
:10D97000FFF704FF19F0E1FFC4F8D00110BDD4F89F
:10D98000D40119F0D4FF40F6B8318842F6D3E06FE5
:10D99000BDE810404FF4805115F031BD70B504461C
:10D9A00012F0F9FE0546204612F0CCFE2C69064620
:10D9B00010282ED0D4F88400A84224D11C2E02D0E6
:10D9C000012E1DD01FE0284610F008FF0246144823
:10D9D00014A1521CB0F90030D4F880005B1C15F083
:10D9E00059F94FF48051E06F16F08EF819F0A5FF49
:10D9F000C4F8D4012046BDE87040C821FFF7B2BE8C
:10DA0000A068F8F781FBD4F88C00A84206D1012E5B
:10DA100004D1A068BDE87040F8F776BB70BD000087
:10DA20001C01002025642F25640000002DE9F0432F
:10DA300004462DED028BA9B0A03018A98146FEF74F
:10DA40006BFBD4F8840010F0C9FE81B260480180FD
:10DA5000B4F9D000884202D0012084F8E901484698
:10DA600002F050FB9DED1C1B9DED1A0B07AA06A9A9
:10DA7000484602F021FBDDE9061204F1D800804699
:10DA800002F064FE069824900798259024AA02A923
:10DA9000404602F0BBFE94F8E80148B394F8E9016F
:10DAA00028B14846FEF760FB002084F8E9012046D3
:10DAB000FFF738FF10B12046FFF7F4FE04F5987722
:10DAC0000698F2F716FF05460E460798F2F711FF83
:10DAD000CDE90A01CDE9085608A93846FAF7DCFA7B
:10DAE000039802B2029801B204F13400FEF744F840
:10DAF00002A94046666D02F060FE304617F091FBC9
:10DB0000029900EBD070A1EB600005B2304616F030
:10DB1000DAFC039900EBD070A1EB60002946656D3B
:10DB200002B29DED1F8A284618F0C1FCB2EE040A2D
:10DB300028EE000ABDEEC00A10EE100A01B2284617
:10DB400014F022F902A9404602F04FFE11F0D4FA77
:10DB500011F0EAFA054611F0CFFA11F0E5FA281AA9
:10DB600000EBD070451011F0C7FA11F019FB064612
:10DB700011F0C2FA11F014FB301A039900EBD070C7
:10DB8000C1EB600002B20298281A01B2206D18F0B1
:10DB90008EFC0025402612E026AA2946404602F0C7
:10DBA000BFFDDDE92612009608AB484602F066FA92
:10DBB000A06D08A950F8250014F060F96D1CE06D07
:10DBC000A842E9D829B0BDEC028BBDE8F083000083
:10DBD000EC00002010B50022026742670749826707
:10DBE0000160A030FEF7D4FBA0F1A0041C2100F5D9
:10DBF0009870F2F77BFB204610BD0000503A0408F5
:10DC000010B504464030FEF7D7FB0020FDF75EF864
:10DC100004F134006168FEF74BF822464FF4FA61D4
:10DC2000034819F08DFEBDE81040012119F06FBFC7
:10DC3000A9DC0008406840F2DC524FF4FA7116F09B
:10DC40003DBB704710B504463430FEF7CDF80120D7
:10DC5000FDF73CF804F14000BDE81040FEF7D0BBF2
:10DC600010B5044604A14030FEF7D6FBE06BBDE8DA
:10DC7000104010F0C5BB00005374617274757000E1
:10DC800001220021427601760A224FF4FA7380F8CD
:10DC90002C200249C385016370470000D5E10108CB
:10DCA000012003F02BBB7047C068002201A18068EF
:10DCB000F8F755BA50616765732F4469616C706CF1
:10DCC000617465000149016070470000803A0408F2
:10DCD00010B5044641683430FEF7AEFBE168606B76
:10DCE00014F09EFF2046616800F006F804F13C0045
:10DCF000FEF716FEE06310BD30B40C460861034623
:10DD0000204630BC0022014915F01ABBEDDD0008A9
:10DD1000C06800F053B87047704770471CB50446A0
:10DD2000BDF80010072060F30201ADF80010BDF847
:10DD300000201F2161F3C70292B261F30C2291B25D
:10DD400060F34F31ADF8001088B20090BDF80000CC
:10DD50000090BDF80000ADF806004FF47A70ADF801
:10DD60000400E16901A821B1226A042A01D1F3F774
:10DD7000A5FCBDF80600ADF800000022606800991F
:10DD800018F0C0FCBDF804102246024819F0D8FD76
:10DD900020641CBD11DD00080121417601760422BA
:10DDA0004FF47A7380F82C200149C38501637047D2
:10DDB00039E10108006C19F0E5BD704710B5044663
:10DDC0003C30FEF7ADFD0246D4E90E03BDE810403D
:10DDD00001A114F05FBF00007469636B203D202532
:10DDE000642073617665203D2025640070B505468A
:10DDF00012F0D1FC0446284612F0A4FC21694A68BE
:10DE0000A24208D1042801D0102804D18868BDE8B6
:10DE10007040F8F779B970BD0149016070470000A2
:10DE2000B03A040810B504468830FEF7CDFD04F181
:10DE300034006168FEF712FD12F030FFC4F8C8002C
:10DE40000021783413F070F82168206D12F0F2FE92
:10DE50006168206D12F0EEFEA168206D12F0EAFEFE
:10DE6000606812F06DFF54F87819204600F00CF845
:10DE70002046E16F00F008F82046D4F88010BDE895
:10DE8000104000F001B8000030B40C4603462046B4
:10DE900030BC0022014915F053BA000045E00008EB
:10DEA000826F8A4203D18068002206A106E0D0F882
:10DEB00080208A4204D18068002206A1F8F74FB979
:10DEC0007047000050616765732F4C6976654D613E
:10DED0007000000050616765732F53797374656D2E
:10DEE000496E666F73000000C06800F055B8704757
:10DEF00010B504460448F9F754FE0146E06FBDE84A
:10DF00001040002218F00ABCEC05002010B50446B1
:10DF100002464FF47A71034819F012FDC4F8CC00A0
:10DF200010BD0000E9DE000810B504468830FEF799
:10DF300099FD04F13400FEF7E9FCD4F8C800BDE80F
:10DF4000104012F0C5BE10B50446002003F006FADA
:10DF50000420F6F705FAD4F8C81014F0A0F920460A
:10DF600000F01AF804F13400BDE810400021FEF77B
:10DF7000C3BB00000A224FF4FA7380F82C20024938
:10DF8000C385016370470000D5E101087047D0F8F0
:10DF9000CC0019F0F7BC00001FB590ED240A044630
:10DFA0001DA1BDEEC00A54F8380F10EE102A14F06F
:10DFB00071FE206EF2F713FD41EC100B18A153EC2B
:10DFC000102B206914F066FED4E91E0110236A4666
:10DFD00002F000FA0146E06914F022FED4ED200AB6
:10DFE0009FED121A80EE810A10EE100AF2F7F7FC8C
:10DFF00041EC100B0EA153EC102BA06A14F04AFE5A
:10E0000094ED210A0DA1606BBDEEC00A10EE102A3E
:10E0100014F040FE1FBD00002530326400000000F7
:10E0200025302E3166206B6D2F68000000007A4489
:10E0300025302E3166206B6D000000002564206BBA
:10E040000000000070B5044612F0A7FB064620460B
:10E0500012F0A1FB0546204612F074FB044604288A
:10E0600003D129463046FFF71BFFF06FA8420BD1C2
:10E07000042C07D0052C07D101213046BDE87040A3
:10E0800000F004B80021F8E770BD000070B5044648
:10E0900090F8D000012604F18805A8B1012825D008
:10E0A000022833D003283DD1002946D026A1284696
:10E0B000FEF706FD03212846FEF748FC25A1204671
:10E0C000FFF716FF00202BE000292BD02846FEF793
:10E0D00029FC28B121A12846FEF7F2FC002122E00C
:10E0E0002846BDE870401FA1FEF7EABC002919D1FF
:10E0F0001EA12846FEF7E4FC01212846FEF726FC77
:10E1000014A12046FFF7F4FE022009E0A9B11BA1EB
:10E110002846FEF7D5FC1EA12046FFF7E9FE0320A6
:10E1200084F8D00070BD2846FEF710FC1AA12046E6
:10E13000FFF7DEFE84F8D06070BD08A12846FEF728
:10E14000BFFC0221EFE70000446973636F6E6E65E8
:10E15000637400007374617274000000436F6E6E2C
:10E16000656374004572726F72000000556E7374BF
:10E1700061626C65436F6E6E656374004E6F4F70C5
:10E1800065726174696F6E5761726E696E670000C7
:10E1900073746F700000000070617573650000009B
:10E1A00002490160002180F8D0107047E03A04086D
:10E1B0000FB47FB5144D2A68002A04D008980328AC
:10E1C00004DC002190477FBC5DF814FB09AE694672
:10E1D0000820084600BF18B103F0C2FB044600E067
:10E1E000002432462046089903F078FB20688168B5
:10E1F0002046884701462A680898904720680168A9
:10E2000020468847DFE700005403002013B50024B0
:10E2100003F032FE044614B90320FFF7C9FF20467D
:10E220001CBDAFF30080AFF30080F4E703F01CBE29
:10E23000704700002DE9FC4707464FF00008C7F87B
:10E2400000809A46894600F10805C0F80480140051
:10E25000464608D0B4F1804F01D3AFF30080A00050
:10E2600003F006FE00E00020C5E9000403E0286892
:10E27000641E40F82460002CF9D1A5F10804C5F80B
:10E280000880C5F80C80C4E9068AB9F100000AD0FC
:10E29000F2F761F8401C054603F0EAFD2A464946BC
:10E2A000F3F70CFAA061062701A8AFF3008001463E
:10E2B00068461CF04BFC82463946174B174A04202F
:10E2C00003F0ECFE65688046062D00D33D46C1464E
:10E2D000266806E0314648461CF08CFC09F104092A
:10E2E000361D206800EB8500B042F3D105E008EB55
:10E2F000850051466D1C1CF07DFCBD42F7D30649DC
:10E300002068F2F7BCFDC4E9008768461CF045FCB4
:10E310002046BDE8FC8700009BAB0208CB19000833
:10E3200010B50446806903F09BFD04F108001CF061
:10E3300003F808381CF00EF810BD2DE9F041044632
:10E340000D461646104600212260002000BF606086
:10E3500048B1F2F700F8401C03F08AFD07466168F7
:10E36000F2F71BF8676029463046002000BF2046C0
:10E37000BDE8F08110B54168044629B1206800204D
:10E3800000BF606803F06CFD204610BD0C0008D093
:10E390000A460DA1104803F0A1FD204603F060FDE0
:10E3A00009E050B101280AD002280AD00BA206A128
:10E3B000094803F093FDAFF300800AA2F7E70CA22F
:10E3C000F5E711A2F3E70000457863657074696FA3
:10E3D0006E3A2025732E0A0058030020756E6B6E6E
:10E3E0006F776E20657863657074696F6E000000EA
:10E3F000756E6578706563746564206578636570B3
:10E4000074696F6E000000006261645F616C6C6F24
:10E41000633A206F7574206F66206D656D6F727939
:10E420000000000010B50A4904460020D1E900327E
:10E4300000E0401C824204D953F8201009B1A142E7
:10E44000F7D153F82010002900D1104610BD00006C
:10E450005C0300202DE9F04190B00024194680466D
:10E46000169F944626466D4652EA01000FD1302190
:10E47000404600F024F8012010B0BDE8F0813A4693
:10E4800000236046F1F7BAFE2A558446641C5CEA14
:10E490000100F4D174B1281910F8010C0A2801D236
:10E4A000303000E03730C1B2404600F008F8064492
:10E4B000641EEFE73046DFE70268526810470268E3
:10E4C0001268104708B5002300920A4600F001F8D0
:10E4D00008BD08B5029921B1C9B20091FFF7BAFF92
:10E4E00008BDD1B20268126801B05DF804EB1047B4
:10E4F00070B50C460646002505E03068641C0268CD
:10E50000304690476D1C21780029F6D1284670BD11
:10E510000FB4802130B5A1B0054626AB6846259AD8
:10E5200003F016FD044669462846FFF7C5FF21B0F3
:10E53000204630BC5DF814FB70B50546FFF7BCFF04
:10E540000446284600F00CF8204470BD70B505461E
:10E55000FFF7B8FF0446284600F002F8204470BDDB
:10E5600070B505460D21FFF7AAFF04460A2128468B
:10E57000FFF7A5FF204470BD0FB470B58AB0044604
:10E580001098119A129B139D04AE86E82D009DF8F9
:10E5900050008DF8200010461A462B46089D8DE845
:10E5A0002D000A4604F58C6004F26C410646049B7B
:10E5B00002F0B0FC08B3254604F23C402660044655
:10E5C00001F044F80121284602F0ECF920B90021BD
:10E5D000284602F0E7F980B12046294601F0D6FA34
:10E5E00058B154B1207810F0700F06D00448046080
:10E5F00001200AB070BC5DF814FB0020F9E70000B0
:10E60000AC0200200022027242720249C0E90012EC
:10E6100070470000FC39040810B50446006808B1D2
:10E6200014F0F2FC00202060A060606010BD70B5A6
:10E630000D4604460068491C14F02AFD002802D04B
:10E64000C4E90005012070BD70B50E4615460446AC
:10E65000114600F0C6F830B1A56031462068F1F7E8
:10E660009CFE204670BD2046FFF7D6FFF9E700214B
:10E67000016041608160704770B505460C0009D0AB
:10E680000846F1F768FE024621462846BDE870407C
:10E6900000F002B8002070BD70B5044680680E001E
:10E6A00000EB02050FD062B12946204600F099F830
:10E6B000002807D0A168206808443146F1F76DFEB4
:10E6C000A560012070BD002070BD8A680968FFF751
:10E6D000E3BF00002DE9F05F0446806815460F4651
:10E6E000002818D0B968002915D0AA682668A2EBBE
:10E6F0000109B9F1000F08D036DAB04627E0AA6860
:10E700002968F2F7DBFFA86806193046396803F07C
:10E7100075FB0400F3D1BDE8F09F00BFAAEB060033
:10E720008346024631464046F2F7C8FF08EB0B0627
:10E730003046AA682968F2F7C1FFA868B96800EBFB
:10E74000060801EB0A06A16801EB0900A06030464B
:10E75000396803F053FB5FEA000ADFD131464046D7
:10E76000BDE8F05FF1F719BE80463046396803F026
:10E7700045FB20B1B9680E1808EB0900F4E7A16861
:10E7800040464145C7D06168414505D20146204613
:10E79000FFF74DFF0028BED0A268521E18E0206887
:10E7A000B968A26801443144081A121A01EB090041
:10E7B000F2F784FFA16801EB0900A0602268002144
:10E7C00011542068AA6829683044F2F777FF721E56
:10E7D000002AA0DB3946204602F0F2FD0600DED515
:10E7E00099E710B50446006810B16068884209D204
:10E7F0002046FFF71CFF002805D0A06810B921684B
:10E8000000200870012010BD70B50C460546FFF7CA
:10E810002EFF3CB12046F1F79EFD024621462846D8
:10E82000FFF712FF284670BD70B50C460546FFF78E
:10E830001EFF2146284600F058F8284670BD30B526
:10E840000C462DED028B89B0B0EE408AF0EE608A66
:10E850000546FFF70CFFA01C6A46214640B2B0EE09
:10E86000480AF0EE680A0CF06FFC0146284600F0FA
:10E870002BF809B02846BDEC028B30BD30B50C46F4
:10E880002DED028B89B0B0EE408A0546FFF7EFFE12
:10E8900018EE100AF2F7A3F841EC100BA01C6A4620
:10E8A000214640B20CF050FC0146284600F00CF81E
:10E8B00009B02846BDEC028B30BD10B50446006897
:10E8C00014F0A2FB204610BD70B50C00054608D020
:10E8D0000846F1F740FD024621462846FFF7B4FE00
:10E8E00001E0FFF799FE284670BD10B50446884246
:10E8F0000BD0086828B18A6801462046FFF7A4FEBD
:10E9000002E02046FFF788FE204610BD10B5044601
:10E91000FFF7B2FE204610BD10B50446FFF7D5FE46
:10E92000204610BD70B504460A4604F10C0140684B
:10E930000E46F6F733FF05000CD02A4631466068D4
:10E94000F6F740FF224605F118016068F6F73AFF36
:10E95000012070BD002070BD70B50446806A0D4670
:10E9600018B119F00FF80020A062002D05D0224642
:10E970002946024818F0E4FFA06270BD85E900084E
:10E980004162704700B5C06885B0426A002A09D06C
:10E9900004218DF800100021CDE9020104910190BD
:10E9A0006946904705B000BD70B5164604460A4654
:10E9B0001D46406804F10C01F6F7F0FE010006D098
:10E9C0002B4632462046BDE8704000F003B86FF099
:10E9D000060070BDF0B5164685B01D460A004FF022
:10E9E000FF340DD0536A7BB102218DF8001001ACC9
:10E9F000049584E84500694610469847044616E0A9
:10EA00006FF0060005B0F0BD906BA8420FD102F187
:10EA10002C0069460746F4F71BF940B12A463046F8
:10EA20000099F2F74BFE3846F4F735F900242046FA
:10EA3000E8E7F8B514000D4602D0816BA14201D081
:10EA40000020F8BD2C3069460646F4F711F922463D
:10EA500029460098F2F732FE3046F4F721F90120FA
:10EA6000F8BD70B5164604460A461D46406804F1D6
:10EA70000C01F6F793FE010006D02B4632462046E5
:10EA8000BDE8704000F003B86FF0060070BD30B50F
:10EA900085B00C000DD0656A75B103218DF80010AA
:10EAA000CDE9010469462046CDE90323A84705B016
:10EAB00030BD6FF00600FAE76FF00300F7E7F0B53E
:10EAC0000446806B87B04FF0FF3698B104F12C00FC
:10EAD00005A90746F4F7BCF880B101208DF80000C5
:10EAE0000020CDE9014005980390A06B0490D4E983
:10EAF00006540EE06FF0040007B0F0BD6FF00500A3
:10EB0000FAE72868426A1AB16946029090470646B9
:10EB10002D1DA542F5D13846F4F7BDF83046EBE798
:10EB20007CB50D46044601682846F1F71BFC002819
:10EB300009D004F10C012A460E466068F6F72EFE55
:10EB4000009008B100207CBD29466068F6F721FEE0
:10EB500000900028F7D0694630461CF09AFC0098D7
:10EB600001A9019418301CF094FC00987CBD2DE99B
:10EB7000FC410E461D46174669460C30DDF82080E4
:10EB80001CF097FC01A90C301CF093FCA0F11804B8
:10EB900018210C30F1F7AAFB84E8C001C5B1284662
:10EBA00003F066F907001BD0284603F061F9060060
:10EBB00013D029463846F1F799FB29463046F1F73C
:10EBC00095FB3246394604F12C00F4F760F8A56352
:10EBD00021466068F6F7B4FD02E0384603F040F9DC
:10EBE0002046BDE8FC812DE9F0410446806B28B148
:10EBF000E06A03F039F9206B03F036F9A06A08B136
:10EC000018F0C0FED4E9065704F11800064604E0E7
:10EC100028682168FFF786FE2D1DBD42F8D104F15A
:10EC20000C00D0E9005706E02968224618316068D8
:10EC3000F6F7C8FD2D1DBD42F6D121466068F6F7F6
:10EC4000A3FD30461CF03AFC0C381CF037FC0C38A5
:10EC5000BDE8F081817800F1100241F0040181707B
:10EC600083680169184601F068BE0246002001462B
:10EC7000C30143EA5000535C491C1844C9B2C0B2F6
:10EC80000B29F5D3704770B50446C8680D4668B1C6
:10EC900024212046F1F72AFB102020700120A070CB
:10ECA000A868A060E8682062012070BD89682046DD
:10ECB000BDE8704000F06ABF2DE9F0470D460746F9
:10ECC0000E7B022406E0022C04D204F1300088F806
:10ECD0000E0027E06A68AB68101980B2002107E0D7
:10ECE00013F801C000EB401080EA0C0080B2491C10
:10ECF0009142F5D3032E00D90326311D0BE000BF4E
:10ED000000F00F020A2A01D2303200E037326B18CD
:10ED100000095A73491EC9B2B142F1D805EB060881
:10ED20004FF07E0A88F80DA03846002100F0A5FEBD
:10ED300005F10D090121384600F01BF8010013D040
:10ED40000878A0B1C87A40F3C000401CF2D00B2272
:10ED50004846F1F715FB0028ECD1641CE4B2642CA2
:10ED6000B1D30020BDE8F08778780028F9D10120E0
:10ED7000F8E738B5044640694942C0F343150D42EF
:10ED80000BD101226946204600F082FB40B28DF88B
:10ED90000000012803D0002038BD203001E0606968
:10EDA0001F3060613021A06801EB4511084438BD77
:10EDB0002DE9F0410446007880062CD4174960699B
:10EDC000884228D22046FFF745FF20B32169A0687A
:10EDD00002F034FB074605223946A06801F0AAFD7F
:10EDE000060018D04FF40071F1F780FA012506E013
:10EDF0007919324601F095FD68B16D1CEDB2A0683D
:10EE00000179A942F4D8C8B2616901EB4020606180
:10EE10000120BDE8F0810020FBE7000000FE1F009C
:10EE200010B50A4604468169806801F083FD002818
:10EE300004D0217901F00F0100EB411010BD2DE944
:10EE4000F84F08230026B146B2464FF0070B009357
:10EE500000E0401C0378202BFBD000234FF0010E74
:10EE60008860C45CB4B12F2C14D05C2C7CD0222CD4
:10EE70007AD02A2C78D03A2C76D03C2C74D03E2CE8
:10EE800072D03F2C70D07C2C6ED0203C5F2C6BD28B
:10EE90005B1CE6E71C4600E0641C055D202DFBD0F2
:10EEA0002F2DF9D00444146014E0C21812F8012C7C
:10EEB0002E2A0ED0202A0CD0FF2B55DC0022202435
:10EEC0004B608D18521CD2B26C730B2AF9D30022FE
:10EED00004E05B1E002BE8D1F0E7521C845C2E2C72
:10EEE000FBD0202CF9D012B100275D1E02E00127D3
:10EEF000FBE76D1E002D6BDB445D2E2CF9D167E026
:10EF0000845C202C11D02E2C0DD0222C1ED07C2CD9
:10EF10001CD0A4F12A0CBCF1050FA44607D8BCF103
:10EF20002D0F13D116E0954210D000274FE0ACF121
:10EF30003A0CBCF1050F09D9A4F15B0CBCF1020F2E
:10EF400004D9A4F1210CBCF15E0F03D3AA4201D075
:10EF500000275F24AA4201D0DA4516D9BBF10A0F77
:10EF60000FD0AA4203D000E03EE04FF0000731DCB2
:10EF70004FF010042A464FF00A0B4FF0080A009495
:10EF800025E0487B20282FD031E0A4F1610CBCF1B2
:10EF9000190F06D8DDF800C0203CE4B246EA0C06A2
:10EFA00008E0A4F1410CBCF1190F03D8DDF8008092
:10EFB00049EA080901EB0A0C8CF80D400AF101043A
:10EFC00004F0FF0ABAF1070F01D281F80CA0521C1D
:10EFD0009A4295DB487B202806D047B116EA090FF4
:10EFE00000D002260E700CE00020BDE8F88F01F87A
:10EFF0000CEB481C0B787E221A5411F8022B31209E
:10F0000050540120F1E72DE9F0410F461D46164608
:10F0100004462421DDF81880F1F768F9B868A0608B
:10F02000A680396AE16000F1300106F00F0201EBC1
:10F030004212D17A41F3C0035B1C48D001F01701A2
:10F040002170D37A13F0180F02D141F0080121701A
:10F0500084F8038015F0030104D0012910D002299F
:10F0600035D10BE0A90632D40121A170C9B28B07BA
:10F070000BD52378C3F300164EBB03E00321F4E75E
:10F080000221F2E713F0010F21D105F088031943A3
:10F09000A170C16AA161518B938A41EA0341AB0619
:10F0A00008D511B101F0D5FD88B1A07840F0040079
:10F0B000A07002E02162D069E061680704D52046B3
:10F0C000E16900F0DAFC10B10120BDE8F081002018
:10F0D0002070FAE713460A460149096800F08AB928
:10F0E000AC0200202DE9FF4F8DB04FF000000C90D6
:10F0F00002900B900A90D2F8049090460D00824640
:10F10000044648D0287810F0700FFAD00D98007897
:10F11000002840D198F80000800706D009F10C00C3
:10F120000D21B0FBF1F0401C00E00120C7B22846E1
:10F13000002100F0A2FC08F10D0003906869012194
:10F14000C0F34F162846FFF714FE030007D01878C7
:10F15000E52808D038B1BC420ED200240CE0687813
:10F160000028D6D178E004B90A96BC4201D2641CCA
:10F17000E4B298B3E5284BD02E2849D0D97A0F298C
:10F180000AD041F3C000401C42D0BAF1000F51D068
:10F190000298012846D028E10793BAF1000F1ED04B
:10F1A0000299491EC9B20291884231D1597B0B980C
:10F1B00081422DD10298401E00EB800101EBC00B73
:10F1C000CB4525D20020089001460798F4F7D2FFDE
:10F1D0000146CB450CD10029B0D019E03CE04106F6
:10F1E000ACD500F01F0082460290587B0B90E1E7FF
:10F1F000FF290DD8C8B2F4F7CEFFD8F8081006469C
:10F2000011F80B000BF1010BF4F7C5FF864202D099
:10F210004FF0000A92E70898401CC0B208900D28F1
:10F22000D2D38BE71846FFF720FD01460B988142A9
:10F230000ED0DAE00B2218460399F1F7A1F8002866
:10F24000E8D198F80000C00702D001200C9075E7C3
:10F250001098400666D4BBE01098C00662D510989E
:10F2600000F00300012801D002285BD144B90A96BE
:10F2700006E000212846FFF77CFD20B1641CE4B2C3
:10F28000BC42F6D30EE0687800284BD10AE028464D
:10F29000FFF78EFD002845D0A8680079012803D823
:10F2A0001034E4B2BC42F2D30C9820B14146284657
:10F2B000FFF702FDB0B30A984101284600F0DDFBDC
:10F2C00080B37F1EFEB2B2464CE000212846FFF715
:10F2D00050FD040026D0A868564510F8241F41F0C0
:10F2E0000101017002D146F0400000E0304620707C
:10F2F0000F20E072002727730398FFF7B6FC6073B6
:10F3000067832078D8F808B000F01F00401E00EB9B
:10F31000800101EBC0014B460020994203D21BF84B
:10F32000012006E061E002D14FF0000201E04FF65B
:10F33000FF72052804D204EB4007A7F801200AE079
:10F340000B2803D204EB4007BA8004E0112802D254
:10F3500004EB4007FA80401CC0B2491C0D28DCD3E6
:10F36000761EF6B2002EB0D168690021C0F34F16A8
:10F370002846FFF7FEFC040037D02021F0F7B6FF47
:10F38000404650F80D1F216041686160018921816C
:10F39000807AA07298F8000000F0180020731448DA
:10F3A000026822B104F10E01881C904705E042F684
:10F3B000210020824FF40060E081208A6082208357
:10F3C000E089E082A86810F8241F41F00101017073
:10F3D000CDF800A032462946109B0D98FFF713FE8A
:10F3E00018B1012011B0BDE8F08F0020FAE700004D
:10F3F000B00200207FB590B005461E460C46684618
:10F4000000F0DEFB284602F004F8401E20423DD00A
:10F41000204601F0F8FF88B3129800782F280ED10B
:10F420001298401C129000782F28F9D01298A168E9
:10F430000078F0B1684600F0A9FBF8B16C4612AA5A
:10F4400009A91298FFF7FBFCC0B112980078B0B17F
:10F45000002309AA21462846FFF744FE70B1242262
:10F4600029466846F2F72AF96C46284600F0EEF87D
:10F47000E5E7284600F08AFB14B070BD06E033468D
:10F4800009AA21462846FFF72DFEF5E70020F3E7FD
:10F490002DE9F05F0446007815464FF000098B46D1
:10F4A000002835D0A178C90732D0010705D5616998
:10F4B000E069401A85420AD20AE0800608D5A168B0
:10F4C000A08A0989C0EB411080B2854200D9054667
:10F4D0002E4672E0227861699006A068C1F30808A0
:10F4E00003D5006A00EB51201FE0437903EA51295C
:10F4F00058EA090714D161B104F11002216901F041
:10F50000D2FA002864DB0BD1207810F0700F56D1AE
:10F510005EE0C2F3801109B1006A00E0206A206158
:10F520002169A06801F08AFF48448246B8F1000FC3
:10F5300008D14FF40077BE4204D3A2685146D06A86
:10F54000504511D1C8F50077B74200D9374600229F
:10F550005146A06801F0EEF9A0B300EB08013A466D
:10F560005846F2F7ABF823E0B6F5806F2BD321783D
:10F570004FEA5628890606D41379A3EB0901C9B2CC
:10F58000414500D288464FEA4827504508D800EB4D
:10F590000801514504D902F1240000F063FF88B14D
:10F5A000A06851465A464346006801F085FB48B1C1
:10F5B0006069BB443844F61B6061002E8AD1A81BE9
:10F5C000BDE8F09F04E010685A4601F002FEEEE745
:10F5D000607840F0020060704FF0FF30F0E700000C
:10F5E00070B50446007830B3A07840071FD50121DC
:10F5F0002046FFF715FC05001FD02878E5281CD011
:10F600002078000701D5E069E861208C6883206AD2
:10F61000000CA8820C4842682AB105F11601881C2A
:10F620009047288B6882A07820F00400A070A06822
:10F6300001F0FCFA08B1012070BD607840F00100D3
:10F640006070002070BD0000AC02002010B50446C0
:10F65000FFF7C6FF0021217010BDF0B589B00D0085
:10F66000044654D0287810F0700F50D05223204612
:10F67000FFF738FDE8B30120A07010262670204661
:10F68000FFF796FBA8B320692062204600F063F9DB
:10F690002046FFF7A5FF60B301212046FFF7C0FB1E
:10F6A000010034D0CE7220226846F2F707F82E26E9
:10F6B00001208DF80060694620220A54401CC0B227
:10F6C0000B28FAD3216AA06801F0B8FE0146012296
:10F6D000A06801F02FF9070019D020226946F1F740
:10F6E000EDFF8DF80160288CADF81A00286A000C37
:10F6F00000E00CE0ADF814002022694607F120007C
:10F70000F1F7DCFFA06801F091FA09B0F0BD00202C
:10F71000FBE77FB590B006461D460C46684600F0F4
:10F720004FFA304601F075FE401E20423CD0204684
:10F7300001F069FE80B3129800782F280BD112983F
:10F74000401C129000782F28F9D06846A16800F07C
:10F750001DFA08B36C4612AA09A91298FFF76FFBAD
:10F76000D0B112980078C0B1002309AA21463046D2
:10F77000FFF7B8FC30B97DB109AA21463046FFF742
:10F780006CFF48B1242231466846F1F797FF6C467A
:10F790003046FFF75BFFDEE706E009AA2146304668
:10F7A000FFF75BFF14B070BD0020FBE72DE9F05FB1
:10F7B0000446007890468946164600074FF0FF3B06
:10F7C0007ED5A07881077BD5000705D52046E16965
:10F7D00000F053F9002873D060694FF4007AC143F8
:10F7E00041456DD36FE0A36860695979C0F308079C
:10F7F00001EA502555EA070012D1216969B104F1E7
:10F800001002184601F04FF9002859DB08D12046B4
:10F81000FFF720FA00287ED002E0206A38B120618C
:10F820002169A06801F00AFE411957B907E0204696
:10F83000FFF710FA00286ED020692062F0E75645E5
:10F840001DD2C7F50075B54200D935462FB9E2691A
:10F850006069904201D3052200E00122A06801F016
:10F8600069F868B338442A464946F1F727FFE81992
:10F87000504521D1A068243000F0F4FD1BE0B6F51E
:10F88000806F28D3A268730A1079401BC0B28342EC
:10F8900000D90346D06A5D02884207D818448842DE
:10F8A00004D9002082F82400C2F82CB0A0684A468F
:10F8B000006801F0BAFA18B16069A944284400E070
:10F8C00029E0761B6061002E8DD1E1696069884274
:10F8D00010D9E06111E0A0685546C26A8A4204D19D
:10F8E000002280F82420C0F82CB04A46A06801F01D
:10F8F00018F8E0E70B48406818B1A07840F0040021
:10F90000A070A078000603D52046FFF769FE10B16D
:10F910004046BDE8F09F607840F0010060705846B6
:10F92000F7E70000AC02002010B50C46017881B169
:10F9300011F0600F04D02F2020700020607006E0CE
:10F940000021FFF76DFA20B1214600F007F80120F1
:10F9500010BD002010BD002100F08FB8F0B50446A6
:10F960000020082502462E26A35C202B12D0082A50
:10F9700003D110250E54401CC0B2A35CA3F1410773
:10F98000192F04D8277B2F4201D02033DBB20B5430
:10F99000401CC0B2521CD2B20B2AE5D300220A543A
:10F9A000F0BD2DE9F04F89B04FF000098DF80090BF
:10F9B00006468DF80190007892468846E8B3BAF181
:10F9C0000D0F56D3F07830B131466846FFF75BF93A
:10F9D00098B301244AE03046FFF7A6FF09B0BDE81E
:10F9E000F08FB088001B4101684600F046F820B354
:10F9F00000216846FFF7BDF95FEA000B39D09BF89C
:10FA00000B000F2835D19BF8000000F01F00A0422A
:10FA10002FD1401E00EB800101EBC00500273946C5
:10FA20005846F4F7A7FB68B155450BD27F2800D3A1
:10FA30003F2008F805007F1C00E01AE0FFB26D1CB3
:10FA40000D2FECD3554505D29BF80000400601D59B
:10FA500008F8059008EB0A0101F8019C9BF80000EA
:10FA6000400601D50120B9E7641CE4B2F078A04259
:10FA7000B7D288F800900020B0E72DE9F041027875
:10FA800007690D460446CAB36169A94202D1012043
:10FA9000BDE8F0812DB1100706D5E069A8422DD34D
:10FAA0000AE0002020612CE0900605D5A0680089BE
:10FAB000B5EB401F25D921E0A368481E93F806C086
:10FAC0000CF1090C20FA0CF06E1E26FA0CF6864298
:10FAD00002D309B1361A06E0C2F3801008B1186AE1
:10FAE00000E0206A206104F11008761E09D3424626
:10FAF0002169A06800F0D7FF0028F6DC002027610C
:10FB0000C6E76561C3E72DE9F843002690460D4638
:10FB10008146344601F07DFC401E284234D0284600
:10FB200001F071FC78B3287DC0062DD168690021F1
:10FB3000C0F34F172846FFF71CF920B3017811B323
:10FB40002E2916D0E52914D0C27A42F3C0035B1CDB
:10FB500011D01CB1FFF789F8B04215D143463A469F
:10FB6000294648460094FFF74EFA60B10120BDE8EF
:10FB7000F8830024DAE70F2AFBD14A06D6D501F034
:10FB80001F04467BD2E7FFE70020F0E770B504468C
:10FB900000780D4658B924212046F0F7A7FBA56050
:10FBA000E8790C2805D0102803D0202803D00020A5
:10FBB00070BD202000E0402020700120A07070BDAA
:10FBC000002101704170704710B50446C0790028CB
:10FBD00015D170222021204600F0B6F80022212104
:10FBE000204600F0B1F800222221204600F0ACF8B7
:10FBF00020460C22BDE81040232100F0A5B810BD1E
:10FC000070B515460C460646012902D0022D02D0D9
:10FC10001CE00DB908E0E4B90F221E2100F072F8D3
:10FC20003D280DD0012D06D00F221C21304600F0BA
:10FC300069F83D2806D0012C0BD0022D09D005E033
:10FC4000012500E00025012C00D10024F47134B915
:10FC500001E0002070BD012D03D01C203072012076
:10FC600070BD1E20FAE700002DE9F0470446017A36
:10FC7000234800F010FEA821214800F048FE20484B
:10FC800000F0F9FD217A06221D4800F0D7FD18F09A
:10FC9000F5FD85B20CE0608950B118F0EFFD80B23F
:10FCA0006189401B884203DD01202073BDE8F08795
:10FCB000134800F02FFE0628EDD3114800F0F6FDA2
:10FCC00080460F4800F0F2FD07460D4800F0EEFDBB
:10FCD00006460B4800F0EAFD0546094800F0E6FD3F
:10FCE0008146074800F0E2FD014648EA07202080EF
:10FCF00046EA0520608049EA0120A080D6E700009E
:10FD00009C00032070B514460D460E4800F0C3FD5C
:10FD100021460C4800F0E7FD0A4800F0ACFD4FF02A
:10FD2000FF3468B901222946064800F087FD0548DE
:10FD300000F0F0FD20B1BDE87040024800F0B6BD13
:10FD4000204670BD9C00032070B50D460446017A24
:10FD50001646084800F09FFD2946064800F0C3FDFE
:10FD60003146044800F0BFFD024800F084FDA07158
:10FD700070BD00009C0003200121C1710021418160
:10FD8000017370472DE9FE430E460AA91C4691E80F
:10FD9000800315460C236A46222100F0D5F8BDF8F1
:10FDA000021039809DF801009DF8001000024042C9
:10FDB0000843A8F80000BDF80410A9F80010BDF829
:10FDC000080030809DF807009DF8061000024042B0
:10FDD00008432880BDF80A002080BDE8FE8370B586
:10FDE00005464B2100F092F804464C21284600F0CD
:10FDF0008DF844EA002070BD70B514460D460646E5
:10FE00008022012100F0C6F88E220F21304600F03A
:10FE1000C1F85020B5FBF0F0C0B260F3DF04E2B2ED
:10FE20001421304600F0B6F800220121304600F0DF
:10FE3000B1F83046BDE87040012310221921AFF31C
:10FE400000802DE9F0411D4614460E46074600F09D
:10FE50005DF80DB1204300E0A0430246314638462C
:10FE6000BDE8F04100F096B8012304221921FFF704
:10FE7000E8BF10B50446012382225821FFF7E1FFB5
:10FE800001238C2259212046FFF7DBFF7F225A21D4
:10FE9000204600F07FF8012380225B212046FFF7F7
:10FEA000D0FF204601230822BDE810405E21FFF765
:10FEB000C8BF10B50446017000F0DAF8322007F030
:10FEC0009DFE08223021204600F07AF8042200210D
:10FED000204600F079F864220A21204600F078F8E4
:10FEE0002046FFF7C6FF06224FF482612046FFF747
:10FEF00083FF2046FFF7B8FF0F21204600F006F8E9
:10FF00006A2801D0002010BD012010BD70B50D463B
:10FF1000044601780B4800F0BEFC2946094800F071
:10FF2000E2FC084800F0A7FC21780122054800F017
:10FF300085FC044800F0BAFC0446024800F09BFC33
:10FF4000204670BD9C0003202DE9F0410F46044679
:10FF500001781D4616460E4800F09DFC39460C48B7
:10FF600000F0C1FC0A4800F086FC21782A460848C7
:10FF700000F064FC002403E000F098FC3055641CA1
:10FF80000348AC42F8DBBDE8F04100F074BC00006F
:10FF90009C00032070B50C4601781546074800F018
:10FFA0007AFC2146054800F09EFC2946034800F0F3
:10FFB0009AFCBDE87040014800F05DBC9C00032045
:10FFC0000A431021FFF7E6BF0A431121FFF7E2BF02
:10FFD00000EE101ADFED230A9FED231AB8EEC00AD7
:10FFE00070B560EE200A0646282092FBF0F080EE05
:10FFF000810AC5B202F084FDDFED1C0AFF2D20EE60
:020000040801F1
:10000000200ABCEEC00A10EE100AC4B200DDFF25C3
:10001000FF2C00DDFF24A02201213046FFF7BAFFAC
:100020002A4650213046FFF7B5FF2246542130467C
:10003000FFF7B0FF402259213046FFF7ABFF002207
:1000400001213046FFF7A6FF012380221921304607
:10005000FFF7F7FE3046BDE8704001231A460B213A
:10006000FFF7EFBEDB0F4940000034430000804241
:1000700001231A461221FFF7E4BE0000FEB5448EAC
:10008000B0F9300091FBF4F192FBF4F2089E8DE898
:1000900007001D46034B04A23146284601F02CFF01
:1000A000FEBD00001E01002025732F25642F25644E
:1000B0002F25642E62696E00F7B506461048144677
:1000C0002DED040B82B00D46007838B102A904A8CA
:1000D0009DED021B9DED040BF2F740FCB6F93010CC
:1000E00001AB6A469DED021B9DED040B3046F8F70F
:1000F000E5F9009828600198206009B0F0BD000083
:1001000018010020054BB3F90220914203DBB3F93B
:100110000420914200DD114601867047180100203D
:1001200010B5F8F7CFFA102101860901418610BDFC
:10013000F8F7FABA70B50446002100F0E1F80121A1
:10014000204600F0F2F80121204600F0D9F894F89A
:10015000560007F07DFD30B100250021204600F05B
:10016000CFF8284670BD0125F7E710B504460021F9
:1001700000F0DBF80121204600F0C2F82046BDE87F
:100180001040002100F0BCB870B5064600250121E2
:1001900000F0CBF800240121304600F0B1F896F8C9
:1001A000560007F055FDC4F1070188402843C5B249
:1001B0000021304600F0A4F8641C082CEBDB284634
:1001C00070BD10B50446012100F0AFF801212046B2
:1001D00000F096F82046BDE81040002100F090B8ED
:1001E0002DE9F04100240E4607460125C4F1070120
:1001F00005FA01F0304201D0012100E0002138462B
:1002000000F093F80121384600F07AF800213846D2
:1002100000F076F8641C082CE8DBBDE8F08110B52E
:100220000446002004F8520F0621607004F8220CE6
:1002300004F8210CE07818F0BFFB20790621523C2D
:1002400018F0BAFB0121204600F05AF82046BDE81C
:100250001040012100F069B870B5044600206081AB
:1002600020794006050EE088012801D145F00105FE
:10027000204600F076F829462046FFF7B1FF2046D9
:10028000FFF758FF20B1E088012819D000252AE0A7
:10029000204600F057F8022070BD2046FFF774FF9B
:1002A00002466089E368411C61811A546089218992
:1002B0008842204602D2FFF758FF01E0FFF781FF96
:1002C000608921898842E8D310E0E068415D2046DA
:1002D000FFF786FF2046FFF72DFF60B16089401CC5
:1002E0006D1C6081EDB22089A842EED8204600F056
:1002F00029F8002070BD204600F024F8032070BDCE
:1003000070B504460D4690F8540007F081FC94F84F
:100310005500294607F0ACFC002D05D094F8550097
:1003200007F096FC0028F9D070BD70B504460D4664
:1003300014F8540F07F06CFCA0782946BDE8704013
:1003400007F096BC10B504460021FFF7EEFF01212F
:100350002046FFF7D5FF2046BDE810400121FFF7FA
:10036000E4BF10B504460021FFF7DFFF2046BDE8DB
:1003700010400021FFF7C4BF10B5044C046080F8A2
:10038000543080F8551080F8562010BD103A0408FB
:1003900003490160002180F8551080F8561070471D
:1003A000103A0408014602480E220068FEF741BBDD
:1003B000740000200146024806220068FEF739BB9F
:1003C0007800002017F0B3BA00487047CC03002033
:1003D00017F0B3BA7CB51D4616464FF47A72002367
:1003E000EFF70CFF3C220023EFF708FF14463C22F6
:1003F0000023EFF703FFCDE90024034603A22946BB
:10040000304617F049F830467CBD000025643A2597
:100410003032643A25303264000000002DE9F041AA
:10042000044680680E46174604F10C05B0420FD012
:10043000204600F017F898B1780706D46068314676
:100440002A46006800F0C5FE50B100202070A6606A
:10045000207807F00301084320702846BDE8F081AA
:100460000020FBE770B504460078C00716D0D4E939
:10047000010104F10C02154600F053FA80B1207816
:10048000800707D5D4E90101026911442A4600F02A
:1004900048FA28B1207820F001002070012070BDBA
:1004A000002070BD10B5044601290BD08020608269
:1004B000211D2068F2F7F4FE2068BDE810400121FC
:1004C000F2F7ACBE0020F2E72DE9F0410F460446FA
:1004D00000680021F2F7A2FE37B1012F06D0022FEB
:1004E00006D0032F09D106E0002602E0002603E033
:1004F0000226002501E0022601256681A581211D35
:100500002068F2F7CDFE2068BDE8F0410121F2F746
:1005100085BE10B5044601810068211DF2F7C0FEBA
:100520002068BDE810400121F2F778BE2DE9FF5F99
:100530000446DDE90E8B1F4691460021DDF840A000
:100540000198F2F76BFEB8F1000F09D0B8F1010F76
:1005500008D0B8F1020F07D0B8F1030F09D106E0B7
:10056000002602E0002603E00226002501E0022624
:1005700001250020A080A4F8069027816681A5812E
:10058000A4F80EB0A4F810A0119860820320A082F5
:10059000211D0198F2F784FE019804B00121BDE805
:1005A000F05FF2F73BBE00680021F2F737BE0FB4F0
:1005B000002170B586B006460B98BDF83840019111
:1005C0009DF83A500090ADF80C4001468DF80E5061
:1005D000304600F077F821463046FFF763FF2946A2
:1005E0003046FFF771FF0C9881B23046FFF791FF5C
:1005F000306806B0012170BC5DF814EBF2F70EBE56
:100600001FB504460068F2F71BFE2A4A20682A49F3
:10061000904210D108680121A0610803F2F77CFB29
:100620000821052018F0C8F90821062018F0C4F99F
:10063000082107202DE0214A904216D108680121A7
:100640004008A0618803F2F74FFB08211D2018F035
:10065000B3F908211E2018F0AFF908211F2018F067
:10066000ABF92068F2F7ECFD15E0154A904212D183
:10067000086801214008A061C803F2F735FB082192
:10068000132018F099F90821142018F095F9082181
:10069000152018F091F9002010214A01CDE900023F
:1006A000CDE9021003464FF4827220462168FFF71D
:1006B0003DFF1FBD00300140E8020020003800402F
:1006C000003C004010B504468069B0FBF1F082B2F6
:1006D000022A01D8002218E0042A01D8082214E0D6
:1006E000082A01D8102210E0102A01D818220CE0A4
:1006F000202A01D8202208E0402A01D8282204E03C
:10070000802A01D8302200E038222282211D206870
:10071000F2F7C6FD2068BDE810400121F2F77EBD6A
:1007200070B5446BC36B85681B1BB3FBF5F3B1FB62
:10073000F3F603FB1616B1FBF3F105FB0644146058
:10074000836B806800FB0130506070BDF0B50446DB
:10075000C4E90312D0F800C0D0F804E080684FEA82
:100760005C064FEA5E058B1B571B31442A446361CC
:10077000C4E90671C4E90A21BCFBF0F5BEFBF0F642
:100780002263C4E90873AD1CB61C454346430022EE
:100790001946204600F02DF8606300222046A1692A
:1007A00000F027F8A063626B62645119C4E90F106E
:1007B0003044C4E912012065F0BD00F10C0200F0E4
:1007C00025B810B5426B0A60826B4A60436BC26BFE
:1007D000D31A8B60846B826C121BCA608168B3FB76
:1007E000F1F0B2FBF1F1484310BD00F1140200F04A
:1007F0000DB88368B1FBF3F003FB101020B1081AA9
:10080000002A00D0184470470846704710B5136896
:10081000446B1B1B0B605268806B101A486010BD44
:100820002DE9F0410D461F46164604465421EFF7C8
:100830005DFD84E8E0002046BDE8F08110B5044687
:10084000202A00DD2022A1800120E080228194F86E
:10085000301004F110000844E06020680168204670
:10086000884794F83100A17A0844C0B284F8310076
:100870000021E18010BD10B5044690F8530008B186
:10088000012010BD2068016820468847002104F837
:10089000521F617010BD818090F8522000F132012A
:1008A0001144C16000210181C180704710B590F8EA
:1008B000302090F831400021A24204D100F8301FCE
:1008C0004170002010BD641E00F11003A24205D14A
:1008D000D25C00F8301F4170104610BD511C80F8EA
:1008E0003010D05C10BD10B590F85220202A0AD0EC
:1008F000134600F13204521C80F852201955018928
:10090000491C018110BD012180F8531010BDC9B2EE
:10091000FFF7E9BF90F8311090F83000081AC0B224
:100920007047006800F0EEB942F0020200F50C706A
:10093000FFF774BD2430FFF771BD2DE9F843C4689B
:100940000D4690460746AC4202D20C46002600E017
:100950000126F869641CA04202D20EBBFC68F7E7CE
:10096000AC421DD06A462146384600F09CF800286B
:1009700016DBEED000980028EBD106B1FC602146D2
:10098000384600F062F958B12DB122462946384662
:1009900000F0EBF820B10120C8F80040BDE8F88372
:1009A0000020FBE72DE9F0414FF000050446C5713A
:1009B0004FF00100A462E06084F824504FF0FF3053
:1009C000C4F83442E06284F830520F002E46C4F876
:1009D000380212D0042F64D8002211462046FFF7B7
:1009E000A9FF00285DD000EB071090F8AE1100F5CC
:1009F000D770490655D18568F5B3002229462046AF
:100A0000FFF798FFC0B3B0F80B10B1F5007F48D1E5
:100A1000017C022945D1C18971B3417B21714A1EF4
:100A20006271A671012205E032B35206A379120E5B
:100A30005B1CA3719142F7D1C18A01B9416A21615E
:100A4000C2892A44A261B0F81130238102EB41012E
:100A50002162B0F8112040F2FF1303EB421201EBC8
:100A600052226261B0F8131001B9016A521B891A4F
:100A7000A279D1404A1C00E013E0E26140F6F57231
:100A8000914201D20C2008E04FF6F572914201D25A
:100A9000102002E0C06A20622020E0710120BDE841
:100AA000F0810020FBE72DE9F04190460C46054619
:100AB000022957D3E869A04254D3E879202804D00A
:100AC000102811D00C281CD04CE0A869002200EBA3
:100AD000D4112846FFF728FFB8B304F07F0150F87F
:100AE000210020F0704033E0A869C4F307210144DD
:100AF00000222846FFF718FF38B3E1B230F81100A2
:100B000026E0A0B200EB500087B2A869002200EBFB
:100B1000572631462846FFF707FF010022D0C7F3CA
:100B200008000F5C401CB0F5007F07D10022711C4B
:100B30002846FFF7F9FE010014D00020085CE10709
:100B400047EA002002D0000902E00BE0C0F30B00EE
:100B5000E969814202D20020BDE8F081C8F80000B6
:100B60000120F9E74FF0FF30F6E72DE9F041174695
:100B70000D460646022957D3F069A84254D3F079AE
:100B8000202804D010280FD00C281AD04CE0B069CF
:100B9000012200EBD5113046FFF7C6FEE8B305F0A1
:100BA0007F0140F821703CE0B069C5F307210144A2
:100BB00001223046FFF7B8FE78B3E9B220F8117091
:100BC0002FE0A8B200EB500084B2B069012200EB24
:100BD0005420804601463046FFF7A6FEE8B1C4F334
:100BE0000804F9B2EA0703D0025D61F31F12D1B223
:100BF0000155641CB4F5007F07D108F10101002400
:100C000001223046FFF790FE38B1C7F30711EA071B
:100C100006D1025D02F0F00200E005E042EA1111A7
:100C200001550120BDE8F0810020FBE710B5044626
:100C30002430FFF717FC30B104F50C70FFF712FCFD
:100C400008B1012010BD002010BD6FF07042FFF709
:100C50008CBFF8B5064600200C4600906A46214637
:100C60003046FFF720FF05000FD400222146304612
:100C7000FFF77BFF48B1F068A04201D3641EF46027
:100C8000009C002DEAD10120F8BD0020F8BD08B578
:100C900001228DF8001069460830FEF787FD08BD77
:100CA00070B514460D46F4F7DFFC401BA04201DD91
:100CB000012070BD002070BD2DE9F0411E46154693
:100CC000804600F0A7FA002815D000244FF40077E2
:100CD0000AE03A462946404600F010FA00280AD0B9
:100CE000641CA4B205F50075B442F2D34046BDE8D9
:100CF000F04100F03EBABDE8F0814068FF21006895
:100D000000F08CBB70B50446807A1546032800D0ED
:100D100049020A461821204600F03DF808B1322069
:100D200019E02A46FE21204600F0A0FAA0B14FF4B7
:100D3000FA61204600F063F830B100220D21204610
:100D400000F029F830B901E05A2004E02046FFF70E
:100D5000D4FF30B129202070204600F0ABF90020EC
:100D600070BD204600F0A6F9012070BD10B5044604
:100D7000807A032800D049020A461921204600F053
:100D80000AF830B133202070204600F093F900209B
:100D900010BD012010BDF7B50646007A0D4610B90A
:100DA000304600F0F9F925B14FF49671304600F065
:100DB00026F845F04001304600F078F902AF0324F0
:100DC0003046395D00F072F9641E64B2002CF7DA27
:100DD00045B18721304600F069F93046FFF78DFFB5
:100DE000002403E09521F5E7641CE4B23046FFF7E8
:100DF00084FF7072010601D50A2CF5D3FEBD70B5D3
:100E00000D460646F4F730FC044607E02A46214624
:100E10003046FFF745FF08B1002070BD3046FFF7B0
:100E20006CFFFF28F2D1012070BD2DE9F0411E4674
:100E300015460746FFF79AFF80B1002407E02946D0
:100E4000384600F0FCF948B1641C05F50075B44261
:100E5000F5D33846BDE8F04100F037BA384600F027
:100E600029F90020BDE8F0811FB5694600F01AF9A4
:100E7000002814D09DF80000810912D00121B1EBA7
:100E8000901F2BD19DF807009DF80810000400EB7F
:100E900001209DF809100844800200F5806004B02C
:100EA00010BD9DF805009DF8072000F00F019DF88A
:100EB00006009DF80A308007000D40EA82009DF888
:100EC000082040EA92109DF80920401C9207520F1A
:100ED00042EAD3121144C91F8840E0E70020DEE750
:100EE00070B5154604460022FFF755FF10B1532098
:100EF00020700AE010222946204600F0FFF820B1B9
:100F0000204600F0D7F8012070BD204600F0D2F84E
:100F1000002070BD0FB42DE9F04188B000250572A6
:100F200005708572164604464160F4F79DFB6768BC
:100F3000804601213E76304606F09AFE0521304675
:100F400017F03AFD3868FFF75BFB012262F30F00F0
:100F500065F31740CDE9000651492A466068F6F767
:100F600001F9204600F018F960680121007E06F0C2
:100F70007FFEFF21204600F099F86D1CEDB20A2D8E
:100F8000F7D360680021007E06F072FE01254FF461
:100F90000277002211462046FFF7FDFE012811D0FE
:100FA0000A2D0DD0FD21204600F080F800262046B5
:100FB000FFF7A3FE761CBE42F9DB6D1CEDB2E8E73D
:100FC000202038E04FF4D57208212046FFF7E3FED9
:100FD00005280DD000252046FFF78FFE6D1CEDB2D1
:100FE0006072042DF7D3C0B2AA2805D0252022E0D4
:100FF0000120A072002502E00220A07245074FF4F4
:10100000FA6607E0324641462046FFF749FE08B13E
:10101000432010E02A462921204600F060F80028ED
:10102000F0D1A07A022821D100223A212046FFF7F0
:10103000B2FE50B137202070204600F03BF800206F
:1010400008B0BDE8F0015DF814FB2046FFF755FE3F
:101050000321B1EB901F01D10320A072002520468F
:10106000FFF74BFE6D1CEDB2032DF8D3204600F0C8
:1010700021F811981299139A149B02AD85E80F007C
:101080009DF854008DF818000699CDE900311346FB
:10109000DDE902126068F6F765F80120D0E700008C
:1010A00090D003000A460921FFF71ABF4068006884
:1010B00000F0B4B910B50446007A00280ED060687C
:1010C0000121007E06F0D4FDFF212046FFF7EEFF50
:1010D00060680068FFF767FA0020207210BD70B5E5
:1010E00014460D46064600223721FFF754FE2246DD
:1010F00029463046BDE87040FFF74DBE2DE9F0416E
:1011000015460F460446F4F7AFFA06464FF47A78D0
:1011100007E0424631462046FFF7C2FD08B15520A0
:1011200009E02046FFF7E9FD6072FF28F1D0C0B268
:10113000FE2807D0502020702046FFF7BBFF00207C
:10114000BDE8F0810026D4F8048006E0FF21D8F83D
:10115000000000F063F9B855761CAE42F6D30020CB
:1011600060722046FFF7C9FD2046FFF7C6FD01204B
:10117000E6E710B5044600220C21FFF70CFE30B163
:10118000282020702046FFF795FF002010BD204644
:10119000FFF790FF012010BD70B50446007A86B0BD
:1011A000002814D16068011D2EC98DE82E00067D2F
:1011B0008DF81060049ECDE900560068FFF7F7F93E
:1011C00060680021007E06F053FD0120207206B009
:1011D00070BD70B50446807A1546032800D04902D8
:1011E0000A4611212046FFF7D6FD10B130202070AD
:1011F0000BE04FF4007229462046FFF77FFF20B135
:101200002046FFF757FF012070BD2046FFF752FF31
:10121000002070BD10B50446807A032800D0490232
:101220000A4612212046FFF7B6FD30B1312020706A
:101230002046FFF73FFF002010BD012010BD70B514
:101240000D4604464FF4FA61FFF7D9FD38B12A463E
:10125000FC21204600F00AF818B1012070BD5B2087
:1012600020702046FFF726FF002070BD2DE9F047D3
:10127000144605464FF6FF77FFF718FFD5F80490A0
:101280004FF400780026D9F80000A15D00F0C6F800
:10129000761C4645F7D3390A2846FFF707FFF9B20F
:1012A0002846FFF703FF2846FFF727FD687200F086
:1012B0001F00052807D0572028702846FFF7FAFEA0
:1012C0000020BDE8F0870120FBE710B504464FF48D
:1012D000FA61FFF794FD40B1FD212046FFF7E6FEDD
:1012E0002046FFF7E7FE012010BD56202070204663
:1012F000FFF7E0FE002010BDF7F702BC30B591B05B
:101300006FF01504002510B920462C4605466846A6
:101310000CF0F8FE0D4800680090079408944FF414
:10132000FA70CDE909500A480B900A4801900A4822
:1013300006909DF83E10012060F300018DF83E10EC
:1013400068460CF09BFF11B030BD00007C0500200A
:1013500018FCFFFFCD680208D5E1010870B50C4903
:101360004FF480550C6838B101280FD1294620462A
:10137000BDE8704012F043B80021204612F03FF85B
:1013800029462046BDE8704012F0BEBB70BD00008B
:101390007C050020B0F90E0070470078401EC0B2F6
:1013A000704770470A78054912B1D1E9002101E080
:1013B000D1E90221C0E9002170470000ACB6030862
:1013C0002DE9F0410F468968144606464FF0FF3577
:1013D000B1B1B068A0B1814212D8A04200D8441E79
:1013E000306809E0396800F009FD48B13168411AF8
:1013F000A14200D80D46401C316821448142F1D2FF
:101400002846BDE8F081007810F0700000D001207F
:1014100070470078002800D00120704708B50268A6
:101420009389ADF800309181006801898907FCD566
:1014300001890906FCD48089C0B208BD426980795F
:10144000891E814050187047406870472DE9FC4163
:101450000D46174601684FF0FF3406226846FCF738
:101460006CFF21462868F3F78BFE0646401C12D01D
:1014700000F0A6FC0546D5E9004104EBC100A042FE
:101480000FD12846491C18F06FFFD5E9000100EB89
:10149000C104083C0AE06846FCF76CFF2046BDE842
:1014A000FC812268521C01D00834E8E73946201D2F
:1014B000266000F057FC2868201AC410EBE710B52E
:1014C0000C4600F07DFC4168A14204DD006800EBA1
:1014D000C400001D10BDBDE8104000F0EBBBF8B526
:1014E0001C4615460E4600F06BFC4168B1420EDD0D
:1014F000006850F83600411C09D0002100916B466D
:1015000022462946F3F72CFE6946884200D1002086
:10151000F8BD406930F81200084000D00120704743
:101520002DE9F84F0646006889461D464169DDF8F9
:1015300028B09246294201D0002406E000693749CC
:10154000284201D0CC6800E08C684FF0000884B1DC
:10155000D9F80070E068B84207D86A46791C04F1EF
:101560000800CDF8008018F0BCFEA06850F8277085
:10157000F7BBBAF1000F02D10420FCF719FE84B1C9
:10158000D9F80070E068B84207D86A46791C04F1BF
:101590000800CDF8008018F0A4FEA06850F827706D
:1015A00037BB326800231EA1506928420ED00223A7
:1015B000102100200D4203D0116851F8201009E0DD
:1015C0004900401C0628F5D3164903E0106928425B
:1015D00000D00123184600225B46984707463CB1DD
:1015E0003068A04212D02146684600F085FB00E03A
:1015F0000CE04A463946684600F016F8CDF80080FF
:10160000E069401EE061684600F09CFB4A463946AE
:10161000304600F009F83846BDE8F88F380300205E
:10162000000000009C3C0408F8B50646087A154600
:101630000C46C0070FD1286820B917490868401C1C
:101640000860286020683146826820469047A0687C
:1016500040F00100A06030682D68C068A84207D83B
:101660000020009030686A46691C083018F039FE86
:101670003068806850F8250030B1C168491EC160EB
:1016800002D1016849688847E068401CE060306822
:10169000806840F82540F8BD640300207CB505460D
:1016A00008680C46806948B16846AFF3008002467E
:1016B00020688169284619F02DFA7CBD01A8AFF396
:1016C0000080024600A1F5E72A00000010B504469C
:1016D000EEF7D3FD204610BD7CB504462DA1EEF7F4
:1016E00041FEE8B32CA12046EEF73CFEC0B34FF418
:1016F000007000F0BDFB0546022221466846FCF75B
:101700001CFE0024EEF7ACFD06464FF480733068F3
:101710000021005D10F0010F00D0012110F03E0FFC
:1017200001D041F0020110F0400F01D041F004015E
:1017300010F0100F01D041F0080110F0080F01D097
:1017400041F0100110F0980F01D041F02001202845
:101750001DD000220AB141F0400110F0020F00E05C
:1017600013E001D041F0800180EA800010F0800F8A
:1017700001D041F4807125F81410641C9C42C6D13C
:101780006846FCF7F7FD28467CBD05487CBD012274
:10179000E0E7000043000000504F534958000000AC
:1017A000083704082DE9FC41064615460C46084654
:1017B000FFF792FF01462B460022304600F086F9E3
:1017C0003E490160064640693D49884273D0012088
:1017D0003076022221466846FCF7AFFD0024FF2543
:1017E000E2B210213046FFF794FE38B909E0EAB2C0
:1017F00010213046FFF78DFE30B96D1EA542F6D898
:1018000002E0641CAC42EBD3C6E90745F76A18E076
:10181000A4F16100192810D8E2B210213046FFF778
:1018200078FE50B1A4F1200808F0FF0208213046EC
:10183000FFF76FFE08B1404600E0204607F8010BB5
:10184000641CAC42E4D90024FF25E2B208213046F2
:10185000FFF75FFE38B909E0EAB208213046FFF72A
:1018600058FE30B96D1EA542F6D802E0641CAC42A9
:10187000EBD3C6E90945376B18E0A4F141001928FC
:1018800010D8E2B208213046FFF743FE50B104F110
:10189000200808F0FF0210213046FFF73AFE08B199
:1018A000404600E0204607F8010B641CAC42E4D936
:1018B0006846FCF75FFD3046BDE8FC814C3B040800
:1018C0000837040810B500F004F8BDE8104000F037
:1018D000CBBA10B500F08EF910BD0000F7B5174671
:1018E000002413460D4606460A4621462046F8F7D0
:1018F0003FFA04000DD1002D01DB172D00D3002588
:10190000164800213B4650F825200846F8F704FA0F
:1019100004467068B8B1EEF71EFD05462046EEF7A6
:101920001AFD2844401C00F0A3FA7168EEF735FD5B
:101930002146EEF7E6FC0546706800F091FA204675
:1019400000F08EFA2C4674603046FEBDAFF3008086
:10195000204600F085FAAFF30080F5E76035040813
:1019600010B500F027FA024901600021416010BD66
:10197000803B040810B5044604482060606800F00D
:101980006FFA2046AFF3008010BD0000803B0408D2
:1019900010B519F002F910BD10B504464FF0FF3034
:1019A000206000F087F90146201D00F0B5F9001F06
:1019B00010BD10B5001D00F0C5F9001F10BD10B519
:1019C000044601C92060201D00F0CCF9204610BD5E
:1019D0002DE9FE43064602A8FFF760FE0222684694
:1019E0000299FCF7AAFC02A819F0D7F80024FF25F9
:1019F000E2B210213046FFF78CFD38B909E0EAB2B7
:101A000010213046FFF785FD30B96D1EA542F6D88E
:101A100002E0641CAC42EBD3C6E90745F76A18E064
:101A2000A4F16100192810D8E2B210213046FFF766
:101A300070FD50B1A4F1200808F0FF0208213046E3
:101A4000FFF767FD08B1404600E0204607F8010BAC
:101A5000641CAC42E4D90024FF25E2B208213046E0
:101A6000FFF757FD38B909E0EAB208213046FFF721
:101A700050FD30B96D1EA542F6D802E0641CAC42A0
:101A8000EBD3C6E90945376B18E0A4F141001928EA
:101A900010D8E2B208213046FFF73BFD50B104F107
:101AA000200808F0FF0210213046FFF732FD08B190
:101AB000404600E0204607F8010B641CAC42E4D924
:101AC0006846FCF757FCBDE8FE8300002DE9F041B5
:101AD0000646202070600020C6E902033F4B3360B9
:101AE0007161327611B93E49716130760024FF256B
:101AF000E2B210213046FFF70CFD38B909E0EAB236
:101B000010213046FFF705FD30B96D1EA542F6D80D
:101B100002E0641CAC42EBD3281BC6E90745401C1D
:101B200000F0A6F90746F06218E0A4F16100192858
:101B300010D8E2B210213046FFF7EBFC50B1A4F10F
:101B4000200808F0FF0208213046FFF7E2FC08B148
:101B5000404600E0204607F8010B641CAC42E4D983
:101B60000024FF25E2B208213046FFF7D2FC38B945
:101B700009E0EAB208213046FFF7CBFC30B96D1E10
:101B8000A542F6D802E0641CAC42EBD3281BC6E9A0
:101B90000945401C00F06CF90746306318E0A4F1D9
:101BA0004100192810D8E2B208213046FFF7B1FCF5
:101BB00050B104F1200808F0FF0210213046FFF771
:101BC000A8FC08B1404600E0204607F8010B641C61
:101BD000AC42E4D93046BDE8F0810000943B0408F3
:101BE0000837040810B500F005F8BDE8104000F013
:101BF0003BB9000010B5044608482060207E10B1B3
